S017000054656D7065726174757265426F6172642E73313967
S315080000002021002051A200087D9700087F9700084C
S31508000010819700088397000885970008000000006C
S31508000020000000000000000000000000879700089C
S3150800003089970008000000008B9700088D97000834
S315080000402D98000805A3000809A300080DA30008B9
S3150800005011A3000815A3000819A300081DA300088A
S3150800006021A3000825A3000829A300082DA300083A
S3150800007031A3000835A3000839A300083DA30008EA
S3150800008041A3000845A3000849A3000877550008BE
S31508000090D355000855A3000859A300085DA3000816
S315080000A061A3000865A3000869A300086DA30008FA
S315080000B071A3000875A3000879A300089D440008E9
S315080000C0A744000885A3000889A300088DA3000893
S315080000D091A300089F97000899A300089DA300080C
S315080000E0A1A30008A5A30008A9A30008ADA30008BA
S315080000F0B1A30008B5A30008B9A30008BDA300086A
S31508000100000000000000000000000000C1A3000875
S31508000110C5A30008C9A30008CDA30008D1A30008F9
S31508000120D5A30008D9A30008DDA30008E1A30008A9
S31508000130E5A30008E9A3000800000000000000008D
S31508000140EDA30008F1A30008F5A3000800000000CD
S315080001500000000000000000000000000000000091
S315080001600000000000000000F9A30008FDA3000835
S3150800017001A40008000000000000000000000000C4
S315080001800000000005A4000800F5E070026891422E
S3150800019003D343689A18914202D380680028F5D1A0
S315080001A07047DFF86007016891B9DFF85C274FF4FC
S315080001B0803181604FF4805141604FF0FF31C1605A
S315080001C0016104214161C2F8BC11DFF840170160E2
S315080001D00120704701F1080313F0070305D001F168
S315080001E00803C3F1080303F007035918D21A8161FB
S315080001F0C26042F001034B60511828234B60DFF8B8
S3150800020004170969C16170472DE9F04F064601F1E7
S31508000210080083B010F0070008BF884607D001F130
S315080002200800C0F1080000F0070000EB010802F121
S31508000230080010F0070006D002F10800C0F1080017
S3150800024000F0070082181546A5EB0800A0EB030985
S3150800025003EB080B43F00300C8F80400AB4528BFBE
S3150800026001F02AFE2879C00758BF01F025FEB9F12A
S31508000270100F38BF01F020FEB069854209D1F06839
S315080002804844F060C6F818B040F00100CBF8040006
S315080002906DE1706985420BD1B0684844B060C6F814
S315080002A014B040F00101CBF8041040F80B005EE1F1
S315080002B0686800F00301012940F0AD80C008C0005D
S315080002C00190C00820283AD2D5F808A0EF68009017
S315080002D0BD4208BF01F0F0FD554508BF01F0ECFD31
S315080002E068680099C008C000B0EBC10F18BF01F0DC
S315080002F0E3FD009806EBC00000F128018A4507D007
S3150800030031698A45C0F08280DAF80C10A9427DD19D
S31508000310574506D1009A30680121914088433060DC
S3150800032076E02830874205D0306987426ED3B868B0
S31508000330A8426BD1CAF80C70C7F808A068E0EF6845
S31508000340D5F818A0AF420CD0A8683169884223D3E3
S31508000350C168A94204BFB968A9421DD1C760B8607F
S315080003601CE005F11400076837B905F110000768A5
S31508000370A7B101E00846076807F114010A68002AD0
S3150800038002BF07F110010A68002AF3D131698842D1
S3150800039002D30021016001E001F08EFDBAF1000FE1
S315080003A036D0E86906EB800000F5987001688D4242
S315080003B008D10760A7B9EA697068012191408843A6
S315080003C0706025E03069824508D3DAF81000A84243
S315080003D014BFCAF81470CAF8107001E001F06CFD79
S315080003E0B7B13069874211D3C7F818A0296929B16E
S315080003F0814226BF39618F6101F05EFD686938B1B7
S315080004003169884202D37861876101E001F054FDC1
S3150800041001984519814468684008400068604FEAB9
S31508000420D90549F00100CBF8040049F80B90202DB6
S3150800043023D206EBC50000F12807BA46B9F1100F1A
S3150800044038BF01F039FD306820FA05F1C90704D430
S315080004500121A9400843306006E0B868316988423E
S315080004602CBF824601F028FDC7F808B0CAF80CB0C0
S31508000470CBF808A0CBF80C7079E05FEA192108BF21
S31508000480002023D0B1F5803F28BF1F201ED2A1F53A
S315080004908070000C00F008008140A1F58052120C13
S315080004A002F004029140A1F580431B0CC0F10E0036
S315080004B003F00203801AC01A994000EBD130C11D1F
S315080004C029FA01F101F0010101EB4000CBF81C000B
S315080004D00022CBF81420CBF8102006EB80017268B6
S315080004E022FA00F301F59871DB0707D4012303FA12
S315080004F000F010437060C1F800B01DE01F280968BD
S315080005000EBF00204008C0F1190009FA00F000E00B
S3150800051011464A68D208D2004A4514D0C20F01EBE8
S31508000520820202F1100340001A68002AF0D13069ED
S3150800053083421AD3C3F800B0CBF81810CBF80CB026
S31508000540CBF808B013E032698868914228BF904218
S315080005500BD3C0F80CB0C1F808B0CBF80800CBF83C
S315080005600C100020CBF8180001E001F0A5FC08F1FA
S31508000570080001F049B82DE9FA4D0546DFF884036D
S31508000580006884B008B9FFF70CFEDFF87803049911
S31508000590806841182F31401E21EA000004998142E3
S315080005A080F0AB8105F5D876B16841B1D5F8B021B0
S315080005B08018824280F0A1818142C0F09E8101F0BC
S315080005C08FFC00281EBF0446D0F8008014F1010FE6
S315080005D000F09381D5F8B0014044C5F8B0017168C0
S315080005E0814238BF01467160A86980BB286908B195
S315080005F0844200D22C613461C6F814800020F06170
S3150800060005F12801BF48006868624FF0FF3028628C
S315080006100020C960896001F10802801CD26010318F
S3150800062092602028F5D3B848854203D1A8F128025C
S31508000630214629E055F8040CC00805EBC000A0F1D6
S31508000640080108EB0400401AA0F128021CE005F591
S31508000650E071084600E08068D0B1026843689A18DD
S315080006609442F8D1027B120712D4AA6903689A4207
S315080006700ED347683B449A420AD208EB0701416009
S31508000680E868A96908EB00022846FFF7A3FD1EE102
S315080006902869844238BF2C61084608EB040100E04B
S315080006A0806880B102688A42FAD1017B09070AD4B8
S315080006B004604168414441602146049B284606B0CF
S315080006C0BDE8F04DA0E5AF6939462846FFF75CFD61
S315080006D001684068401802902F3800F1080111F0AF
S315080006E0070105D000F10801C1F1080101F0070171
S315080006F0081807F11001884234BF00970090009847
S315080007000830019004F10801009800F1180A4FF02A
S31508000710000BA8F1280011F0070105D004F1080123
S31508000720C1F1080101F007010A19401AAA61E86037
S3150800073040F0010151608018282141607148006924
S31508000740E861019810F0070018BF01F0B5FB0099A1
S315080007501B20486005F5E071B1E80C500198A0E847
S315080007600C503461C6F81480C6F81CB00198B06104
S31508000770029800E08A460722CAF804200AF1040112
S315080007800A1D0BF1010B8242F4D3BBF1020FB8BF6D
S3150800079001F092FB0098B84200F09980C01BC1197D
S315080007A0C4084A68520852004A6040F0010179605C
S315080007B0C051202C20D205EBC40101F12806B04611
S315080007C0102838BF01F078FB286820FA04F1C90719
S315080007D004D40121A1400843286006E0B0682969CD
S315080007E088422CBF804601F067FBB760C8F80C70DA
S315080007F0C7F80880FE606AE0010A08BF002223D015
S31508000800B1F5803F28BF1F221ED2A1F58072120CB7
S3150800081002F008029140A1F580531B0C03F0040373
S315080008209940A1F58044240CC2F10E0204F002049A
S31508000830D21A121BA14002EBD131CA1D20FA02F2CC
S3150800084002F0010202EB4102FA6100237B613B617F
S3150800085005EB82016B6823FA02F401F59871E40747
S3150800086005D401209040184368600F601CE01F2AD9
S3150800087009680EBF00225208C2F1190200FA02F2F4
S3150800088000E019464B68DB08DB00834210D0D30F23
S3150800089001EB830303F1100452002368002BF0D107
S315080008A02869844211D32760B961FF60BF600EE0F2
S315080008B02A698868914228BF904206D3C7608F602C
S315080008C0B860F9600020B86101E001F0F5FAE8685F
S315080008D00499814211D2401AE860A969049A52180B
S315080008E0AA6140F001005060049840F00300486097
S315080008F006B001F10800BDE8F08D002006B0BDE89D
S31508000900F08D0000481B0020A81400206859883C78
S315080009102DE9F0470D4604466868904608EB050938
S31508000920C10737D4296810F0030F00F03E8220690A
S315080009306D1A88448542C0F034826269954200F097
S31508000940BB80CE08202E54D2D5F80CA0AF685545EA
S3150800095008BF01F0B1FABD4208BF01F0ADFA6868F8
S31508000960C008C000B0EBC60F18BF01F0A5FA04EB2B
S31508000970C60000F128018F4205D021698F4235D380
S31508000980F968A94232D1BA4521D120680121B1407E
S315080009908843206020698145C0F00382D9F8041095
S315080009A08A0700F16081A269914540F09B80E06862
S315080009B04044E060A56140F00100686060698542D6
S315080009C040F0F38100206061A060BDE8F087283020
S315080009D0824506D02069824508D3DAF80800A8427D
S315080009E004D1C7F80CA0CAF80870D3E701F064FA76
S315080009F0D0E7EF68AE69AF420BD0A968814222D32F
S31508000A00C868A84204BFB868A8421CD1CF60B960BC
S31508000A101BE005F114010F6837B905F110010F68DD
S31508000A209FB101E011460F6807F114021368002B05
S31508000A3002BF07F110021368002BF3D1814202D3DB
S31508000A400020086001E001F037FA002EA2D0E8691C
S31508000A5004EB800000F5987001688D4209D10760A3
S31508000A60380011D1EA6960680121914088436060C5
S31508000A7090E72069864205D33069A84214BF77619A
S31508000A80376101E001F018FA002F83D02069874208
S31508000A90ACD3BE61296929B1814226BF39618F610C
S31508000AA001F00AFA686900283FF474AF21698842A0
S31508000AB09CD3786187616DE799F8040000F003001C
S31508000AC003287FF467AFC4F80880D9F80400400803
S31508000AD04000C9F8040048F00100686048F805803D
S31508000AE0BDE8F0876269914509D1A0684044A060D5
S31508000AF0656140F0010169604051BDE8F087C908A9
S31508000B00C900CE088844202E38D2D9F80CA0D9F8C6
S31508000B100870D14508BF01F0CFF9B94508BF01F003
S31508000B20CBF9D9F80400C008C000B0EBC60F18BF4F
S31508000B3001F0C2F904EBC60000F128018F4206D085
S31508000B4021698F42C0F08180F96849457DD1BA454F
S31508000B5005D120680121B1408843206077E028301C
S31508000B60824506D0206982456FD3DAF808004845E1
S31508000B706BD1C7F80CA0CAF8087068E0D9F80C70F1
S31508000B80D9F818604F450CD0D9F80810814222D3FD
S31508000B90C868484504BFB86848451CD1CF60B960E5
S31508000BA01BE009F114010F6837B909F110010F6844
S31508000BB09FB101E011460F6807F114021368002B74
S31508000BC002BF07F110021368002BF3D1814202D34A
S31508000BD00020086001E001F06FF9002E37D0D9F83F
S31508000BE01C0004EB800000F59870016889450AD15D
S31508000BF00760380012D1D9F81C206068012191409D
S31508000C008843606023E02069864205D330694845F9
S31508000C1014BF7761376101E001F04EF9BFB1206971
S31508000C20874212D3BE61D9F8101029B1814226BF76
S31508000C3039618F6101F040F9D9F8140038B121699A
S31508000C40884202D37861876101E001F035F948F0FE
S31508000C500100686048F80580606985420CD1C4F8CF
S31508000C600880BDE8F08748084000C9F8040048F045
S31508000C700100686048F805804FEAD807202F23D27C
S31508000C8004EBC70000F128094E46B8F1100F38BF2B
S31508000C9001F012F9206820FA07F1C90704D40121E6
S31508000CA0B9400843206007E0D9F80800216988425E
S31508000CB02CBF064601F000F9C9F80850F560AE6089
S31508000CC0C5F80C90BDE8F0875FEA182008BF002138
S31508000CD023D0B0F5803F28BF1F211ED2A0F5807112
S31508000CE0090C01F008018840A0F58052120C02F0A8
S31508000CF004029040A0F580431B0CC1F10E0103F0DD
S31508000D000203891AC91A984001EBD030C11D28FA86
S31508000D1001F101F0010101EB4001E96100226A617C
S31508000D202A6104EB8100626822FA01F300F59870E3
S31508000D30DB0706D4012303FA01F11143616005605C
S31508000D401CE01F2900680EBF00214908C1F11901DE
S31508000D5008FA01F100E010464268D208D20042457E
S31508000D6011D0CA0F00EB820202F1100349001A687B
S31508000D70002AF0D121698B4213D31D60A861ED606A
S31508000D80AD60BDE8F08722698168904228BF91422C
S31508000D9007D3CD608560A960E8600020A861BDE83A
S31508000DA0F087BDE8F04701F087B8BDE8F0872DE980
S31508000DB0F04D044688460026C8F1000B5FEA182065
S31508000DC008BF002123D0B0F5803F28BF1F211ED2BF
S31508000DD0A0F58071090C01F008018840A0F5805241
S31508000DE0120C02F004029040A0F580431B0CC1F1DE
S31508000DF00E0103F00203891AC91A984001EBD03094
S31508000E00C11D28FA01F101F0010101EB400104EBD3
S31508000E108100D0F8300130B31F290EBF00224A08DE
S31508000E20C2F1190208FA02F2002300E052004568EE
S31508000E30ED08ED00A5EB08055D4503D206465FEA19
S31508000E40050B0CD045694FEAD27E00EB8E00002DCB
S31508000E5000691CBF85422B460028E7D118460028A2
S31508000E603AD1002E3AD10120884040004142084339
S31508000E706168084000F0658141420840411E080B40
S31508000E8000F0100021FA00F2510901F00801CA40E9
S31508000E90930803F00403DA40550805F0020508181C
S31508000EA0EA401818C2F3400E2844704422FA0EF19C
S31508000EB0081804EB8000D0F830010DE008464168B8
S31508000EC0C908C900A1EB080159453CBF8B4606462F
S31508000ED001690029F2D140690028F0D1002E00F0FE
S31508000EE03081A068A0EB0800834580F02A8120693C
S31508000EF08642C0F024817068C008C00008EB0B0168
S31508000F0008EB0605884218BF00F0D6FFAE4280F00F
S31508000F101681F768D6F818A0B7420CD0B0682169D0
S31508000F20884223D3C168B14204BFB968B1421DD112
S31508000F30C760B8601CE006F11400076837B906F107
S31508000F4010000768A7B101E00846076807F1140111
S31508000F500A68002A02BF07F110010A68002AF3D1BD
S31508000F602169884202D30021016001E000F0A4FF54
S31508000F70BAF1000F38D0F06904EB800000F59870DC
S31508000F8001688E4209D10760380014D1F269606899
S31508000F90012191408843606026E02069824508D394
S31508000FA0DAF81000B04214BFCAF81470CAF8107004
S31508000FB001E000F081FFBFB12069874212D3C7F86C
S31508000FC018A0306930B12169884226BF3861876127
S31508000FD000F072FF706938B12169884202D37861DE
S31508000FE0876101E000F068FFBBF1100F0CD208EB37
S31508000FF00B0040F00300706008EB0B008019416895
S3150800100041F00101416096E048F0030070604BF042
S31508001010010068604BF805B04FEADB0020281DD2B6
S3150800102004EBC00101F12807216821FA00F2BB464A
S31508001030D20705D4012202FA00F00843206006E030
S31508001040B868216988422CBF834600F035FFBD6029
S31508001050CBF80C50C5F808B0EF606CE05FEA1B21CE
S3150800106008BF002023D0B1F5803F28BF1F201ED21D
S31508001070A1F58070000C00F008008140A1F58052AF
S31508001080120C02F004029140A1F580431B0CC0F13A
S315080010900E0003F00203801AC01A994000EBD13003
S315080010A0C11D2BFA01F101F0010101EB4000E861D5
S315080010B000226A612A6104EB8001626822FA00F361
S315080010C001F59871DB0706D4012303FA00F01043F3
S315080010D060600D601CE01F2809680EBF00204008EC
S315080010E0C0F119000BFA00F000E011464A68D20870
S315080010F0D2005A4510D0C20F01EB820202F110034A
S3150800110040001A68002AF0D12069834211D31D6075
S31508001110A961ED60AD600EE022698868914228BF3A
S31508001120904206D3C5608D60A860E9600020A8617A
S3150800113001E000F0C1FE06F10800BDE8F08D00F000
S31508001140BBFE0020BDE8F08D2DE9F84F0446884621
S31508001150606841420840411E080B00F01000C1407B
S315080011604A0902F00802D1408B0803F00403D9406B
S315080011704D0805F002051018E9401818C1F3400695
S3150800118028443018F140081804EB8000D0F83001E4
S315080011904168C908C9000646A1EB080A09E00846DD
S315080011A04168C908C900A1EB080151453CBF8A46F8
S315080011B0064601690029F2D140690028F0D1206964
S315080011C08642C0F0C4807068C00808EB0A09C000EF
S315080011D008EB060B484518BF00F06EFE5E4580F02A
S315080011E0B680F768B569B7420CD0B06821698842FD
S315080011F023D3C168B14204BFB968B1421DD1C760E3
S31508001200B8601CE006F11400076837B906F110004B
S315080012100768A7B101E00846076807F114010A68DC
S31508001220002A02BF07F110010A68002AF3D12169D2
S31508001230884202D30021016001E000F03DFE002D46
S3150800124034D0F06904EB800000F5987001688E428E
S3150800125009D10760380011D1F2696068012191400F
S315080012608843606022E02069854205D32869B04238
S3150800127014BF6F612F6101E000F01EFEB7B120694F
S31508001280874211D3BD61306930B12169884226BFD2
S315080012903861876100F010FE706938B121698842AB
S315080012A002D37861876101E000F006FEBAF1100FFB
S315080012B009D249F00300706009EB0600416841F065
S315080012C0010141603FE048F0030070604AF0010008
S315080012D0CBF804004AF80BA0D4F808804FEAD805E2
S315080012E0202D28BF00F0E8FDB8F1000F27D0D4F86C
S315080012F01490009504EBC50000F128052F46B8F1B7
S31508001300100F38BF00F0D8FD2068009920FA01F1C7
S31508001310C90705D4009A012191400843206006E0D8
S31508001320A868216988422CBF074600F0C5FDC5F8A4
S315080013300890C7F80C90C9F80870C9F80C50C4F89A
S3150800134008A0C4F814B006F10800BDE8F28F00F052
S31508001350B3FD0020BDE8F28F2DE9F04F83B00546B6
S31508001360C046C046DFF8C44AF52D80F002810B2D31
S3150800137031BF102705F10B00C008C7002068FE081A
S31508001380F04010F0030F42D0C04300F00100861968
S3150800139004EBC60000F12808F700D8F8085068687A
S315080013A0C008C000B84218BF00F086FDD5F80890FE
S315080013B0454508BF00F080FD4D4508BF00F07CFD9F
S315080013C06868C008C000B84218BF00F075FDC84577
S315080013D005D120680121B140884320600DE02069CD
S315080013E0814508D3D9F80C00A84204D1C8F808905A
S315080013F0C9F80C8001E000F05FFD47F00300686063
S3150800140078190835416841F001014160F9E0A168A1
S31508001410B94280F0C080002800F0A280012505FAB4
S3150800142006F149004A42B04011430840414208408B
S31508001430411E080B00F01000C1404A0902F00802DC
S31508001440D1408B0803F00403D9404E0806F0020683
S315080014501018F1401818C1F340083018404421FA12
S3150800146008F101EB000804EBC80000F128094FEA6F
S31508001470C80AD9F808607068C008C000504518BF87
S3150800148000F01AFDD6F808B04E4508BF00F014FD66
S315080014905E4508BF00F010FD7068C008C0005045E2
S315080014A018BF00F009FDD94505D1206805FA08F1ED
S315080014B0884320600DE02069834508D3DBF80C00DB
S315080014C0B04204D1C9F808B0CBF80C9001E000F09E
S315080014D0F3FC47F003007060AAEB0708B8190190FF
S315080014E048F0010001994860019848F80080A7680B
S315080014F04FEAD70ABAF1200F28BF00F0DDFC47B340
S31508001500CDF800A004EBCA00D4F8149000F1280A1C
S31508001510D346102F38BF00F0CFFC2068009920FA78
S3150800152001F1C90705D4009905FA01F108432060BD
S3150800153007E0DAF80800216988422CBF834600F0E4
S31508001540BBFCCAF80890CBF80C90C9F808B0C9F8E3
S315080015500CA0C4F8088006F108050198606150E0FF
S315080015606068C0B339462046FFF7EEFD050012D085
S3150800157047E015F1400F28BF4FF0FF370BD205F1B2
S315080015800B00C008C700606828B139462046FFF737
S315080015900EFC050035D1A068B8421CD3C11B626990
S315080015A010290AD3B8186061A16041F001034360AD
S315080015B0095047F0030050600AE00021A16061610C
S315080015C040F0030151608018416841F00101416013
S315080015D002F1080515E0E06887420DD2C01BA16933
S315080015E0E0607A18A26140F00100506001F1080538
S315080015F047F00300486004E039462046FEF7BBFF83
S315080016000546C046C046284603B0BDE8F08F00B977
S3150800161070472DE9F047A0F10804C046C046DFF838
S315080016200C5828698442C0F07482616801F003028C
S31508001630012A00F06E82CA084FEAC20808EB0409BC
S31508001640CA0736D4226811F0030F00F06482A41A80
S3150800165090448442C0F05D8269698C4200F0D8806B
S31508001660D608202E70D2D4F80CA0A768544508BF17
S3150800167000F022FCBC4208BF00F01EFC6068C008EF
S31508001680C000B0EBC60F18BF00F016FC05EBC6008D
S3150800169000F128018F4205D029698F4251D3F96894
S315080016A0A1424ED1BA453DD128680121B1408843AF
S315080016B028604C4580F02D82D9F80400C10740F116
S315080016C02882810700F17A81A969894540F0B580A9
S315080016D0E868AC614044E86040F00101616069690E
S315080016E08C4202D100216961A960E969814280F0D2
S315080016F01282DFF83C07006808B9FEF752FDA969AF
S31508001700002900F00882E868292824BF2846FEF741
S315080017103BFDE869E968884280F0FD814FF0FF30BB
S31508001720E861F8E12830824506D02869824508D361
S31508001730DAF80800A04204D1C7F80CA0CAF8087065
S31508001740B7E700F0B9FBB4E7E768A669A7420BD08C
S31508001750A168814222D3C868A04204BFB868A042E3
S315080017601CD1CF60B9601BE004F114010F6837B9CA
S3150800177004F110010F689FB101E011460F6807F1E7
S3150800178014021368002B02BF07F110021368002B1E
S31508001790F3D1814202D30020086001E000F08CFBFF
S315080017A0002E86D0E06905EB800000F59870016888
S315080017B08C4209D10760380011D1E26968680121B5
S315080017C091408843686074E72869864205D3306982
S315080017D0A04214BF7761376101E000F06DFB002F6E
S315080017E03FF467AF28698742ABD3BE61216929B147
S315080017F0814226BF39618F6100F05EFB606900286F
S315080018003FF457AF296988429BD37861876150E7CF
S3150800181099F8040000F0030003287FF44AAFC5F8DE
S315080018200880D9F8040040084000C9F8040048F0C8
S315080018300100606048F804806DE16969894508D14E
S31508001840A8686C614044A86040F0010161600051DD
S3150800185061E1C008C0004FEAD00A8044BAF1200FFF
S3150800186036D2D9F80C70D9F80860B94508BF00F027
S3150800187023FBB14508BF00F01FFBD9F80400C008D8
S31508001880C000B0EBCA0F18BF00F016FB05EBCA0084
S3150800189000F128018E4206D029698E42C0F0818067
S315080018A0F16849457DD1B74206D12868012101FA78
S315080018B00AF18843286076E02830874205D02869EF
S315080018C087426ED3B86848456BD1F760BE606AE058
S315080018D0D9F80C70D9F818604F450DD0D9F808001A
S315080018E02969884223D3C168494504BFB96849456F
S315080018F01DD1C760B8601CE009F11400076837B944
S3150800190009F110000768A7B101E00846076807F162
S3150800191014010A68002A02BF07F110010A68002AA2
S31508001920F3D12969884202D30021016001E000F061
S31508001930C3FA002E37D0D9F81C0005EB800000F555
S315080019409870016889450AD10760380012D1D9F81C
S315080019501C206868012191408843686023E0286953
S31508001960864205D33069484514BF7761376101E07F
S3150800197000F0A2FABFB12869874212D3BE61D9F82E
S31508001980101029B1814226BF39618F6100F094FA9F
S31508001990D9F8140038B12969884202D37861876179
S315080019A001E000F089FA48F00100606048F8048018
S315080019B0686984420BD1C5F80880ACE0400840004D
S315080019C0C9F8040048F00100606048F804804FEA4E
S315080019D0D807202F22D205EBC70000F128094E466A
S315080019E0B8F1100F38BF00F067FA286820FA07F137
S315080019F0C90704D40121B9400843286007E0D9F88B
S31508001A000800296988422CBF064600F055FAC9F82D
S31508001A100840F460A660C4F80C907CE05FEA1820E1
S31508001A2008BF002123D0B0F5803F28BF1F211ED252
S31508001A30A0F58071090C01F008018840A0F58052D4
S31508001A40120C02F004029040A0F580431B0CC1F171
S31508001A500E0103F00203891AC91A984001EBD03027
S31508001A60C11D28FA01F101F0010101EB4001E16114
S31508001A7000226261226105EB81006A6822FA01F39D
S31508001A8000F59870DB0706D4012303FA01F1114328
S31508001A90696004601CE01F2900680EBF0021490820
S31508001AA0C1F1190108FA01F100E010464268D208AE
S31508001AB0D200424510D0CA0F00EB820202F1100391
S31508001AC049001A68002AF0D129698B4211D31C6093
S31508001AD0A061E460A4600EE02A698168904228BF8C
S31508001AE0914206D3CC608460A160E0600020A061CA
S31508001AF001E000F0E1F9286A401E28620BD1D5F80A
S31508001B00C80100E080680028FCD14FF0FF30286249
S31508001B1001E000F0D1F9C046C046BDE8F0872DE9DE
S31508001B20F84F0D4604466B6820691646DA08D20057
S31508001B3011464FF0000B01EB05088542C0F06F8196
S31508001B4003F00307012F00F06A81454580F067819D
S31508001B50D8F804705FEAC77E40F1618113F0030F7D
S31508001B600FD1F008202824BF301D8242C0F05981C9
S31508001B70DFF8BC0280684000911B8842C0F05181A2
S31508001B804BE1B1421AD38A1B102AC0F0468103F0F2
S31508001B900100304340F0020071196860486840F05F
S31508001BA00100486042F0030048605018436843F05B
S31508001BB0010343602046FEF7ABFE2EE1A26990457D
S31508001BC016D1E0684018864280F02B8103F00102A6
S31508001BD0324342F0020271196A60801B4A6842F079
S31508001BE001024A6040F001024A60A161E06014E126
S31508001BF0626990452BD1A0684118B142C0F01181A5
S31508001C00881B03F00102102812D3324342F0020265
S31508001C1071196A6043184A6842F001024A6040F046
S31508001C2001024A6040505A68520852005A600BE056
S31508001C3041EA020040F0020068604819416841F034
S31508001C4001014160002001466161A060E5E0BA0734
S31508001C5000F1E780FA08D20002EB0109B145C0F0AD
S31508001C60E080D108A9EB060B20293DD2D8F808A0B8
S31508001C70D8F80C700091B84508BF00F01DF9D0459A
S31508001C8008BF00F019F9D8F804000099C008C00088
S31508001C90B0EBC10F18BF00F00FF9009804EBC000B5
S31508001CA000F128018A4508D021698A45C0F0888054
S31508001CB0DAF80C10414540F08380574506D1009A62
S31508001CC0206801219140884320607BE028308742C4
S31508001CD005D02069874273D3B868404570D1CAF8E1
S31508001CE00C70C7F808A06DE0D8F80C70D8F818A0E2
S31508001CF047450CD0D8F80810814222D3C868404519
S31508001D0004BFB86840451CD1CF60B9601BE008F134
S31508001D1014010F6837B908F110010F689FB101E087
S31508001D2011460F6807F114021368002B02BF07F16A
S31508001D3010021368002BF3D1814202D300200860F9
S31508001D4001E000F0B9F8BAF1000F3BD0D8F81C0052
S31508001D5004EB800000F59870016888450AD1076091
S31508001D60380015D1D8F81C206068012191408843B5
S31508001D70606027E02069824508D3DAF810004045FC
S31508001D8014BFCAF81470CAF8107001E000F094F88D
S31508001D90C7B12069874213D3C7F818A0D8F810101E
S31508001DA029B1814226BF39618F6100F085F8D8F8DC
S31508001DB0140038B12169884202D37861876101E04D
S31508001DC000F07AF8BBF1100F0ED2287900F0010066
S31508001DD049EA000040F00200686009EB0500416826
S31508001DE041F00101416018E07119287900F00100FD
S31508001DF0304340F002006860486840F001004860DF
S31508001E004BF0030048600BEB0100426842F0010208
S31508001E10426020465A46FEF77BFDAB4601E000F0DD
S31508001E204BF85846BDE8F28F00000000A8140020C1
S31508001E30481B0020F8B504460D46002624B9284656
S31508001E40FFF78AFA064632E015F1400F2FD20B2D1E
S31508001E5031BF102605F10B00C608F600A4F10807E5
S31508001E60C046C046012332463946DFF84800FFF728
S31508001E7056FE0646C046C0460EB1083617E0284646
S31508001E80FFF76AFA060012D0786810F0030F0CBF45
S31508001E9008210421C008C000421AAA4288BF2A465F
S31508001EA02146304600F032F82046FFF7B0FB3046B0
S31508001EB0F2BD0000A8140020012000F063B850F815
S31508001EC0041B61B150F8042BD30744BFA9F10103E1
S31508001ED09A18002342F8043B091FFAD1EFE7704726
S31508001EE00749086808B1002070470648C008C000BE
S31508001EF008600549C908C900091A0160704700BF8A
S31508001F00081C0020272100202025002062B38B070B
S31508001F1008D0521E11F8013B00F8013B00F024805E
S31508001F208B07F6D1830740F0208000BF103A07D30D
S31508001F3030B4B1E83810103AA0E83810F9D230BCFD
S31508001F40530724BFB1E80810A0E8081044BF51F8A9
S31508001F50043B40F8043BD20724BF31F8022B20F893
S31508001F60022B44BF0B7803707047083A07D3B1E8D1
S31508001F700810083A40F8043B40F804CBF7D2530758
S31508001F80E4E7000280B500F007F8024A11001820BD
S31508001F90ABBEFBE72600020080B500F033F802006E
S31508001FA00023DB431068984204D011000220ABBE20
S31508001FB0002010605068984204D0111D0220ABBE64
S31508001FC00020506001BD000010B584B0040000F088
S31508001FD019F8A100421810680021C94388420DD19A
S31508001FE007A00090002C01D1002000E004200190F9
S31508001FF00320029069460120ABBE106004B010BDF4
S315080020003A747400004870479C0200202DE9F04F8E
S31508002010A1B08246002017461D4602910B900DF18D
S31508002020440B6FF000490AE017F8011B0298D047E5
S315080020300290002800F0A9820B98401C0B90387873
S3150800204008B90B98A3E22528EED100200590069042
S315080020500790089009900A9001E040F0010017F8EF
S31508002060011F2029F9D023290DD02B2904D02D2989
S3150800207006D030290AD00CE040F0020080B2EEE724
S3150800208040F00400FAE740F00800F7E740F01000D7
S31508002090F4E72A290ED12968296051F8042B29600A
S315080020A00D92002A04D5514240F004000D9180B2E9
S315080020B07F1C11E000210D9109E00D99494505D0D5
S315080020C001EB810302EB430130390D917F1C3A780D
S315080020D0A2F130010A29F0D339782E2903D04FF01E
S315080020E0FF310C911DE017F8011F2A2907D129682D
S315080020F029607F1C51F8042B29600C9211E00021FD
S315080021000C9109E00C99494505D001EB810302EBD6
S31508002110430130390C917F1C3A78A2F130010A2923
S31508002120F0D3ADF838000FF65C40397800F038FE89
S3150800213008B117F8010B8DF83A009DF83A0068289F
S3150800214002BF39786829622005D06C2804BF387820
S315080021506C2803D171208DF83A007F1C11A80490D1
S3150800216017F8014BB4F125002AD01C3800F0CD80B1
S31508002170001F022840F2C980133800F0EF800938A2
S3150800218000F0C380801E00F05081401E00F02581BB
S31508002190401E022840F2B980001F00F01E81401F31
S315080021A000F08480401E00F0D980401E29D0C01E51
S315080021B00CD0801E00F0D280C01E00F0CF803EE119
S315080021C00120059025208DF8440044E12868286000
S315080021D050F8044B28600394DDF83080B8F1000FFE
S315080021E004D5204600F0E8FD804607E04246002177
S315080021F0204600F0FDFD08B1A0EB0408CDF81880D4
S3150800220029E1296829604FF03C0851F8040B296038
S315080022100021CDE9000111A80390DDE90001049C25
S3150800222011B908B90C9ACAB10206120FA0EB02122C
S315080022303032A8F1010ED2B2F0463A2AA8BF2732A8
S3150800224000090EF8042040EA0170090908BF0028B1
S3150800225004D0039A08EB04039A42E5D308EB04007A
S315080022600390C8F13C010C980691814209DA401A9C
S3150800227008904FF6EF71BDF838000840ADF8380001
S31508002280E9E0002840F1E7809DF8380000F01400E6
S31508002290102840F0E0800D98059A801A089A801A4E
S315080022A0401A0128C0F2D7800890D4E09DF83A0079
S315080022B062281AD0682806D06A280CD06C281CD048
S315080022C0712808D019E02868286050F8041B28608F
S315080022D00B980880BFE02868286050F8042B28600F
S315080022E00B98C117C2E90001B5E02868286050F8C4
S315080022F0041B28600B980870ADE02868286050F821
S31508002300041B28600B980860A5E02868C01D20F00B
S3150800231007022A60D2E9000108322A60CDE90001E5
S31508002320002903D5012005902D200CE0BDF83800C2
S31508002330810703D5012005902B2004E0C00704D5AA
S315080023400120059020208DF84400059911A8081849
S315080023500390214600A800F0D7F97CE09DF83A20C2
S315080023606C2A0DD0712A18BF6A2A09D12868C01D9F
S3150800237020F007032B60D3E9000108332B6005E042
S315080023802968296051F8040B29600021CDE900016C
S31508002390682A08BF80B207D0622A08BFC0B203D035
S315080023A0742A18BF7A2A02D10021CDE900019DF8C6
S315080023B03800000730D5DDE90001002908BF0028EC
S315080023C02AD044F02000782826D130208DF8440001
S315080023D08BF80140022005901EE029469DF83A0038
S315080023E000F0D8F8CDE90001002904DA0598411C67
S315080023F005912D210EE0BDF83800810704D5059812
S31508002400411C05912B2105E0C00705D50598411CFF
S315080024100591202100F80B10059911A808180390BA
S31508002420214600A800F0EDF815E00120059028687F
S31508002430286050F8041B28608DF844100BE0012032
S31508002440059025208DF84400002C04D00598411CE1
S31508002450059100F80B400D980599401A0899401AFD
S315080024600699401A0999401A0799401A0A99A0EB41
S3150800247001089DF8380040070FD420208DF8400049
S31508002480002408E0012310AA00A9504600F063FCC6
S3150800249000287AD1641C4445F4DB059C11AE0AE099
S315080024A016F8011B0298D047029000286DD00B98A9
S315080024B0401C0B90641E002CF2D130208DF8400091
S315080024C00026089C08E0012310AA00A9504600F03F
S315080024D042FC002859D1761CA642F4DB069C039ED2
S315080024E00AE016F8011B0298D047029000284CD043
S315080024F00B98401C0B90641E002CF2D130208DF8EE
S3150800250040000026099C07E0012310AA00A95046AE
S3150800251000F021FCC8BB761CA642F5DB0398069999
S31508002520079C0E1809E016F8011B0298D04702907E
S3150800253058B30B98401C0B90641E002CF3D1302026
S315080025408DF8400000260A9C07E0012310AA00A97E
S31508002550504600F000FCC0B9761CA642F5DB9DF893
S31508002560380040077FF56BAD20208DF84000002429
S3150800257000E0641C4445BFF662AD012310AA00A919
S31508002580504600F0E8FB0028F3D04FF0FF3021B0AA
S31508002590BDE8F08F622826D068281DD06A2808D0A2
S315080025A06C2827D0712804D0742823D07A280CD018
S315080025B020E00868C01D20F007000860D0E9002365
S315080025C0083008601946104670470A680A6052F8CB
S315080025D0040B0A60002170470A680A6052F8040B67
S315080025E00A6000B20BE00A680A6052F8040B0A6037
S315080025F040B204E00A680A6052F8040B0A60C11780
S3150800260070472DE9FA4E05460A462F696F2A08BF14
S31508002610082405D041F02000782814BF0A24102485
S31508002620D5E900013C2681468A46642A18BF692AEC
S3150800263005D1002903DAD9F100096AEB4A0ABAF189
S31508002640000F08BFB9F1000F0CD1286B50B9082C40
S3150800265036D195F83800000732D530203B2687F862
S315080026603B002DE0E31748465146224600F0ECFBB6
S31508002670A4FB0023A9EB02023032A6F1010BD2B269
S315080026805E463A2A03DB9DF80030513B9A180BF850
S31508002690072081465FEA010A08BFB9F1000F03D097
S315080026A0E868F1198842DDD3082C09D195F8380075
S315080026B0000705D5F05D302802D0761E3020F0558B
S315080026C0C6F13C00A861F119E960296B884208DA6D
S315080026D0081A28624FF6EF71288F08402887BDE848
S315080026E0F38E00290ED595F8381001F0140110293B
S315080026F008D1696B6A69891A2A6A891A081A012827
S31508002700A8BF2862BDE8F38E2DE9F24F04468EB0C5
S31508002710D4E90001CDE9020104AF9DF8380040F084
S31508002720200BBBF1610F0AD0206B002848BF06209A
S3150800273004D408BFBBF1670F01D10120206361688B
S31508002740C1F30A5040F2FF7290421CD1080304BF3D
S315080027502068002809D10320A0619DF83800613857
S315080027601A2836D30FF2306108E00320A0619DF8DD
S31508002770380061381A2829D30FF21461E068032259
S31508002780FFF7C4FBBEE1012816DA204600F0D3FBAA
S31508002790012811DB00250020BBF1610F20D1E1687B
S315080027A0302201F8012B4A1CE2609DF83820612A84
S315080027B00CBF782258220FE0626840F2FE3161F3BE
S315080027C01E52451A62604FF0FF30E5E70FF2BC5122
S315080027D0D4E70FF2C051D1E70A706169891C6161BB
S315080027E010B90026002584E1BBF1610F40F09780FF
S315080027F0206B00284CBF2126461CDDE90201D4E9DE
S3150800280000AB0022002336B200F0B6FB06F1010841
S315080028103ABF8BF00040CDE902A0CDE902AB2D1FEF
S315080028208DF810200DF1110700E0C71DB8F1010F52
S3150800283033DBDDE902010022002300F0B5FB2CD2D0
S315080028401C2102A800F0C8FBDDE9020100F04EFCDD
S31508002850A8F107088146B8F1010F09DB00F072FC00
S3150800286002460B46DDE9020100F084FCCDE90201CF
S31508002870F81D072105E009F00F0200F8012D4FEABF
S315080028802919B9F1010F01DB491EF4D5491E5CBFB0
S31508002890002200F8012DF9D5C7E70DF11100391A04
S315080028A00DF11107B142B8BF0E4636B230002FD42B
S315080028B0884206DA04A9411849780829A8BF0F21D1
S315080028C000DA002104AA821800E0761E12F80139FF
S315080028D0401E8B42F9D00F2904D104A941184A7821
S315080028E0521C4A70002802D504AF761C2D1D36B23C
S315080028F0701E0DD4C1190A783032D2B23A2A03DBD7
S315080029009DF838303A3B9A1801F80129401EF2D54D
S31508002910206B002840F1ED80701E2063E9E0DDE9B8
S3150800292002010022002300F027FB3CBF81F0004192
S31508002930CDE902012DB247F2975068434B49DFF8BB
S31508002940309190FBF1F52DB2C5F1070A9046BAF120
S31508002950010F1CDBDDE902675FEACA7007D542464C
S315080029604B463046394600F0C5FC06460F464FEA48
S315080029706A0A4046494642464B4600F0BBFC80463A
S315080029808946BAF1000FE7D1CDE9026724E0CAF11A
S31508002990000A0026374F14E05FEACA7007D5424698
S315080029A04B463046394600F0A5FC06460F464FEA28
S315080029B06A0A4046494642464B4600F09BFC80461A
S315080029C08946BAF1000FE7D1DDE9020132463B46F6
S315080029D000F062FDCDE90201BBF1660F0CBF05F1FF
S315080029E00A000620216B4618142EA8BF132630208D
S315080029F08DF810000DF11107DFF87C90012E3DDBF4
S31508002A00DDE9020100F088FB07F1080104220A2328
S31508002A10B0FBF3F303EB8307A0EB4700303001F874
S31508002A20010D0A20B3FBF0F000EB8007A3EB470388
S31508002A30303301F8013D521EE9D1083E01F108077D
S31508002A40012EDBDBDDE9020100F066FB00F084FB0A
S31508002A5002460B46DDE9020100F08CFB00224B46DC
S31508002A6000F048FCCDE90201CAE700BFA0860100D4
S31508002A70000024400000F03F84D797410DF1110073
S31508002A80381A0DF1110702E0401E6D1E7F1C3978B9
S31508002A903029F9D0BBF1660F02D12DB2691C04E0CA
S31508002AA0BBF1650F0CBF01210021226B8E1836B2CF
S31508002AB0B042B8BF064636B231001AD4814204DAAB
S31508002AC0C85D3528A8BF392000DA3020CA19521E39
S31508002AD000E0761E12F80139491E8342F9D03928DA
S31508002AE002D1C85D401CC855002902D57F1E761C38
S31508002AF06D1C2DB29DF83810009533B23A46204623
S31508002B0000F003F80FB0BDE8F08F2DE9F04786B066
S31508002B1006468A4690461D4600F0FFFD406A376B1A
S31508002B2090F80090012D02DA01250FF270284AF07C
S31508002B302000BDF93840662808BF641C12D06728F3
S31508002B4076D114F1040F79DBBC4277DA96F83800AF
S31508002B50641C000702D4BD42B8BF2F4624B23F1BEF
S31508002B6048BF0027F068B16924B2012C21DA302366
S31508002B704A1C0B54012F03DA96F83810090702D5B8
S31508002B8002F80090521CB261E742B8BF7C4224B2F8
S31508002B906142E7197162AF42B8BF3D462DB2F56191
S31508002BA02A46B36941461818FFF7B0F9781BB06290
S31508002BB0BAE00818A54216DA2A464146FFF7A6F9EA
S31508002BC0B1696918B161601B7062012F03DA96F862
S31508002BD03800000705D5F06801F80090F069401C38
S31508002BE0F061B762A0E022464146FFF78FF9B06967
S31508002BF020182D1B012F03DA96F83810090703D57C
S31508002C00F16800F80190401C2DB2B061AF42B8BF20
S31508002C103D46F068B3692DB22A4604EB0801181838
S31508002C20FFF774F9B0692818B061781B70627BE009
S31508002C30BAF1610F14D14FF0700A16E0BD4204DAFA
S31508002C4096F83810090758BF2F467F1E48BF002739
S31508002C50BAF1670F14BF4FF0450A4FF0650A04E052
S31508002C60BAF1410F08BF4FF0500AB169F06818F879
S31508002C70013B0B544A1C012F05DA96F83810090750
S31508002C8058BFB26115D502F80090531CB361012FE5
S31508002C900FDB6D1E2DB2AF42B8BF3D462DB22A4698
S31508002CA041461818FFF732F9B0692818B061781B41
S31508002CB07062F068B16901EB0008200008F801AB02
S31508002CC003D42B2008F8010B03E02D2108F8011B7B
S31508002CD06442002502AF08E00A2200A800F036FD8B
S31508002CE0019807F8010B6D1C009C21B20129F3DA43
S31508002CF0022D06DA4AF02000652804BF302008F8BD
S31508002D00010B4DB9302008F8010B07E06D1E02A82B
S31508002D10285C303008F8010B012DF7DAF068B16944
S31508002D200818A8EB0000F06196F8380000F01400C7
S31508002D3010280DD17069B1690818716A0818F16907
S31508002D400818B16A0818716B8842BCBF081A306245
S31508002D5006B0BDE8F087F8B504460D4616461F4688
S31508002D60002004E0E86A401CE8627F1E002047B1A4
S31508002D7016F8011BA868A047A8600028F2D14FF0F2
S31508002D80FF30F2BD686A6C747A4C00006E616E00A2
S31508002D904E414E00696E6600494E460030000004FA
S31508002DA00278C9B28A421AB11CBF10F8012FF9E796
S31508002DB018BF00207047090000F10103810704D0FD
S31508002DC010F8011B89B18107FAD10268B2F1013105
S31508002DD0914311F0803F04BF50F8042FF6E710F82E
S31508002DE0011B11B110F8011BFBE7C01A70470A0056
S31508002DF0C9B2830706D0521E22D310F8013B994266
S31508002E00F7D11FE0083A13D302F1040241EA01217F
S31508002E1041EA014150F8043B121F21BF4B40A3F180
S31508002E20013C2CEA030C1CF0803FF3D0C9B2001F0A
S31508002E30083210F8013B521E28BF91EA030FF8D852
S31508002E4018BF0120401E70471B4213D1094236D1D4
S31508002E502AB18446B0FBF2F002FB10C2704700F0BC
S31508002E607DBCFCD30022002370470B000200002122
S31508002E7000207047904271EB030CF6D370B5B1FA97
S31508002E8081F4B3FA83F52C1BA340C4F1200532FA6A
S31508002E9005F63343A2405FF00046E64002E05B08D1
S31508002EA05FEA3202841A71EB030524BF20462946DD
S31508002EB07641F4D302000B003000002170BD012AD0
S31508002EC0CFD970B5140C20D0B1FA81F4B2FA82F5D4
S31508002ED0C4F120046419B4F12006D6D3B2405FF0D9
S31508002EE00044F440002502E052085FEA3303C61A9C
S31508002EF071EB020E24BF3046714664416D41F3D32F
S31508002F0002000B002000290070BD0C46B1FBF2F14F
S31508002F1002FB11452D0445EA1045B5FBF2F402FB08
S31508002F20145580B240EA0545B5FBF2F002FB105293
S31508002F3040EA044070BD30B4436803F00042012102
S31508002F401B031B0B436004BF0368002B08D10DE06D
S31508002F500368DD0F45EA440444605B000360491ECC
S31508002F604468E302F4D523031B0B436043681A4302
S31508002F704260084630BC70474FF4001C1CEB410FFA
S31508002F8094BF1CEB430F09E041EA030C50EA4C0CD2
S31508002F9052EA0C0C03D2994208BF9042704714BFFC
S31508002FA08B42824270471F214FF4001C1CEB410FD5
S31508002FB094BF1CEB430F09E041EA030C50EA4C0CA2
S31508002FC052EA0C0C03D28B4208BF8242704714BFE8
S31508002FD0994290427047202270B504460D466068B3
S31508002FE0C0F30A5040F2FF71884207D160680003B7
S31508002FF004BF2068002817D0022070BD20B92046DB
S31508003000FFF799FF012867DA012D0FDB40F2FF7100
S31508003010091A8D420AD3606800284CBF9FED2F0B12
S315080030209FED300B84ED000B012070BD4142A94293
S31508003030616806DA6FF31E51401941EA0050606074
S3150800304041E0401E63680122451962F31F5305F1EA
S31508003050350001F000416360352803D36160002024
S31508003060206070BD002215F11F0F04DA2268236064
S31508003070002020356060684213D0521E25689241B0
S31508003080C0F12003D2439D4045EAD272256866689E
S31508003090C54006FA03F32B432360636823FA00F05E
S315080030A06060606808436060B2F1004F03D80DD1D4
S315080030B02078C0070AD52068401C2060206828B9F7
S315080030C06068401C60604FF0FF3070BD60688842E1
S315080030D004BF20680028F6D1002070BD000000005B
S315080030E00000F0FF000000000000F07FF446400DED
S315080030F040EAC120490006D200F014F8004248BF51
S315080031006FF00040604700F00DF84FF0004188422C
S315080031108CBF084640426047400D40EAC12049003E
S3150800312080F00D8040F00040490DA1F58061491CF2
S3150800313005D4D1F11F0154BFC840C01770474FF0DE
S3150800314000007047010040F10980F446404200F053
S3150800315005F851F000416047010000BF09D0B0FAF8
S3150800316080F18840C91CC1F58461090501EBD021AD
S315080031704005704770B44FF0004591EA030F44BF0D
S315080031806B4000F0F7BA00BF841A71EB030604D24D
S315080031906E40001BB141121973414FF4001C1CEB21
S315080031A0410F34BF7CEB430684E00C0DA4EB1356A9
S315080031B0362E7DDC012E43DC45EAC32343EA52530F
S315080031C012BFD20292025B08240545EAC12141EAF0
S315080031D05051D2EBC020994125D407D1B0FA80F6D8
S315080031E010FA06F164D00020203608E0B1FA81F61C
S315080031F0B140C6F1200220FA02F21143B0404FEA6C
S31508003200F474B4EB465434F001064FEA74040AD851
S31508003210D6F50016760D04F00044F04061FA06F281
S315080032205040F1404840C00A40EA415021F0004170
S3150800323028BF5FEA500550F1000044EBD12137E082
S3150800324045EAC323DB0A45EAC121C90AB6F12005C6
S315080032500EDD42EA0242120CC5F1200603FA06F612
S31508003260EB4042EA06056D42984161F100010DE026
S3150800327062FA06F5F240554063FA06FC82EA0C0249
S31508003280F3405A406D42904161EB030111F4801FEF
S3150800329005D1641E620502D06D004041494121F402
S315080032A08011430875F1004350F1000041EB0451C9
S315080032B070BC70471CEB410F15D223F0004352EA4D
S315080032C043060BD04FEA4C0CBCEB410F04D80C0D4F
S315080032D0661E342EB7DDEBE7801A994150EA41069F
S315080032E008BF0021E4E708BF1CEB430F28BF6FF0B7
S315080032F00001DDE7B0B581EA030C0CF0004C40F2A2
S31508003300FF7515EA11541DBF15EA1357AC42AF42B3
S3150800331039E0E41923EA455343F48013C90241F01E
S31508003320004141EA505EC7021100A7FB02020028CD
S315080033304FF00000EEFB01204FF00001E3FB0721F0
S3150800334018BF42F00102401800214941E3FB0E0173
S31508003350A4F580640F0302D252004041494154F15A
S3150800336001046CDD470872F1004250F1000051EB90
S315080033700451A1F580115CBF41EA0C01B0BD4CEACD
S3150800338005510020B0BD05EA1357AC4214BFAF4241
S3150800339041E050EA410E1CBF52EA430E02E0614684
S315080033A00020B0BD24423C441BD15FEA070EF6D08C
S315080033B0090302BF01460020AEF1140EB1FA81F7E7
S315080033C0AEEB070401FA07FE0C37C7F1200100FA35
S315080033D007F7C8404EEA000E23EA455343F4801324
S315080033E0A2E733F00043B3FA83F704BFB2FA82FECA
S315080033F077440B3FE41BB7F1200E2FBF02FA0EF3FA
S31508003400BB40C7F1200E22FA0EFE38BF43EA0E0370
S31508003410BA40641C82E750EA410E14BF52EA430ED2
S315080034206FF000014FF4001717EB430F8ABF1946D8
S3150800343017EB410FB5E74CEA05510020B0BDD4F1B2
S315080034400104B4F120070FDAC4F12007520828BF97
S3150800345042F0010210FA07F501FA07F7E1BF2A431D
S31508003460E0403843E1400FE0352C98DCC7F12004F2
S3150800347052EA400220FA07F218BF42F0010231FA76
S3150800348007F0A1400A43002172F1004250F1000002
S3150800349051EB0C01B0BD0202F0B540F2FF7581EAAE
S315080034A0030C0CF0004C15EA11541DBF15EA13570E
S315080034B0AC42AF42E5E0BC41C1F31301C3F31303C9
S315080034C0801A994143F4801304D2641E400049418E
S315080034D080185941C90241EA5051B1FBF3F603FB82
S315080034E01611A2FB0675D7EBC020A94102D2761E9B
S315080034F080185941C90241EA5051B1FBF3FE03FB5A
S315080035001E11A2FB0E75D7EBC020A94103D2AEF15E
S31508003510010E80185941890241EA9051760546EA1A
S315080035208E2EB1FBF3F603FB1611A2FB0675D7EB3D
S315080035308020A94102D2761E80185941C90241EA63
S3150800354050514EEA060EB1FBF3F603FB1611A2FB29
S315080035500675D7EBC020A94102D2761E80185941BC
S31508003560C90241EA5051B1FBF3F703FB1711A2FB5D
S315080035700735D3EBC020A94167F100070CBF00420D
S3150800358047F0010766F3D5274FEA1E31B80814F548
S31508003590806412DDBD0775F1004250EB0E5051EB09
S315080035A0045111F5801F5CBF41EA0C01F0BD4CF0D7
S315080035B07F6141F0E0410020F0BDBD076D0840EA9B
S315080035C00E5041F48011D4F10104B4F120060ADA50
S315080035D0C4F120060200E04001FA06F3E140184370
S315080035E0B24015430EE0342C13DCC6F1200445EA3C
S315080035F040056D0820FA06F2154321FA06F0A140A7
S315080036000D43002175F1004250F1000051EB0C0109
S31508003610F0BD00205FEA0C01F0BDCFB992185B41FE
S31508003620B3FA83F704BFB2FA82F6BF190B3FB7F1B4
S3150800363020062FBF02FA06F3BB40C7F1200622FA7E
S3150800364006F638BF3343BA401CB1E419641E33E7A3
S315080036507F4231F00041B1FA81F404BFB0FA80F636
S31508003660A4190B3CB4F120062FBF00FA06F1A140BD
S31508003670C4F1200620FA06F638BF3143A0403C1BA9
S315080036801AE7AC421ABF05EA1357AF4212E050EAEE
S3150800369041061CBF52EA4306BFE750EA41073046D7
S315080036A061461CBF41EA0551F0BD52EA430C08BF0A
S315080036B0C143F0BD00204FF4001616EB410F98BF2A
S315080036C016EB430F08BF16EB410F24BFC14305E0B5
S315080036D016EB430F0CBF61464CEA0551F0BD0000DE
S315080036E080B5134800F0B0F80FF248010160416058
S315080036F08160C1600161416181610FF23C024262F1
S315080037008162C162016341630FF2300282630FF284
S315080037103402C2630164416401BD10B5044800F077
S3150800372093F80446206808B9FFF7DAFF204610BD6B
S3150800373000000020000000002E00000066616C7387
S3150800374065000000747275650000000091FBF2F3D5
S3150800375003FB1211C0E900317047000070470000F2
S3150800376070B44FF0004591EA030C44BF6B40FFF775
S315080037700BBD00BF841A71EB030603D2001BB141CF
S31508003780121973414FF4001C1CEB410F34BF7CEB3C
S31508003790430443E00C0DA4EB1356352E50DC45EAE2
S315080037A0C323DB0A45EAC121C912B6F120050DDD9E
S315080037B063FA05F6EB4086EA0305124218BF45F0A0
S315080037C00105C01851F100010CD213E062FA06F5A2
S315080037D0F2405540F3415A40B340F3405A408018EE
S315080037E0594107D349085FEA30005FEA350528BF23
S315080037F045F0010501F58011420875F1004250F1C6
S31508003800000041EB045170BC4FF4001C1CEB410F47
S3150800381038BF70470020090D090570471CEB410F9A
S3150800382010D252EA43060BD0BCEB410F05D80C0D5B
S31508003830AB43661E342EB5DD02E0AB438018594112
S3150800384070BC704770BC70477047070710B440B229
S31508003850002809D50A01DFF8043A40B210F00F042F
S31508003860E31803F8042C04E00A01DFF8F43940B23F
S31508003870C25410BC704710B50400601EB0F1807FBA
S3150800388001D3012011E0601EDFF8D81908600F2166
S315080038905FF0FF30FFF7DAFF0020DFF8CC19086089
S315080038A00720DFF8C8190860002010BD10B504000D
S315080038B0207B012806D0207B102803D0207B0028F7
S315080038C040F0D180E078022803D11020207301202F
S315080038D0CAE0DFF89C09217850F821000068400802
S315080038E04000DFF88C19227851F8221008602078F9
S315080038F000F04FFD207800F0E3FC207800F0F8FC9B
S31508003900207800F0C5FCE169DFF86409227850F8F0
S31508003910220000F0F3FD6069C0020DD5DFF85009FA
S31508003920217850F82100006850F40020DFF840198B
S31508003930227851F822100860207DC0074AD5DFF8A2
S315080039403009217850F82100C06830F0FE00DFF811
S315080039502019227851F82210C860DFF81409217856
S3150800396050F82100C068217D11F0FE010843DFF8F8
S315080039700019227851F82210C860DFF8F408217877
S3150800398050F82100C06830F4E060DFF8E4182278C7
S3150800399051F82210C860DFF8D808217850F82100BD
S315080039A0C0686169490C11F4E0610843DFF8C01882
S315080039B0227851F82210C860DFF8B408217850F848
S315080039C02100C06850F40040DFF8A418227851F8A6
S315080039D02210C860606980000ED5DFF89408217847
S315080039E050F82100006850F48020DFF88418227807
S315080039F051F8221008600DE0DFF87408217850F8B5
S31508003A002100006830F48020DFF86418227851F825
S31508003A1022100860606940000DD5DFF85408217847
S31508003A2050F82100006840084000DFF84418227862
S31508003A3051F822100860E37862786169207800F00E
S31508003A40CFFC01202073DFF82C0800684FF47A7148
S31508003A50B0FBF1F0FFF70FFF00215FF0FF30FFF733
S31508003A60F5FE002000E0012010BD10B50400207B03
S31508003A70012805D0207B102802D0207B002826D1DB
S31508003A80207800F086FCDFF8E807217850F8210056
S31508003A90006840084000DFF8D817227851F822104D
S31508003AA00860207800F00CFCE37862786169207879
S31508003AB000F0D3FC00202073002020615FF0FF3067
S31508003AC0A0610020DFF8A4170860002000E00120AC
S31508003AD010BD01000020DFF8A02710600020DFF8E5
S31508003AE09827D0600020DFF8902750600020DFF884
S31508003AF0882790600020DFF8802710610020DFF813
S31508003B00782750610020DFF87027906103204870FD
S31508003B10002088700220C870002048600020886055
S31508003B200020087300200861002048615FF0FF301C
S31508003B308861DFF84407C8610020704710B50400A3
S31508003B400020DFF838170860207B800705D4207B23
S31508003B50032802D0207B052801D10120BDE0207B67
S31508003B60002801D10120B8E0207B102801D10120CE
S31508003B70B3E0022020736069C0011ED40320A0614F
S31508003B80DFF8EC06217850F821008069000411D589
S31508003B90A06901280ED0A06910F1010F0AD0A0690A
S31508003BA0012803D0A06910F1010FE9D1200000F027
S31508003BB0E5F992E05FF0FF30A06103202073A0785A
S31508003BC000280AD1DFF8B4060068616889688905A3
S31508003BD0890D0843DFF8A416086006202073A0782C
S31508003BE0002879D16069800207D5DFF89006006859
S31508003BF050F00070DFF88416086060684068FF2897
S31508003C0018D860684068DFF878160860DFF86C0630
S31508003C100068DFF86C16096850EA0140DFF85C16A0
S31508003C200860DFF85806006830F08070DFF84C1638
S31508003C3008600FE0DFF84406006850F47F00DFF8FC
S31508003C403C160860DFF83406006850F08070DFF82C
S31508003C502C1608606069C00307D5DFF820060068DF
S31508003C6050F40050DFF814160860DFF810060068F4
S31508003C70DFF8FC15227851F822104860E078012810
S31508003C800ED1DFF8EC05217850F82100006850F0D5
S31508003C906200DFF8DC15227851F8221008601BE074
S31508003CA0DFF8CC05217850F82100006850F48040F0
S31508003CB0DFF8BC15227851F822100860DFF8B00545
S31508003CC0217850F82100006850F06000DFF8A01550
S31508003CD0227851F822100860002010BD10B50400A3
S31508003CE00020DFF898150860207B800705D4207B24
S31508003CF0032802D0207B052801D10120CCE0207BB7
S31508003D00002801D10120C7E0207B102801D101201D
S31508003D10C2E0022020736069C0011ED40320A0619E
S31508003D20DFF84C05217850F821008069000411D588
S31508003D30A06901280ED0A06910F1010F0AD0A06968
S31508003D40012803D0A06910F1010FE9D1200000F085
S31508003D5015F9A1E05FF0FF30A06105202073A07877
S31508003D6000280AD1DFF814050068A1688968890562
S31508003D70890D0843DFF8041508600A202073A07827
S31508003D80002840F08880DFF8F404006850F480606A
S31508003D90DFF8E81408606069800207D5DFF8DC04FC
S31508003DA0006850F00070DFF8D4140860A068406816
S31508003DB0FF2818D8A0684068DFF8C4140860DFF840
S31508003DC0BC040068DFF8B814096850EA0140DFF857
S31508003DD0AC140860DFF8A404006830F08070DFF8DF
S31508003DE09C1408600FE0DFF89404006850F47F0024
S31508003DF0DFF888140860DFF88404006850F08070E3
S31508003E00DFF878140860DFF87404006850F400508E
S31508003E10DFF868140860E078012817D1DFF85C0439
S31508003E200068DFF84C14227851F822104860DFF851
S31508003E304004217850F82100006850F06400DFF84B
S31508003E403014227851F82210086024E0DFF82004A4
S31508003E50217850F82100006850F40040DFF810146B
S31508003E60227851F822100860DFF810040068DFF89D
S31508003E700014227851F822104860DFF8F4032178FC
S31508003E8050F82100006850F06000DFF8E41322784B
S31508003E9051F822100860002010BD10B582B0040049
S31508003EA000200090DFF8C803217850F821008069C7
S31508003EB010F0FE000090A078002829D1009880070D
S31508003EC005D5207B062802D1200000F094F9009839
S31508003ED0400705D5207B0A2802D1200000F0A4F966
S31508003EE00098000602D5200000F055F80098400614
S31508003EF002D5200000F0B7F80098800602D5200009
S31508003F0000F0FDF80098C00602D5200000F063F91D
S31508003F10002016BD10B50400DFF85403217850F8C8
S31508003F202100806910F4E060206110202073206968
S31508003F30C00507D54FF48070DFF83413227851F89E
S31508003F402210C8612069800507D54FF40070DFF894
S31508003F502013227851F82210C8612069400507D538
S31508003F604FF48060DFF80813227851F82210C861F0
S31508003F702169207800F010FB002010BD10B5040060
S31508003F805FF0FF30A06110202073FF202061200021
S31508003F9000F0ECFA10BD01000020B84A1060C8789D
S31508003FA002280DD1087B062805D148684068FF38E5
S31508003FB04A68506004E088684068FF388A6850603C
S31508003FC0087B062823D148684068FF2812D8486825
S31508003FD04068AB4A1060A9480068A94A126850EAC6
S31508003FE00240A64A1060A548006830F08070A34ACF
S31508003FF010602FE0A148006850F47F009F4A1060C7
S315080040009E48006850F080709C4A106022E08868DC
S315080040104068FF2812D888684068994A106097480F
S315080040200068974A126850EA0240944A106093481A
S31508004030006830F08070914A10600BE08F48006885
S3150800404050F47F008D4A10608C48006850F08070EC
S315080040508A4A106089480068854A0B7852F82320F6
S3150800406050600020704710B50400606900020CD447
S315080040707F48217850F82100406850F480407C49F8
S31508004080227851F82210486037E07948217850F8AC
S315080040902100006830F060007549227851F8221036
S315080040A00860207B062814D1E07801280BD17048D7
S315080040B0217850F82100006830F002006C49227817
S315080040C051F82210086001202073200000F062FADF
S315080040D013E0E07801280BD16548217850F82100D3
S315080040E0006830F004006249227851F8221008600E
S315080040F001202073200000F04EFA002010BD10B5F4
S3150800410004002069102808D110202073202058495F
S31508004110227851F82210C8615BE0202054492278A1
S3150800412051F82210C8615248217850F821000068D9
S3150800413030F060004E49227851F8221008600320BA
S31508004140A0614B48217850F821008069000411D5F8
S31508004150A06901280ED0A06910F1010F0AD0A06944
S31508004160012803D0A06910F1010FEAD12000FFF75A
S3150800417005FF2FE05FF0FF30A061207B062814D1F1
S31508004180E07801280BD13A48217850F821000068D8
S3150800419030F002003649227851F8221008600120D2
S315080041A02073200000F0F6F913E0E07801280BD11F
S315080041B02F48217850F82100006830F004002C4977
S315080041C0227851F82210086001202073200000F0A0
S315080041D0E2F9002010BD10B504001020206110205F
S315080041E02349227851F82210C8612169207800F005
S315080041F0D3F9002010BD01004868006800781C4A01
S315080042000B7852F82320906248684068401E4A6836
S31508004210506048684068002804D048680068401C18
S315080042204A68106000207047010011480A7850F863
S315080042302200406A8A681268107088684068401EC2
S315080042408A68506088684068002804D088680068D2
S31508004250401C8A68106000207047000018ED00E0D6
S3150800426000E400E014E000E018E000E010E000E000
S3150800427084020020B8020020E41A0020001C002056
S31508004280FC1B002080B54FF4A06000F0A9F901BD21
S3150800429010B5040001218748E4B250F8240000F064
S315080042A055FC00218348E4B250F8240000F04EFC87
S315080042B001218048E4B250F8240000F038FC10BD13
S315080042C010B5040001217B48E4B250F8240000F040
S315080042D03DFC00217748E4B250F8240000F036FC93
S315080042E000217448E4B250F8240000F020FC10BD08
S315080042F01CB5040001217048E4B250F824006F4A46
S31508004300E4B252F82420104300F0F3FB6C48E4B200
S3150800431050F82420D2B26B48E4B230F814106A4838
S31508004320E4B250F8240000F08BFC6548E4B250F87B
S315080043302420D2B26548E4B230F814106448E4B2D6
S3150800434050F8240000F07CFC03208DF805000220BC
S315080043508DF8040001208DF8060000208DF807006E
S315080043605C48E4B230F81400009000A95648E4B25C
S3150800437050F8240000F010FC5748E4B230F8140056
S31508004380009000A95248E4B250F8240000F004FC5A
S3150800439013BD1CB5040003208DF8050000208DF818
S315080043A0040001208DF8060000208DF80700494812
S315080043B0E4B230F81400009000A94348E4B250F87B
S315080043C0240000F0E9FB4448E4B230F814000090F9
S315080043D000A93F48E4B250F8240000F0DDFB13BD05
S315080043E0F8B504000D0016001F00FFF74BFF01206B
S315080043F08DF803003948E4B2205C8DF8000038488F
S31508004400E4B2205C8DF801003648E4B2205C8DF8F1
S31508004410020000A800F0E9F868021DD43248E4B2A8
S31508004420205C8DF800003148E4B2205C8DF801006C
S315080044302F48E4B2205C8DF8020000A800F0D5F8F9
S315080044402C48E4B250F82400006850F0900029493E
S31508004450E4B251F824100860F1BDF8B504000D0067
S3150800446016001F0000208DF8010000208DF80200BC
S3150800447000208DF803001948E4B2205C8DF800008E
S3150800448000A800F0B2F8680207D41748E4B2205C26
S315080044908DF8000000A800F0A8F8F1BD80B5164810
S315080044A0FFF7FBFC02BD80B51348FFF733FD00207C
S315080044B002BD00009CA20008ACA20008B4A2000835
S315080044C0A4A20008D0A200088C020020D8A20008E6
S315080044D094020020CCA20008D4A20008A62F000847
S315080044E096340008DE360008D62F00085A3700082A
S315080044F05E37000884020020F801002010B400226C
S3150800450003685B085B00036003681A00154B1A40D2
S315080045104B688C6853EA04231A4302600B6833F02D
S3150800452070630361036853F00103036000231A00F4
S315080045308260C2608B690C6923431A0082608368B3
S3150800454053F400438360CB681A000368134303607F
S3150800455043681A00044B1A404B691A43426010BC60
S3150800456070470000FFE0CF00FF7FFF0710B504008B
S3150800457001202073002020615FF0FF30A061200039
S31508004580FFF773FA2000FFF791F9FF201249086038
S31508004590002010BD7047704738B504000D00012093
S315080045A00E49E4B251F82410087300200B49E4B20E
S315080045B051F8241008610948E4B250F82400FFF7BE
S315080045C054FA0648E4B250F82400FFF76FF9FF20C2
S315080045D00149086031BD0000B40200207C020020B9
S315080045E01C4901431C4A1160704770B4002300211E
S315080045F00F22C478002C20D0174C246814F4E064E9
S31508004600D4F5E064240A2300D3F104042100DA4037
S3150800461044788C4023008478144023431B010F4CB4
S3150800462005782B550124057815F01F05AC400C4D6F
S315080046300678761145F8264009E00124057815F034
S315080046401F05AC40074D0678761145F8264070BC24
S31508004650704700000000FA050CED00E000E400E0F9
S3150800466000E100E080E100E0F0B50021002200232F
S3150800467000240025002600275FF0000CDFF8ECE494
S31508004680DEF800E01EF00C0E71468E46BEF1000FF5
S3150800469006D0BEF1040F08D0BEF1080F0AD033E0E9
S315080046A0DFF8D4E4C0F800E032E0DFF8CCE4C0F884
S315080046B000E02DE0DFF8B4E4DEF800E01EF4701E3A
S315080046C07246DFF8A8E4DEF800E01EF4803E734682
S315080046D0920C921C002B05D1DFF8A0E40EFB02FE1B
S315080046E076460FE0DFF888E4DEF800E01EF00F0EED
S315080046F01EF1010E7446DFF880E4BEFBF4FE02FBF1
S315080047000EFE7646066003E0DFF86CE4C0F800E0CB
S31508004710DFF858E4DEF800E01EF0F00E71460909ED
S31508004720DFF85CE411F80EE0F446D0F800E03EFA53
S315080047300CFEC0F804E0DFF834E4DEF800E01EF40E
S31508004740E06E7146090ADFF838E411F80EE075469E
S31508004750D0F804E03EFA05FEC0F808E0DFF80CE4FD
S31508004760DEF800E01EF4605E7146C90ADFF810E460
S3150800477011F80EE07746D0F804E03EFA07FEC0F8D6
S315080047800CE0DFF8ECE3DEF800E01EF4F87E714694
S315080047900909DFF8F0E33EF811E075465FEAC56EF1
S315080047A004D5B6FBF5FEC0F810E003E0D0F800E04B
S315080047B0C0F810E0DFF8B8E3DEF800E01EF4785E33
S315080047C07146490ADFF8BCE33EF811E075465FEA30
S315080047D0C56E04D5B6FBF5FEC0F814E003E0D0F8C4
S315080047E000E0C0F814E0DFF88CE3DEF800E05FEAEA
S315080047F0CE6E04D4DFF880E3C0F818E003E0D0F802
S3150800480000E0C0F818E0DFF86CE3DEF800E05FEAE5
S315080048108E6E04D4DFF860E3C0F81CE003E0D0F83D
S3150800482000E0C0F81CE0DFF84CE3DEF800E05FEAE1
S31508004830CE5E0AD5D0F800E0B64506D1674504D164
S315080048405FEA460EC0F820E003E0D0F80CE0C0F8B6
S3150800485020E0DFF820E3DEF800E05FEA8E5E0AD5A6
S31508004860D0F800E0B64506D1674504D15FEA460EA2
S31508004870C0F824E003E0D0F80CE0C0F824E0DFF844
S31508004880F4E2DEF800E01EF0030F04D1D0F80CE0E5
S31508004890C0F828E028E0DFF8DCE2DEF800E01EF0E9
S315080048A0030EBEF1010F04D1D0F800E0C0F828E0ED
S315080048B01AE0DFF8C0E2DEF800E01EF0030EBEF1F3
S315080048C0020F04D14FF4004EC0F828E00CE0DFF8E0
S315080048D0A4E2DEF800E01EF0030EBEF1030F03D1DA
S315080048E0DFF894E2C0F828E0DFF888E2DEF800E0B6
S315080048F01EF4403F04D1D0F808E0C0F82CE028E0C8
S31508004900DFF870E2DEF800E01EF4403EBEF5803FB8
S3150800491004D1D0F800E0C0F82CE01AE0DFF854E241
S31508004920DEF800E01EF4403EBEF5003F04D14FF429
S31508004930004EC0F82CE00CE0DFF838E2DEF800E0C4
S315080049401EF4403EBEF5403F03D1DFF82CE2C0F826
S315080049502CE0DFF820E2DEF800E01EF4402F04D158
S31508004960D0F808E0C0F830E028E0DFF808E2DEF822
S3150800497000E01EF4402EBEF5802F04D1D0F800E0EA
S31508004980C0F830E01AE0DFF8ECE1DEF800E01EF4EB
S31508004990402EBEF5002F04D14FF4004EC0F830E08B
S315080049A00CE0DFF8D0E1DEF800E01EF4402EBEF59C
S315080049B0402F03D1DFF8C0E1C0F830E0DFF8B4E1FA
S315080049C0DEF800E01EF4401F04D1D0F808E0C0F875
S315080049D034E028E0DFF89CE1DEF800E01EF4401E33
S315080049E0BEF5801F04D1D0F800E0C0F834E01AE024
S315080049F0DFF880E1DEF800E01EF4401EBEF5001F79
S31508004A0004D14FF4004EC0F834E00CE0DFF864E15E
S31508004A10DEF800E01EF4401EBEF5401F03D1DFF8A5
S31508004A2058E1C0F834E0DFF84CE1DEF800E01EF4A7
S31508004A30400F04D1D0F808E0C0F838E028E0DFF8E5
S31508004A4034E1DEF800E01EF4400EBEF5800F04D116
S31508004A50D0F800E0C0F838E01AE0DFF818E1DEF830
S31508004A6000E01EF4400EBEF5000F04D14FF4004ED0
S31508004A70C0F838E00CE0DFF8FCE0DEF800E01EF4F1
S31508004A80400EBEF5400F03D1DFF8ECE0C0F838E081
S31508004A90F0BD0021020F1100002906D0344A126821
S31508004AA032F47852324B1A6005E0314A126832F411
S31508004AB0F8722F4B1A602E4A126802432C4B1A6062
S31508004AC070470021020F1100002906D0294A1268F2
S31508004AD032F02002274B1A6005E0264A126832F0A7
S31508004AE01002244B1A60234A12680243214B1A60AB
S31508004AF07047C9B2002905D0234A12680243224BDF
S31508004B001A6004E0204A126882431F4B1A607047F5
S31508004B10C9B2002905D01D4A126802431B4B1A6008
S31508004B2004E01A4A12688243184B1A607047C9B2E1
S31508004B30002905D0164A12680243154B1A6004E08C
S31508004B40134A12688243124B1A607047C9B2002989
S31508004B5005D0104A126802430E4B1A6004E00D4A4B
S31508004B60126882430B4B1A6070470000041002401B
S31508004B702C1002403010024000127A0000093D0055
S31508004B805402002038020020141002401810024077
S31508004B901C10024010100240F0B40024002200232A
S31508004BA000252C00102C49D20125A5402A000D68A5
S31508004BB015402B0093423FD10D79012D02D00D7976
S31508004BC0022D19D1856803262700FFB27F00BE4053
S31508004BD0B543856085684E792700FFB27F00BE40E1
S31508004BE03543856085880126A640B5438580858836
S31508004BF08E79A64035438580056803262700FFB2CF
S31508004C007F00BE40B543056005680E792700FFB2F0
S31508004C107F00BE4035430560C56803262700FFB2FE
S31508004C207F00BE40B543C560C568CE792700FFB290
S31508004C307F00BE403543C560641CB3E7F0BC7047CF
S31508004C40F0B400230024D2B211F00705EDB2AD008E
S31508004C5012FA05F52B0089B2CD1010EB850589B23D
S31508004C60CE1010EB8606366A0F2711F0070C5FFA8E
S31508004C708CFC5FEA8C0C17FA0CF7BE432E6289B2DD
S31508004C80CD1010EB85052D6A1D432C0089B2CD1079
S31508004C9010EB85052C62F0BC704700002DE9F04743
S31508004CA082B004000D0016001F000020ADF80000B9
S31508004CB000AB4FF440720121002000F0DFF800AB92
S31508004CC0022201214FF4807000F0D8F800AB4FF4AF
S31508004CD08072012140F2011000F0D0F800AB4FF4C9
S31508004CE0807201214FF4817000F0C8F800ABE4B27D
S31508004CF02200012140F2031000F0C0F800ABEDB22B
S31508004D002A0001214FF4827000F0B8F800ABF6B221
S31508004D103200012140F2051000F0B0F800ABFFB2F6
S31508004D203A0001214FF4837000F0A8F800AB012285
S31508004D3001214FF4007000F0A1F800AB0022012118
S31508004D404FF4407000F09AF800AB0022012140F2BF
S31508004D50013000F093F800AB012203214FF4806084
S31508004D6000F08CF800AB002203214FF4A06000F09D
S31508004D7085F800AB0022032140F2015000F07EF8CE
S31508004D8000AB0022032140F2025000F077F800AB96
S31508004D900022012140F2035000F070F800AB002217
S31508004DA002214FF4C06000F069F8002080461FFA1F
S31508004DB088F8B8F1120F3ADA1FFA88F84FF48070BB
S31508004DC000FB08F010F54050814600AB0022012197
S31508004DD0484680B200F052F800AB0022012119F1D2
S31508004DE0010080B200F04AF800AB0022032119F155
S31508004DF0020080B200F042F800AB0022032119F14C
S31508004E00030080B200F03AF800AB0022032119F142
S31508004E10040080B200F032F800AB0022012119F13B
S31508004E20050080B200F02AF818F10108BFE7002053
S31508004E3080461FFA88F8B8F1000F1DD11FFA88F8C6
S31508004E404FF4807000FB08F010F5A0408146002062
S31508004E5082461FFA8AFABAF1120F0ADA00AB002262
S31508004E6003211AEB090080B200F008F81AF1010ACA
S31508004E70EFE718F10108DCE7BDE8F38730B41D88D1
S31508004E802C00E4B2912C10DADFF86C56E4B225F85F
S31508004E903400DFF86456E4B215EBC405A970DFF8F0
S31508004EA05856E4B215EBC4056A601D886D1C1D8052
S31508004EB030BC70470200002003009BB2912B1CDA1D
S31508004EC0DFF834069BB230F8330092B2904212D122
S31508004ED0DFF824069BB210EBC3008078C00701D424
S31508004EE002200BE0DFF810069BB210EBC300406807
S31508004EF00860002002E05B1CDFE701207047F8B578
S31508004F0004000D00160000200700BFB2912F2FDA0B
S31508004F10DFF8E405BFB230F83700A4B2A04225D1C5
S31508004F20DFF8D405BFB210EBC700807880070BD432
S31508004F30F6B2002E06D0DFF8C005BFB210EBC700E8
S31508004F40456011E0022014E0DFF8AC05BFB210EBB3
S31508004F50C7004560A4B2B4F5806F05D1F6B2002E3D
S31508004F6002D1280100F086FA002002E07F1CCCE777
S31508004F700120F2BD38B504002078052802D0207833
S31508004F80002879D16078012807D066D3032832D063
S31508004F901CD3052860D04AD35FE0A07910F00F0033
S31508004FA0022812DB0122002140F20250FFF7A7FF78
S31508004FB0207A617A51EA002005002100280080B293
S31508004FC000F05BF8200000F099FB55E020780528F2
S31508004FD010D1012201214FF44070FFF790FF210004
S31508004FE04FF4407000F049F8200000F087FB0420D9
S31508004FF000F040FA40E0A07910F00F00032815DB16
S315080050000122002140F20250FFF779FF207A052895
S3150800501006D1607A022803D1200000F085F805E061
S31508005020200000F081F8200000F068FB24E02078DA
S31508005030052810D1012201214FF44070FFF75FFFC8
S3150800504021004FF4407000F018F8200000F056FBDD
S31508005050042000F00FFA0FE00EE001224FF4417130
S3150800506040F20130FFF74BFF210040F2013000F01B
S3150800507004F8200000F042FB31BD70B582B0040090
S315080050800D0000A9200080B2FFF714FF06000220D9
S315080050906870052028700720A871A4B2200A287213
S315080050A06C720020A8720020E87200202873002085
S315080050B068730020A8730020E873F6B2002E03D0A8
S315080050C0022E1CD012D323E00020A8720020E8721A
S315080050D0002028730098000EE8720098000C2873C8
S315080050E00098000A68730098A8731AE00122012143
S315080050F040F20130FFF703FF0120A87211E00122F8
S31508005100032140F20130FFF7FAFE0320A87208E0F7
S3150800511001224FF4827140F20130FFF7F0FE0420BD
S31508005120A8723000C0B276BDF8B504000025002785
S31508005130A079032801DBA07A0700A079042802DBFE
S31508005140E07A50EA0727A079052802DB207B50EA97
S315080051500727A079062802DB607B50EA07273D006F
S31508005160207A617A51EA00200700002229003800D7
S3150800517080B2FFF7C4FE060040F20150874205D10F
S315080051800122002140F20250FFF7B9FEB7F5A06FE1
S3150800519005D10122002140F20350FFF7B0FE04209A
S315080051A06070052020700420A071F6B2002E03D08E
S315080051B0022E11D005D31AE00020A0720020E0725A
S315080051C020E00122012140F20130FFF798FE00207D
S315080051D0A0720120E07215E00122022140F201309E
S315080051E0FFF78DFE0020A0720220E0720AE001227D
S315080051F04FF4017140F20130FFF781FE0220A072E0
S315080052000420E072F1BD30B585B00400A4B24FF4B5
S31508005210807000FB04F010F54050050000A9280036
S3150800522080B2FFF72AFF002802D100A800F066FA2C
S3150800523005B030BDF0B583B004000D000027A4B258
S315080052404FF4807000FB04F010F54050060001A9E9
S31508005250300080B2FFF72EFE002845D100A9B01C09
S3150800526080B2FFF727FE00283ED10098002808D014
S3150800527001980099884204D20098A84201D257F0B2
S31508005280010700A9F01C80B2FFF714FE00282BD1F5
S315080052900098002808D000980199884204D20098FE
S315080052A0854201D257F0010700A9301D80B2FFF7E9
S315080052B001FE002818D1009810F1010F01D157F00E
S315080052C0010701222900300080B2FFF718FE8B483B
S315080052D0007810F0F000102806D1FFB2002F03D096
S315080052E0200080B2FFF78FFFF7BD70B504000D00F0
S315080052F0A4B24FF4807000FB04F010F5405006008D
S3150800530001222900701C80B2FFF7F9FD70BD30B587
S3150800531087B07A480078F021084200F0A98000A9F1
S3150800532040F20250FFF7C6FD002807D10122009877
S3150800533010F10A0140F20250FFF7E1FD00A940F220
S315080053400350FFF7B7FD002807D10122009810F196
S315080053500A0140F20350FFF7D2FD00A94FF4A060FE
S31508005360FFF7A8FD00281BD101A940F20350FFF75B
S31508005370A1FD002814D10098002811D000980199A1
S3150800538088420DD20122002140F20350FFF7B7FDF3
S3150800539002A94FF48060FFF770FE02A800F0AEF98C
S315080053A000A940F20150FFF785FD002828D101A980
S315080053B040F20250FFF77EFD002821D10098002810
S315080053C01ED00098019988421AD20122002140F283
S315080053D00250FFF794FD0122002140F20350FFF727
S315080053E08EFD012202214FF44070FFF788FD4348E5
S315080053F0007810F0F000202802D0202000F03AF8BB
S315080054000025122D34DA4FF4807000FB05F010F5F4
S315080054104050040000A9601D80B2FFF74BFD00282C
S3150800542008D100980A30019001220199601D80B2C6
S31508005430FFF765FD00A9201D80B2FFF73BFD002898
S3150800544014D10098002811D0009810F1010F0DD042
S3150800545000980199884209D2280080B2FFF7D3FE46
S3150800546001220021601D80B2FFF749FD6D1CC8E7C7
S3150800547007B030BD1FB50400002C02D100201F491B
S315080054800880102C10D110201C49088001222109FF
S315080054904FF48060FFF733FD00A94FF48060FFF7F3
S315080054A0ECFD00A800F02AF9202C10D12020134981
S315080054B00880012221094FF48060FFF720FD00A92A
S315080054C04FF48060FFF7D9FD00A800F017F9302CDB
S315080054D010D1302009490880012221094FF4806043
S315080054E0FFF70DFD00A94FF48060FFF7C6FD00A881
S315080054F000F004F91FBD0000200C00200C1C002041
