S017000054656D7065726174757265426F6172642E73313967
S3150800000028210020B1A10008D9960008DB9600082F
S31508000010DD960008DF960008E1960008000000005B
S31508000020000000000000000000000000E396000841
S31508000030E596000800000000E7960008E996000823
S315080000408997000839A200083DA2000841A20008C5
S3150800005045A2000849A200084DA2000851A20008BE
S3150800006055A2000859A200085DA2000861A200086E
S3150800007065A2000869A200086DA2000871A200081E
S3150800008075A2000879A200087DA20008AB540008F2
S315080000900755000881A2000885A2000889A2000861
S315080000A08DA2000891A2000895A2000899A200084E
S315080000B09DA20008A1A20008A5A2000839440008CC
S315080000C043440008A9A20008ADA20008B1A200088E
S315080000D0B5A20008FB960008B9A20008BDA2000850
S315080000E0C1A20008C5A20008C9A20008CDA200083E
S315080000F0D1A20008D5A20008D9A20008DDA20008EE
S31508000100000000000000000000000000E1A2000856
S31508000110E5A20008E9A20008EDA20008F1A200087D
S31508000120F5A20008F9A20008FDA2000801A300082C
S3150800013005A3000809A3000800000000000000004D
S315080001400DA3000811A3000815A30008000000006D
S315080001500000000000000000000000000000000091
S31508000160000000000000000019A300081DA30008F5
S3150800017021A30008000000000000000000000000A5
S315080001800000000025A3000800F5E070026891420F
S3150800019003D343689A18914202D380680028F5D1A0
S315080001A07047DFF82407016891B9DFF820274FF474
S315080001B0803181604FF4805141604FF0FF31C1605A
S315080001C0016104214161C2F8BC11DFF8041701601E
S315080001D00120704701F1080313F0070305D001F168
S315080001E00803C3F1080303F007035918D21A8161FB
S315080001F0C26042F001034B60511828234B60DFF8B8
S31508000200C8160969C16170472DE9F84F044601F11E
S31508000210080010F0070005D001F10800C0F1080039
S3150800022000F0070000EB010B02F1080010F00700D0
S3150800023005D002F10800C0F1080000F00700861892
S31508000240A6EB0B00A0EB030803EB0B0743F0030038
S31508000250CBF80400B74228BF01F00EFE3079C0077C
S3150800026058BF01F009FEB8F1100F38BF01F004FEBF
S31508000270A069864207D1E0684044E060A76140F083
S31508000280010078605AE16069864208D1A068404456
S31508000290A060676140F001017960C0514EE1706865
S315080002A000F00301012940F0AD80C0084FEAC009FB
S315080002B020283BD2D6F808A0F5680090AE4208BFC1
S315080002C001F0DAFD564508BF01F0D6FD70680099C1
S315080002D0C008C000B0EBC10F18BF01F0CDFD0098F3
S315080002E004EBC00000F128018A4508D021698A4537
S315080002F0C0F08480DAF80C10B14240F07F80554592
S3150800030006D1009A2068012191408843206077E051
S315080003102830854205D0206985426FD3A868B04247
S315080003206CD1CAF80C50C5F808A069E0F568D6F88B
S3150800033018A0B5420CD0B0682169884223D3C16899
S31508000340B14204BFA968B1421DD1C560A8601CE0CE
S3150800035006F11400056835B906F110000568A5B15F
S3150800036001E00846056805F114010A68002A02BF7B
S3150800037005F110010A68002AF3D12169884202D3DF
S315080003800021016001E001F077FDBAF1000F37D0D6
S31508000390F06904EB800000F5987001688E4209D177
S315080003A00560280014D1F2696068012191408843EC
S315080003B0606025E02069824508D3DAF81000B0426B
S315080003C014BFCAF81450CAF8105001E001F054FDE1
S315080003D0B5B12069854211D3C5F818A0316929B18C
S315080003E0814226BF29618D6101F046FD706938B1E9
S315080003F02169884202D36861856101E001F03CFD0C
S315080004004E44C84470684008400070604FEAD805FA
S3150800041048F00100786048F80780202D21D204EBC7
S31508000420C50000F12806B146B8F1100F38BF01F033
S3150800043023FD206820FA05F1C90704D40121A94043
S315080004400843206006E0B068216988422CBF8146CF
S3150800045001F012FDB760C9F80C70C7F80890FE6085
S315080004606CE05FEA182008BF002123D0B0F5803F72
S3150800047028BF1F211ED2A0F58071090C01F00801C2
S315080004808840A0F58052120C02F004029040A0F5B4
S3150800049080431B0CC1F10E0103F00203891AC91A25
S315080004A0984001EBD030C11D28FA01F101F0010195
S315080004B001EB4001F96100227A613A6104EB81009F
S315080004C0626822FA01F300F59870DB0706D4012367
S315080004D003FA01F11143616007601CE01F290068F7
S315080004E00EBF00214908C1F1190108FA01F100E01F
S315080004F010464268D208D200424510D0CA0F00EB17
S31508000500820202F1100349001A68002AF0D1216913
S315080005108B4211D31F60B861FF60BF600EE022698D
S315080005208168904228BF914206D3CF608760B96040
S31508000530F8600020B86101E001F09EFC0BF10800AC
S31508000540BDE8F28F2DE9F04F0546DFF87C03006819
S3150800055083B0884608B9FFF724FEDFF86C03806885
S3150800056000EB08012F31401E21EA0000804580F08B
S31508000570A881D5F8B81141B1D5F8B02180188242C2
S3150800058080F09F818142C0F09C8101F089FC00289F
S315080005901EBF0446076814F1010F00F09281D5F8D2
S315080005A0B0013818C5F8B001D5F8B411814238BF82
S315080005B00146C5F8B411A86988BB286908B1844200
S315080005C000D22C61C5F8C041C5F8C4710020C5F831
S315080005D0CC0105F12801BC48006868624FF0FF307D
S315080005E028620020C960896001F10802801CD26077
S315080005F0103192602028F5D3B448854203D1A7F17B
S315080006002802214625E055F8040CC00805EBC00071
S31508000610A0F108013819401AA0F1280219E005F5D9
S31508000620E071084600E08068B8B142680368D218ED
S315080006309442F8D1027B12070FD4AA699A420CD3C6
S31508000640466833449A4208D2B9194160E868A969EC
S315080006503A182846FFF7BEFD1EE12869844238BFCE
S315080006602C610846391900E0806880B102688A4220
S31508000670FAD1017B09070AD4046043464168791810
S3150800068041602846214603B0BDE8F04FBCE5AE6997
S3150800069031462846FFF778FD41680068081801903A
S315080006A02F3800F1080111F0070105D000F1080103
S315080006B0C1F1080101F00701081806F11001884286
S315080006C034BF00960090009800F1080900F1180A56
S315080006D004F108014FF0000BA7F1280011F00701FB
S315080006E005D004F10801C1F1080101F007010A1952
S315080006F0401AAA61E86040F001015160801828217B
S31508000700416071480069E86119F0070018BF01F0F7
S31508000710B3FB00991B20486005F5E070B0E80E10A1
S31508000720A9E80E10C5F8C041C5F8C471A9F11001B1
S31508000730C5F8CCB1C5F8C811019800E08A46072269
S31508000740CAF804200AF104010A1D0BF1010B8242C2
S31508000750F4D3BBF1020FB8BF01F08EFB0098B0428C
S3150800076000F09A80801B81194FEAD0094A6852081E
S3150800077052004A6040F0010171608051B9F1200FC2
S315080007801FD205EBC90101F128042746102838BFF6
S3150800079001F072FB286820FA09F1C90705D401217E
S315080007A001FA09F10843286006E0A0682969884229
S315080007B02CBF074601F060FBA660FE60B760F460D8
S315080007C06AE0010A08BF002223D0B1F5803F28BF9E
S315080007D01F221ED2A1F58072120C02F00802914067
S315080007E0A1F580531B0C03F004039940A1F580443E
S315080007F0240CC2F10E0204F00204D21A121BA14004
S3150800080002EBD131CA1D20FA02F202F0010202EB14
S315080008104102F26100237361336105EB82016B6863
S3150800082023FA02F401F59871E40705D401209040F3
S31508000830184368600E601CE01F2A09680EBF002274
S315080008405208C2F1190200FA02F200E019464B6892
S31508000850DB08DB00834210D0D30F01EB830303F1DF
S31508000860100452002368002BF0D12869844211D362
S315080008702660B161F660B6600EE02A698868914222
S3150800088028BF904206D3C6608E60B060F160002033
S31508000890B06101E001F0F0FAE868804511D2A0EBFA
S315080008A00800E86040F00100A96908EB0102AA61A6
S315080008B0506048F00300486003B001F10800BDE845
S315080008C0F08F002000F080BE481B0020A8140020EE
S315080008D06859883C2DE9F0470D46044668689046F5
S315080008E008EB0509C10738D4296810F0030F00F092
S315080008F03F8248424519206988448542C0F03482BF
S315080009006269954200F0BB80CE08202E54D2D5F8F5
S315080009100CA0AF68554508BF01F0AEFABD4208BF46
S3150800092001F0AAFA6868C008C000B0EBC60F18BF85
S3150800093001F0A2FA04EBC60000F128018F4205D0A7
S3150800094021698F4235D3F968A94232D1BA4521D1F6
S3150800095020680121B1408843206020698145C0F0A4
S315080009600382D9F804108A0700F16081A2699145CB
S3150800097040F09B80E0684044E060A56140F00100DB
S3150800098068606069854240F0F38100206061A0607C
S31508000990BDE8F0872830824506D02069824508D30D
S315080009A0DAF80800A84204D1C7F80CA0CAF80870FB
S315080009B0D3E701F061FAD0E7EF68AE69AF420BD032
S315080009C0A968814222D3C868A84204BFB868A84269
S315080009D01CD1CF60B9601BE005F114010F6837B967
S315080009E005F110010F689FB101E011460F6807F184
S315080009F014021368002B02BF07F110021368002BBC
S31508000A00F3D1814202D30020086001E001F034FAF4
S31508000A10002EA2D0E86904EB800000F59870016802
S31508000A208D4209D10760380011D1EA696068012151
S31508000A3091408843606090E72069864205D3306913
S31508000A40A84214BF7761376101E001F015FA002F5B
S31508000A5083D020698742ACD3BE61296929B1814216
S31508000A6026BF39618F6101F007FA686900283FF4EB
S31508000A7074AF216988429CD3786187616DE799F8DC
S31508000A80040000F0030003287FF467AFC4F8088069
S31508000A90D9F8040040084000C9F8040048F00100ED
S31508000AA0686048F80580BDE8F0876269914509D114
S31508000AB0A0684044A060656140F00101696040514A
S31508000AC0BDE8F087C908C900CE088844202E38D268
S31508000AD0D9F80CA0D9F80870D14508BF01F0CCF9AF
S31508000AE0B94508BF01F0C8F9D9F80400C008C00024
S31508000AF0B0EBC60F18BF01F0BFF904EBC60000F152
S31508000B0028018F4206D021698F42C0F08180F9689A
S31508000B1049457DD1BA4505D120680121B1408843B0
S31508000B20206077E02830824506D0206982456FD359
S31508000B30DAF8080048456BD1C7F80CA0CAF808705F
S31508000B4068E0D9F80C70D9F818604F450CD0D9F878
S31508000B500810814222D3C868484504BFB86848458A
S31508000B601CD1CF60B9601BE009F114010F6837B9D1
S31508000B7009F110010F689FB101E011460F6807F1EE
S31508000B8014021368002B02BF07F110021368002B2A
S31508000B90F3D1814202D30020086001E001F06CF92C
S31508000BA0002E37D0D9F81C0004EB800000F59870A9
S31508000BB0016889450AD10760380012D1D9F81C2086
S31508000BC06068012191408843606023E0206986427D
S31508000BD005D33069484514BF7761376101E001F0F4
S31508000BE04BF9BFB12069874212D3BE61D9F81010FC
S31508000BF029B1814226BF39618F6101F03DF9D9F8E3
S31508000C00140038B12169884202D37861876101E00E
S31508000C1001F032F948F00100686048F8058060691B
S31508000C2085420CD1C4F80880BDE8F0874808400022
S31508000C30C9F8040048F00100686048F805804FEAE2
S31508000C40D807202F23D204EBC70000F128094E4607
S31508000C50B8F1100F38BF01F00FF9206820FA07F134
S31508000C60C90704D40121B9400843206007E0D9F830
S31508000C700800216988422CBF064601F0FDF8C9F82C
S31508000C800850F560AE60C5F80C90BDE8F0875FEADD
S31508000C90182008BF002123D0B0F5803F28BF1F21A8
S31508000CA01ED2A0F58071090C01F008018840A0F554
S31508000CB08052120C02F004029040A0F580431B0CEF
S31508000CC0C1F10E0103F00203891AC91A984001EB13
S31508000CD0D030C11D28FA01F101F0010101EB4001F4
S31508000CE0E96100226A612A6104EB8100626822FADE
S31508000CF001F300F59870DB0706D4012303FA01F126
S31508000D001143616005601CE01F2900680EBF0021C1
S31508000D104908C1F1190108FA01F100E010464268D4
S31508000D20D208D200424511D0CA0F00EB820202F166
S31508000D30100349001A68002AF0D121698B4213D39F
S31508000D401D60A861ED60AD60BDE8F0872269816825
S31508000D50904228BF914207D3CD608560A960E860BC
S31508000D600020A861BDE8F087BDE8F04701F084B827
S31508000D70BDE8F0872DE9F84F044688460026C8F1F5
S31508000D80000B5FEA182008BF002123D0B0F5803F8A
S31508000D9028BF1F211ED2A0F58071090C01F0080199
S31508000DA08840A0F58052120C02F004029040A0F58B
S31508000DB080431B0CC1F10E0103F00203891AC91AFC
S31508000DC0984001EBD030C11D28FA01F101F001016C
S31508000DD001EB400104EB8100D0F8300130B31F2944
S31508000DE00EBF00224A08C2F1190208FA02F20023CD
S31508000DF000E052004568ED08ED00A5EB08055D45E5
S31508000E0003D206465FEA050B0CD045694FEAD27E47
S31508000E1000EB8E00002D00691CBF85422B4600287A
S31508000E20E7D1184600283AD1002E3AD10120884049
S31508000E304000414208436168084000F05F81414232
S31508000E400840411E080B00F0100021FA00F2510973
S31508000E5001F00801CA40930803F00403DA40550874
S31508000E6005F002050818EA401818C2F3400E28448F
S31508000E70704422FA0EF1081804EB8000D0F830010D
S31508000E800DE008464168C908C900A1EB08015945A3
S31508000E903CBF8B46064601690029F2D14069002805
S31508000EA0F0D1002E00F02A81A068A0EB0800834547
S31508000EB080F0248120698642C0F01E817068C008CF
S31508000EC008EB0B09C00008EB0605484518BF00F0FB
S31508000ED0D3FFAE4280F01081F768D6F818A0B74263
S31508000EE00CD0B0682169884223D3C168B14204BFD7
S31508000EF0B968B1421DD1C760B8601CE006F114009C
S31508000F00076837B906F110000768A7B101E0084677
S31508000F10076807F114010A68002A02BF07F11001E1
S31508000F200A68002AF3D12169884202D300210160A8
S31508000F3001E000F0A1FFBAF1000F38D0F06904EB28
S31508000F40800000F5987001688E4209D10760380064
S31508000F5014D1F2696068012191408843606026E0F7
S31508000F602069824508D3DAF81000B04214BFCAF8DF
S31508000F701470CAF8107001E000F07EFFBFB1206956
S31508000F80874212D3C7F818A0306930B12169884260
S31508000F9026BF3861876100F06FFF706938B1216933
S31508000FA0884202D37861876101E000F065FFBBF1F2
S31508000FB0100F09D249F00300706009EB060041687A
S31508000FC041F00101416096E048F0030070604BF083
S31508000FD0010068604BF805B04FEADB0020281DD2F7
S31508000FE004EBC00101F12807216821FA00F2BB468B
S31508000FF0D20705D4012202FA00F00843206006E071
S31508001000B868216988422CBF834600F035FFBD6069
S31508001010CBF80C50C5F808B0EF606CE05FEA1B200F
S3150800102008BF002123D0B0F5803F28BF1F211ED25C
S31508001030A0F58071090C01F008018840A0F58052DE
S31508001040120C02F004029040A0F580431B0CC1F17B
S315080010500E0103F00203891AC91A984001EBD03031
S31508001060C11D2BFA01F101F0010101EB4001E96113
S3150800107000226A612A6104EB8100626822FA01F3A0
S3150800108000F59870DB0706D4012303FA01F1114332
S31508001090616005601CE01F2900680EBF0021490831
S315080010A0C1F119010BFA01F100E010464268D208B5
S315080010B0D2005A4510D0CA0F00EB820202F1100383
S315080010C049001A68002AF0D121698B4211D31D60A4
S315080010D0A861ED60AD600EE022698168904228BF84
S315080010E0914206D3CD608560A960E8600020A861BA
S315080010F001E000F0C1FE07E100F0BEFE01E12DE9C6
S31508001100F84F04468846606841420840411E080B6D
S3150800111000F01000C1404A0902F00802D1408B08CD
S3150800112003F00403D9404D0805F002051018E940FC
S315080011301818C1F3400628443018F140081804EB83
S315080011408000D0F830014168C908C9000646A1EBFD
S31508001150080A09E008464168C908C900A1EB080160
S3150800116051453CBF8A46064601690029F2D14069C5
S315080011700028F0D120698642C0F0C1807068C00896
S3150800118008EB0A09C00008EB060B484518BF00F033
S3150800119073FE5E4580F0B380F768B569B7420CD038
S315080011A0B0682169884223D3C168B14204BFB968CF
S315080011B0B1421DD1C760B8601CE006F1140007688B
S315080011C037B906F110000768A7B101E008460768B5
S315080011D007F114010A68002A02BF07F110010A681C
S315080011E0002AF3D12169884202D30021016001E077
S315080011F000F042FE002D34D0F06904EB800000F5C3
S31508001200987001688E4209D10760380011D1F269D9
S315080012106068012191408843606022E02069854228
S3150800122005D32869B04214BF6F612F6101E000F051
S3150800123023FEB7B12069874211D3BD61306930B149
S315080012402169884226BF3861876100F015FE7069FA
S3150800125038B12169884202D37861876101E000F0DC
S315080012600BFEBAF1100F09D249F00300706009EBC2
S315080012700600416841F0010141603FE048F0030083
S3150800128070604AF00100CBF804004AF80BA0D4F8C5
S3150800129008804FEAD805202D28BF00F0EDFDB8F1EB
S315080012A0000F27D0D4F81490009504EBC50000F180
S315080012B028052F46B8F1100F38BF00F0DDFD20686D
S315080012C0009920FA01F1C90705D4009A0121914035
S315080012D00843206006E0A868216988422CBF0746B3
S315080012E000F0CAFDC5F80890C7F80C90C9F8087050
S315080012F0C9F80C50C4F808A0C4F814B004E000F00B
S31508001300BBFD0020BDE8F28F06F10800BDE8F28FAC
S315080013102DE9F04F83B00546C046C046DFF8CC4AF3
S31508001320F52D80F006810B2D31BF102705F10B0036
S31508001330C008C7002068FE08F04010F0030F42D02E
S31508001340C04300F00100861904EBC60000F1280826
S31508001350F700D8F808506868C008C000B84218BF37
S3150800136000F08AFDD5F80890454508BF00F084FDD1
S315080013704D4508BF00F080FD6868C008C000B84247
S3150800138018BF00F079FDC84505D120680121B14094
S31508001390884320600DE02069814508D3D9F80C0000
S315080013A0A84204D1C8F80890C9F80C8001E000F0FA
S315080013B063FD47F00300686078190835416841F015
S315080013C001014160FDE0A168B94280F0C4800028AF
S315080013D000F0A680012505FA06F149004A42B04008
S315080013E01143084041420840411E080B00F0100016
S315080013F0C1404A0902F00802D1408B0803F00403F1
S31508001400D9404E0806F002061018F1401818C1F324
S3150800141040083018404421FA08F101EB000804EBB3
S31508001420C80000F128094FEAC80AD9F808607068A8
S31508001430C008C000504518BF00F01EFDD6F808B019
S315080014404E4508BF00F018FD5E4508BF00F014FDC4
S315080014507068C008C000504518BF00F00DFDD9459A
S3150800146005D1206805FA08F1884320600DE0206957
S31508001470834508D3DBF80C00B04204D1C9F808B09C
S31508001480CBF80C9001E000F0F7FC47F00300AAEB5C
S3150800149007087060BF1948F00100786048F80780AF
S315080014A0D4F808904FEAD90ABAF1200F28BF00F0FD
S315080014B0E3FCB9F1000F2DD060690090CDF804A0C7
S315080014C004EBCA0000F1280AD346B9F1100F38BF59
S315080014D000F0D2FC2068019920FA01F1C90705D469
S315080014E0019905FA01F10843206007E0DAF80800D7
S315080014F0216988422CBF834600F0BEFC0098CAF8D2
S3150800150008000098CBF80C000098C0F808B00098BE
S31508001510C0F80CA0C4F80880676106F1080550E019
S315080015206068C0B339462046FFF7E9FD050012D0CA
S3150800153047E015F1400F28BF4FF0FF370BD205F1F2
S315080015400B00C008C700606828B139462046FFF777
S3150800155011FC050035D1A168B9421CD3CA1B6069C4
S31508001560102A0AD339186161A26042F001034B6060
S31508001570525047F0030141600AE00022A26062610E
S3150800158041F00302426009184A6842F001024A60C3
S3150800159000F1080515E0E06887420DD2C01BA16975
S315080015A0E0607A18A26140F00100506001F1080578
S315080015B047F00300486004E039462046FEF7C2FFBC
S315080015C00546C046C046284603B0BDE8F08F00B9B8
S315080015D070472DE9F047A0F10804C046C046DFF879
S315080015E00C5828698442C0F07582616801F00302CC
S315080015F0012A00F06F82CA084FEAC20808EB0409FC
S31508001600CA0737D4226811F0030F00F065825142E9
S315080016100C1990448442C0F05D8269698C4200F0DE
S31508001620D880D608202E70D2D4F80CA0A7685445C6
S3150800163008BF00F021FCBC4208BF00F01DFC606832
S31508001640C008C000B0EBC60F18BF00F015FC05EBCC
S31508001650C60000F128018F4205D029698F4251D36F
S31508001660F968A1424ED1BA453DD128680121B14059
S31508001670884328604C4580F02D82D9F80400C107BC
S3150800168040F12882810700F17A81A969894540F0ED
S31508001690B580E868AC614044E86040F001016160EB
S315080016A069698C4202D100216961A960E9698142B0
S315080016B080F01282DFF83807006808B9FEF771FD76
S315080016C0A969002900F00882E868292824BF284665
S315080016D0FEF75AFDE869E968884280F0FD814FF017
S315080016E0FF30E861F8E12830824506D0286982454E
S315080016F008D3DAF80800A04204D1C7F80CA0CAF843
S315080017000870B7E700F0B8FBB4E7E768A669A74230
S315080017100BD0A168814222D3C868A04204BFB8682A
S31508001720A0421CD1CF60B9601BE004F114010F6818
S3150800173037B904F110010F689FB101E011460F682F
S3150800174007F114021368002B02BF07F11002136891
S31508001750002BF3D1814202D30020086001E000F09B
S315080017608BFB002E86D0E06905EB800000F59870AB
S3150800177001688C4209D10760380011D1E2696868AE
S31508001780012191408843686074E72869864205D339
S315080017903069A04214BF7761376101E000F06CFB45
S315080017A0002F3FF467AF28698742ABD3BE61216932
S315080017B029B1814226BF39618F6100F05DFB6069FE
S315080017C000283FF457AF296988429BD3786187611F
S315080017D050E799F8040000F0030003287FF44AAFA5
S315080017E0C5F80880D9F8040040084000C9F8040084
S315080017F048F00100606048F804806DE16969894530
S3150800180008D1A8686C614044A86040F00101616095
S31508001810005161E1C008C0004FEAD00A8044BAF11D
S31508001820200F36D2D9F80C70D9F80860B94508BF28
S3150800183000F022FBB14508BF00F01EFBD9F80400F2
S31508001840C008C000B0EBCA0F18BF00F015FB05EBC7
S31508001850CA0000F128018E4206D029698E42C0F0DE
S315080018608180F16849457DD1B74206D128680121B2
S3150800187001FA0AF18843286076E02830874205D0C5
S31508001880286987426ED3B86848456BD1F760BE6051
S315080018906AE0D9F80C70D9F818604F450DD0D9F818
S315080018A008002969884223D3C168494504BFB96835
S315080018B049451DD1C760B8601CE009F114000768E6
S315080018C037B909F110000768A7B101E008460768AB
S315080018D007F114010A68002A02BF07F110010A6815
S315080018E0002AF3D12969884202D30021016001E068
S315080018F000F0C2FA002E37D0D9F81C0005EB80009C
S3150800190000F59870016889450AD10760380012D138
S31508001910D9F81C206868012191408843686023E053
S315080019202869864205D33069484514BF776137610F
S3150800193001E000F0A1FABFB12869874212D3BE615F
S31508001940D9F8101029B1814226BF39618F6100F09C
S3150800195093FAD9F8140038B12969884202D3786114
S31508001960876101E000F088FA48F00100606048F8F5
S315080019700480686984420BD1C5F80880ACE0400849
S315080019804000C9F8040048F00100606048F8048087
S315080019904FEAD807202F22D205EBC70000F1280905
S315080019A04E46B8F1100F38BF00F066FA286820FADC
S315080019B007F1C90704D40121B9400843286007E0A4
S315080019C0D9F80800296988422CBF064600F054FA5F
S315080019D0C9F80840F460A660C4F80C907CE05FEA99
S315080019E0182008BF002123D0B0F5803F28BF1F214B
S315080019F01ED2A0F58071090C01F008018840A0F5F7
S31508001A008052120C02F004029040A0F580431B0C91
S31508001A10C1F10E0103F00203891AC91A984001EBB5
S31508001A20D030C11D28FA01F101F0010101EB400196
S31508001A30E16100226261226105EB81006A6822FA8F
S31508001A4001F300F59870DB0706D4012303FA01F1C8
S31508001A501143696004601CE01F2900680EBF00215D
S31508001A604908C1F1190108FA01F100E01046426877
S31508001A70D208D200424510D0CA0F00EB820202F10A
S31508001A80100349001A68002AF0D129698B4211D33C
S31508001A901C60A061E460A4600EE02A698168904237
S31508001AA028BF914206D3CC608460A160E060002024
S31508001AB0A06101E000F0E0F9286A401E28620BD117
S31508001AC0D5F8C80100E080680028FCD14FF0FF3047
S31508001AD0286201E000F0D0F9C046C046BDE8F087AC
S31508001AE02DE9F84F0D4604466B6820691646DA0854
S31508001AF0D20011464FF0000B01EB05088542C0F0F5
S31508001B006F8103F00307012F00F06A81454580F0D5
S31508001B106781D8F804705FEAC77E40F1618113F0E7
S31508001B20030F0FD1F008202824BF301D8242C0F0D1
S31508001B305981DFF8BC0280684000911B8842C0F0DA
S31508001B4051814BE1B1421AD38A1B102AC0F0468153
S31508001B5003F00100304340F00200711968604868DC
S31508001B6040F00100486042F003004860501843689E
S31508001B7043F0010343602046FEF7ACFE2EE1A2695E
S31508001B80904516D1E0684018864280F02B8103F014
S31508001B900102324342F0020271196A60801B4A68E8
S31508001BA042F001024A6040F001024A60A161E06029
S31508001BB014E1626990452BD1A0684118B142C0F082
S31508001BC01181881B03F00102102812D3324342F018
S31508001BD0020271196A6043184A6842F001024A60B3
S31508001BE040F001024A6040505A68520852005A6052
S31508001BF00BE041EA020040F00200686048194168BB
S31508001C0041F001014160002001466161A060E5E004
S31508001C10BA0700F1E780FA08D20002EB0109B145DC
S31508001C20C0F0E080D108A9EB060B20293DD2D8F8F0
S31508001C3008A0D8F80C700091B84508BF00F01CF948
S31508001C40D04508BF00F018F9D8F804000099C00874
S31508001C50C000B0EBC10F18BF00F00EF9009804EBF6
S31508001C60C00000F128018A4508D021698A45C0F0DC
S31508001C708880DAF80C10414540F08380574506D134
S31508001C80009A206801219140884320607BE0283033
S31508001C90874205D02069874273D3B868404570D11A
S31508001CA0CAF80C70C7F808A06DE0D8F80C70D8F818
S31508001CB018A047450CD0D8F80810814222D3C86826
S31508001CC0404504BFB86840451CD1CF60B9601BE0E9
S31508001CD008F114010F6837B908F110010F689FB1B0
S31508001CE001E011460F6807F114021368002B02BFC2
S31508001CF007F110021368002BF3D1814202D30020AA
S31508001D00086001E000F0B8F8BAF1000F3BD0D8F847
S31508001D101C0004EB800000F59870016888450AD11C
S31508001D200760380015D1D8F81C2060680121914059
S31508001D308843606027E02069824508D3DAF81000F6
S31508001D40404514BFCAF81470CAF8107001E000F0D4
S31508001D5093F8C7B12069874213D3C7F818A0D8F8F3
S31508001D60101029B1814226BF39618F6100F084F8CD
S31508001D70D8F8140038B12169884202D3786187619E
S31508001D8001E000F079F8BBF1100F0ED2287900F0C7
S31508001D90010049EA000040F00200686009EB05000E
S31508001DA0416841F00101416018E07119287900F095
S31508001DB00100304340F002006860486840F00100C6
S31508001DC048604BF0030048600BEB0100426842F0A4
S31508001DD00102426020465A46FEF77CFDAB4601E00A
S31508001DE000F04AF85846BDE8F28F0000A814002013
S31508001DF0481B0020F8B504460D46002624B9284697
S31508001E00FFF786FA064632E015F1400F2FD20B2D62
S31508001E1031BF102605F10B00C608F600A4F1080725
S31508001E20C046C046012332463946DFF84800FFF768
S31508001E3057FE0646C046C0460EB1083617E0284685
S31508001E40FFF766FA060012D0786810F0030F0CBF89
S31508001E5008210421C008C000421AAA4288BF2A469F
S31508001E602146304600F032F82046FFF7B0FB3046F0
S31508001E70F2BD0000A8140020012000F063B850F855
S31508001E80041B61B150F8042BD30744BFA9F1010321
S31508001E909A18002342F8043B091FFAD1EFE7704766
S31508001EA00749086808B1002070470648C008C000FE
S31508001EB008600549C908C900091A0160704700BFCA
S31508001EC0101C00202F2100202825002062B38B0734
S31508001ED008D0521E11F8013B00F8013B00F024809F
S31508001EE08B07F6D1830740F0208000BF103A07D34E
S31508001EF030B4B1E83810103AA0E83810F9D230BC3E
S31508001F00530724BFB1E80810A0E8081044BF51F8E9
S31508001F10043B40F8043BD20724BF31F8022B20F8D3
S31508001F20022B44BF0B7803707047083A07D3B1E811
S31508001F300810083A40F8043B40F804CBF7D2530798
S31508001F40E4E7000280B500F007F8024A11001820FD
S31508001F50ABBEFBE72600020080B500F033F80200AE
S31508001F600023DB431068984204D011000220ABBE60
S31508001F70002010605068984204D0111D0220ABBEA4
S31508001F800020506001BD000010B584B0040000F0C8
S31508001F9019F8A100421810680021C94388420DD1DA
S31508001FA007A00090002C01D1002000E00420019039
S31508001FB00320029069460120ABBE106004B010BD34
S31508001FC03A747400004870479C0200202DE9F04FCF
S31508001FD0A1B0824602AE002017461D4602917062E5
S31508001FE00DF144080AE017F8011B0298D047029041
S31508001FF0002800F0DA82706A401C7062387808B9E6
S31508002000706AD4E22528EED10020F0603061706154
S31508002010B061F061306201E040F0010017F8011F7D
S315080020202029F9D023290DD02B2904D02D2906D013
S3150800203030290AD00CE040F0020080B2EEE740F00A
S315080020400400FAE740F00800F7E740F01000F4E76C
S315080020502A290DD129680A1D2A600968F162002912
S3150800206004D5494240F00400F16280B27F1C13E0B7
S315080020700021F1620BE0F16A6FF00043994205D046
S3150800208001EB810302EB43013039F1627F1C3A7898
S31508002090A2F130010A29EED339782E2903D04FF060
S315080020A0FF31B1621EE017F8011F2A2906D12968F7
S315080020B00A1D2A607F1C0968B16213E00021B1621B
S315080020C00BE0B16A6FF00043994205D001EB81033A
S315080020D002EB43013039B1627F1C3A78A2F1300134
S315080020E00A29EED330860FF63840397800F026FEF6
S315080020F008B117F8010B8DF83A009DF83A006828E0
S3150800210002BF39786829622005D06C2804BF387860
S315080021106C2803D171208DF83A007F1C11A8B06095
S315080021203978B1F1250029D01C3800F0C080001F8D
S31508002130022840F2BC80133800F0E480093800F029
S31508002140B680801E00F07781401E00F02081401E78
S31508002150022840F2AC80001F00F01981401F7BD096
S31508002160401E00F0CF80401E22D0C01E0BD0801E1D
S3150800217000F0C880C01E00F0C58064E1F068411C0C
S31508002180F160252169E12868011D29600068B26AA5
S315080021907060002A02D500F0DDFD07E0002100F09E
S315080021A0F5FD00281ABF7168401AB06A306156E119
S315080021B02868011D296000210068CDE900014FF05B
S315080021C03C0E11A87060DDE9000111B908B9B26AC0
S315080021D0CAB10206120FA0EB02123032AEF10103A9
S315080021E0D2B29E463A2AA8BF2732000903F8082029
S315080021F040EA0170090908BF002804D0726811ABCB
S3150800220073449A42E5D311A971447160CEF13C003A
S31508002210B16A3061884207DA081AB0614FF6EF7181
S31508002220308E084030861AE1002940F1188196F868
S31508002230301001F01401102940F01181F16AF2689A
S31508002240891AB269891AA1EB000EBEF1010FC0F214
S315080022500681C6F818E002E19DF83A00622818D00F
S31508002260682806D06A280BD06C2819D0712807D0A0
S3150800227016E02868011D29600068716A0180EEE091
S315080022802A68101D28601268706AC117C2E9000121
S31508002290E5E02868011D29600068716A0170DEE0C2
S315080022A02868011D29600068716A0160D7E02868FE
S315080022B0C01D20F00700286000F108022A60D0E956
S315080022C00023CDE90023002B04D5F068421CF260F8
S315080022D02D220DE0308E820704D5F068421CF2608C
S315080022E02B2205E0C00705D5F068421CF2602022C3
S315080022F000F80820F06811AA8018706000A800F09D
S31508002300DDF9ACE09DF83A006C2808BF2A6811D0C0
S31508002310712808BF2A6802D02A686A280AD1D21DFD
S3150800232022F007022A60144604F108022A60D4E95A
S31508002330002303E0131D2B6000231268CDE9002358
S31508002340682808BF92B207D0622808BFD2B203D065
S31508002350742818BF7A2802D10023CDE9002396F8FD
S31508002360300000075FD5DDE90023002B08BF002AEF
S3150800237059D041F02000782855D1F068302200F86D
S315080023800820401C421CF26000F808104BE09DF83B
S315080023903A0062280CD0682810D06A281AD06C280F
S315080023A023D0712816D074281FD07A280CD01CE0A8
S315080023B02868021D2A6090F900201AE02868021D84
S315080023C02A60B0F9002014E02868021D2A6000235C
S315080023D002680FE02868C01D20F00700286000F199
S315080023E008022A60D0E9002304E02868021D2A6052
S315080023F00268D317CDE90023002B04DAF068421CE3
S31508002400F2602D220DE0308E820704D5F068421C5A
S31508002410F2602B2205E0C00705D5F068421CF26081
S31508002420202200F80820F06811AA8018706000A819
S3150800243000F0C0F813E0F068411CF16029680A1D35
S315080024402A60096809E0F068421CF260252200F853
S31508002450082021B1F068421CF26000F80810F06A02
S31508002460F168401AB169401A3169401AF169401A8F
S315080024707169401A316AA0EB010996F830007F1C91
S31508002480400710D420208DF84000002409E00123DD
S3150800249010AA00A9504600F02CFC002840F08580C0
S315080024A0641C4C45F3DBF4680DF1440B0AE01BF899
S315080024B0011B0298D0470290002876D0706A401C0B
S315080024C07062641E002CF2D130208DF840004FF067
S315080024D0000BB46909E0012310AA00A9504600F0D0
S315080024E008FC002861D10BF1010BA345F3DB346925
S315080024F0D6F804B00AE01BF8011B0298D0470290F0
S31508002500002852D0706A401C7062641E002CF2D1FA
S3150800251030208DF840004FF0000BF46909E00123E4
S3150800252010AA00A9504600F0E4FB00283DD10BF1A3
S31508002530010BA345F3DB30697168746900EB010B85
S3150800254009E01BF8011B0298D047029068B3706A2D
S31508002550401C7062641E002CF3D130208DF84000B8
S315080025604FF0000B346A08E0012310AA00A9504670
S3150800257000F0BFFBC8B90BF1010BA345F4DB96F8D5
S31508002580300040077FF53AAD20208DF84000002442
S3150800259000E0641C4C45BFF631AD012310AA00A922
S315080025A0504600F0A6FB0028F3D04FF0FF3021B0CC
S315080025B0BDE8F08F2DE9FA4E05460A462F696F2ABF
S315080025C008BF082405D041F02000782814BF0A2443
S315080025D01024D5E900013C2681468B46642A18BF9B
S315080025E0692A05D1002903DAD9F100096BEB4B0BEF
S315080025F0BBF1000F08BFB9F1000F0CD1286B50B919
S31508002600082C36D195F83800000732D530203B26FD
S3150800261087F83B002DE0E31748465946224600F066
S31508002620E1FBA4FB0023A9EB02023032A6F1010A62
S31508002630D2B256463A2A03DB9DF80030513B9A1827
S315080026400AF8072081465FEA010B08BFB9F1000FB7
S3150800265003D0E868F1198842DDD3082C09D195F82A
S315080026603800000705D5F05D302802D0761E3020E8
S31508002670F055C6F13C00A861F119E960296B88425A
S3150800268008DA081A28624FF6EF71288F084028875B
S31508002690BDE8F38E00290ED595F8381001F014011F
S315080026A0102908D1696B6A69891A2A6A891A081A67
S315080026B00128A8BF2862BDE8F38E00002DE9F04F77
S315080026C007468FB08B46D7E90001CDE9020104AE73
S315080026D04BF0200061280BD0386B002848BF062035
S315080026E005D404BF4BF02000672801D101203863C8
S315080026F07968C1F30A5040F2FF7290421AD1080372
S3150800270004BF3868002808D10320B861ABF161001E
S315080027101A2835D30FF21C6107E00320B861ABF124
S3150800272061001A2829D30FF20461F8680322FFF71B
S31508002730CDFBB6E1012816DA384600F0CAFB0128B7
S3150800274011DB002400204BF0200161291FD1F96814
S31508002750302201F8012B4A1CFA60BBF1610F0CBF4D
S31508002760782258220FE07A6840F2FE3161F31E5251
S31508002770441A7A604FF0FF30E5E70FF2AC51D4E720
S315080027800FF2AC51D1E70A707969891C796110B9E1
S31508002790002500247DE14BF02000612840F095805B
S315080027A0386B00284CBF2125451CDDE902012DB2F6
S315080027B06E1CD7E900890022002300F0ABFB3ABF64
S315080027C089F00040CDE90280CDE90289241F8DF801
S315080027D010200DF1110A01E000F2070A012E32DB82
S315080027E0DDE902010022002300F0ACFB2BD21C21FC
S315080027F002A800F0BFFBDDE9020100F045FCF61F68
S315080028008046012E09DB00F06BFC02460B46DDE92B
S31508002810020100F07DFCCDE902010AF2070007215A
S3150800282005E008F00F0200F8012D4FEA2818B8F164
S31508002830010F01DB491EF4D5491E5CBF002200F8D2
S31508002840012DF9D5C8E70DF11100AAEB00010DF12C
S315080028501106A942B8BF0D462DB228002ED48842CB
S3150800286006DA04A9411849780829A8BF0F2100DA11
S31508002870002104AA821800E06D1E12F80139401ED4
S315080028808B42F9D00F2904D104A941184A78521C61
S315080028904A70002802D504AE6D1C241D2DB2681E90
S315080028A00CD48119ABF13A030A783032D2B23A2AFB
S315080028B0A8BF9A1801F80129401EF5D5386B0028DB
S315080028C040F1E780681E3863E3E0DDE90201002293
S315080028D0002300F01FFB3CBF81F00041CDE9020157
S315080028E024B247F2975060434849DFF824A190FB89
S315080028F0F1F424B2C4F107050026012D19DBDDE940
S315080029000289E80707D5324653464046494600F04D
S31508002910BFFC804689466D103046514632465346BE
S3150800292000F0B6FC06468A46002DEAD1CDE90289B2
S3150800293021E06D429046DFF8DC9012E0E80707D503
S31508002940324653464046494600F0A2FC8046894630
S315080029506D10304651463246534600F099FC0646FD
S315080029608A46002DEAD1DDE9020142464B4600F0CF
S3150800297061FDCDE902014BF0200066280CBF04F189
S315080029800A000620396B4518142DA8BF13253020D8
S315080029908DF810000DF11106DFF87C90012D3DDB56
S315080029A0DDE9020100F086FB06F1080104220A238C
S315080029B0B0FBF3F303EB8306A0EB4600303001F8D7
S315080029C0010D0A20B3FBF0F000EB8006A3EB4603EB
S315080029D0303301F8013D521EE9D1083D01F10806E0
S315080029E0012DDBDBDDE9020100F064FB00F082FB70
S315080029F002460B46DDE9020100F08AFB00224B463F
S31508002A0000F046FCCDE90201CAE700BFA086010036
S31508002A10000024400000F03F84D797410DF11100D3
S31508002A20301A0DF1110602E0401E641E761C31783C
S31508002A303029F9D04BF02001662902D124B2611C55
S31508002A4003E065290CBF012100213A6B8D182DB2D0
S31508002A50A842B8BF05462DB229001AD4814204DA25
S31508002A60885D3528A8BF392000DA30208A19521E19
S31508002A7000E06D1E12F80139491E8342F9D0392843
S31508002A8002D1885D401C8855002902D5761E6D1C2A
S31508002A90641C24B200942BB232465946384600F0DC
S31508002AA003F80FB0BDE8F08F2DE9F04786B006466B
S31508002AB08A4690461D4600F0FEFD406A376B90F840
S31508002AC00090012D02DA01250FF26C284AF0200049
S31508002AD0BDF93840662808BF641C12D0672875D12E
S31508002AE014F1040F78DBBC4276DA96F83800641CD9
S31508002AF0000702D4BD42B8BF2F4624B23F1B48BFC9
S31508002B000027F068B16924B2012C21DA30234A1C67
S31508002B100B54012F03DA96F83810090702D502F884
S31508002B200090521CB261E742B8BF7C4224B26142AF
S31508002B30E7197162AF42B8BF3D462DB2F5612A4624
S31508002B40B36941461818FFF7C1F9781BB062B9E0B6
S31508002B500818A54216DA2A464146FFF7B7F9B169B9
S31508002B606918B161601B7062012F03DA96F83800A4
S31508002B70000705D5F06801F80090F069401CF0617F
S31508002B80B7629FE022464146FFF7A0F9B0692018D0
S31508002B902D1B012F03DA96F83810090703D5F168BB
S31508002BA000F80190401C2DB2B061AF42B8BF3D4657
S31508002BB0F3682DB22A4604EB0801C018FFF786F918
S31508002BC0B0692818B061781B70627BE0BAF1610FB2
S31508002BD014D14FF0700A16E0BD4204DA96F83810A0
S31508002BE0090758BF2F467F1E48BF0027BAF1670F4F
S31508002BF014BF4FF0450A4FF0650A04E0BAF1410FD9
S31508002C0008BF4FF0500AB169F06818F8013B0B5439
S31508002C104A1C012F05DA96F83810090758BFB26121
S31508002C2015D502F80090531CB361012F0FDB6D1EFA
S31508002C302DB2AF42B8BF3D462DB22A4641461818B6
S31508002C40FFF744F9B0692818B061781B7062B0695B
S31508002C50F16800EB0108200008F801AB03D42B202B
S31508002C6008F8010B03E02D2108F8011B6442002532
S31508002C7002AF08E00A2200A800F036FD019807F81E
S31508002C80010B6D1C009C21B20129F3DA022D06DA2C
S31508002C904AF02000652804BF302008F8010B4DB91A
S31508002CA0302008F8010B07E06D1E02A8285C3030BA
S31508002CB008F8010B012DF7DAB069F1684018A8EB9E
S31508002CC00000F06196F8380000F0140010280DD1C5
S31508002CD07069B1690818716A0818F1690818B16A43
S31508002CE00818716B8842BCBF081A306206B0BDE886
S31508002CF0F087F8B504460D4616461F46002004E040
S31508002D00E86A401CE8627F1E002047B116F8011BDE
S31508002D10A868A047A8600028F2D14FF0FF30F2BD9E
S31508002D20686A6C747A4C00006E616E004E414E0003
S31508002D30696E6600494E4600300000040278C9B242
S31508002D408A421AB11CBF10F8012FF9E718BF0020F4
S31508002D507047090000F10103810704D010F8011B30
S31508002D6089B18107FAD10268B2F10131914311F0B4
S31508002D70803F04BF50F8042FF6E710F8011B11B185
S31508002D8010F8011BFBE7C01A70470A00C9B283078F
S31508002D9006D0521E22D310F8013B9942F7D11FE004
S31508002DA0083A13D302F1040241EA012141EA01413A
S31508002DB050F8043B121F21BF4B40A3F1013C2CEAFB
S31508002DC0030C1CF0803FF3D0C9B2001F083210F87C
S31508002DD0013B521E28BF91EA030FF8D818BF0120FD
S31508002DE0401E70471B4213D1094236D12AB1844688
S31508002DF0B0FBF2F002FB10C2704700F07DBCFCD3BA
S31508002E000022002370470B000200002100207047B3
S31508002E10904271EB030CF6D370B5B1FA81F4B3FAAC
S31508002E2083F52C1BA340C4F1200532FA05F633437B
S31508002E30A2405FF00046E64002E05B085FEA320225
S31508002E40841A71EB030524BF204629467641F4D33C
S31508002E5002000B003000002170BD012ACFD970B5E1
S31508002E60140C20D0B1FA81F4B2FA82F5C4F1200428
S31508002E706419B4F12006D6D3B2405FF00044F4409A
S31508002E80002502E052085FEA3303C61A71EB020E08
S31508002E9024BF3046714664416D41F3D302000B00EE
S31508002EA02000290070BD0C46B1FBF2F102FB11456A
S31508002EB02D0445EA1045B5FBF2F402FB145580B221
S31508002EC040EA0545B5FBF2F002FB105240EA044021
S31508002ED070BD30B4436803F0004201211B031B0B8D
S31508002EE0436004BF0368002B08D10DE00368DD0FBB
S31508002EF045EA440444605B000360491E4468E302F3
S31508002F00F4D523031B0B436043681A434260084603
S31508002F1030BC70474FF4001C1CEB410F94BF1CEBF0
S31508002F20430F09E041EA030C50EA4C0C52EA0C0C38
S31508002F3003D2994208BF9042704714BF8B4282421F
S31508002F4070471F214FF4001C1CEB410F94BF1CEB6C
S31508002F50430F09E041EA030C50EA4C0C52EA0C0C08
S31508002F6003D28B4208BF8242704714BF99429042EF
S31508002F707047202270B504460D466068C0F30A50B3
S31508002F8040F2FF71884207D16068000304BF2068D9
S31508002F90002817D0022070BD20B92046FFF799FFF8
S31508002FA0012867DA012D0FDB40F2FF71091A8D42FD
S31508002FB00AD3606800284CBF9FED2F0B9FED300B9E
S31508002FC084ED000B012070BD4142A942616806DA12
S31508002FD06FF31E51401941EA0050606041E0401EFF
S31508002FE063680122451962F31F5305F1350001F0A4
S31508002FF000416360352803D361600020206070BDFE
S31508003000002215F11F0F04DA2268236000202035FC
S315080030106060684213D0521E25689241C0F12003B1
S31508003020D2439D4045EAD27225686668C54006FACD
S3150800303003F32B432360636823FA00F0606060683B
S3150800304008436060B2F1004F03D80DD12078C0075D
S315080030500AD52068401C2060206828B96068401C92
S3150800306060604FF0FF3070BD6068884204BF20681A
S315080030700028F6D1002070BD000000000000F0FF17
S31508003080000000000000F07FF446400D40EAC12031
S31508003090490006D200F014F8004248BF6FF000401D
S315080030A0604700F00DF84FF0004188428CBF084693
S315080030B040426047400D40EAC120490080F00D803B
S315080030C040F00040490DA1F58061491C05D4D1F1B5
S315080030D01F0154BFC840C01770474FF00000704723
S315080030E0010040F10980F446404200F005F851F02D
S315080030F000416047010000BF09D0B0FA80F188405E
S31508003100C91CC1F58461090501EBD021400570474A
S3150800311070B44FF0004591EA030F44BF6B4000F0CE
S31508003120F7BA00BF841A71EB030604D26E40001B7F
S31508003130B141121973414FF4001C1CEB410F34BF07
S315080031407CEB430684E00C0DA4EB1356362E7DDC8F
S31508003150012E43DC45EAC32343EA525312BFD20287
S3150800316092025B08240545EAC12141EA5051D2EB97
S31508003170C020994125D407D1B0FA80F610FA06F195
S3150800318064D00020203608E0B1FA81F6B140C6F1D5
S31508003190200220FA02F21143B0404FEAF474B4EB6D
S315080031A0465434F001064FEA74040AD8D6F50016D8
S315080031B0760D04F00044F04061FA06F25040F14002
S315080031C04840C00A40EA415021F0004128BF5FEA62
S315080031D0500550F1000044EBD12137E045EAC323FE
S315080031E0DB0A45EAC121C90AB6F120050EDD42EA25
S315080031F00242120CC5F1200603FA06F6EB4042EA33
S3150800320006056D42984161F100010DE062FA06F586
S31508003210F240554063FA06FC82EA0C02F3405A4033
S315080032206D42904161EB030111F4801F05D1641EC4
S31508003230620502D06D004041494121F480114308DE
S3150800324075F1004350F1000041EB045170BC704722
S315080032501CEB410F15D223F0004352EA43060BD06C
S315080032604FEA4C0CBCEB410F04D80C0D661E342EED
S31508003270B7DDEBE7801A994150EA410608BF0021FD
S31508003280E4E708BF1CEB430F28BF6FF00001DDE73A
S31508003290B0B581EA030C0CF0004C40F2FF7515EA54
S315080032A011541DBF15EA1357AC42AF4239E0E41971
S315080032B023EA455343F48013C90241F0004141EA29
S315080032C0505EC7021100A7FB020200284FF000005B
S315080032D0EEFB01204FF00001E3FB072118BF42F087
S315080032E00102401800214941E3FB0E01A4F5806460
S315080032F00F0302D252004041494154F101046CDDEA
S31508003300470872F1004250F1000051EB0451A1F553
S3150800331080115CBF41EA0C01B0BD4CEA05510020A2
S31508003320B0BD05EA1357AC4214BFAF4241E050EABC
S31508003330410E1CBF52EA430E02E061460020B0BDB2
S3150800334024423C441BD15FEA070EF6D0090302BFAC
S3150800335001460020AEF1140EB1FA81F7AEEB070470
S3150800336001FA07FE0C37C7F1200100FA07F7C84033
S315080033704EEA000E23EA455343F48013A2E733F0DE
S315080033800043B3FA83F704BFB2FA82FE77440B3FD1
S31508003390E41BB7F1200E2FBF02FA0EF3BB40C7F1AC
S315080033A0200E22FA0EFE38BF43EA0E03BA40641C0A
S315080033B082E750EA410E14BF52EA430E6FF000014D
S315080033C04FF4001717EB430F8ABF194617EB410F47
S315080033D0B5E74CEA05510020B0BDD4F10104B4F1BB
S315080033E020070FDAC4F12007520828BF42F001026D
S315080033F010FA07F501FA07F7E1BF2A43E040384318
S31508003400E1400FE0352C98DCC7F1200452EA40026F
S3150800341020FA07F218BF42F0010231FA07F0A1407C
S315080034200A43002172F1004250F1000051EB0C01F1
S31508003430B0BD0202F0B540F2FF7581EA030C0CF04C
S31508003440004C15EA11541DBF15EA1357AC42AF429A
S31508003450E5E0BC41C1F31301C3F31303801A994194
S3150800346043F4801304D2641E400049418018594130
S31508003470C90241EA5051B1FBF3F603FB1611A2FB50
S315080034800675D7EBC020A94102D2761E801859418D
S31508003490C90241EA5051B1FBF3FE03FB1E11A2FB20
S315080034A00E75D7EBC020A94103D2AEF1010E8018E4
S315080034B05941890241EA9051760546EA8E2EB1FBBA
S315080034C0F3F603FB1611A2FB0675D7EB8020A9417C
S315080034D002D2761E80185941C90241EA50514EEA75
S315080034E0060EB1FBF3F603FB1611A2FB0675D7EB26
S315080034F0C020A94102D2761E80185941C90241EA64
S315080035005051B1FBF3F703FB1711A2FB0735D3EBB9
S31508003510C020A94167F100070CBF004247F0010728
S3150800352066F3D5274FEA1E31B80814F5806412DD14
S31508003530BD0775F1004250EB0E5051EB045111F5E1
S31508003540801F5CBF41EA0C01F0BD4CF07F6141F081
S31508003550E0410020F0BDBD076D0840EA0E5041F479
S315080035608011D4F10104B4F120060ADAC4F1200668
S315080035700200E04001FA06F3E1401843B240154361
S315080035800EE0342C13DCC6F1200445EA40056D082C
S3150800359020FA06F2154321FA06F0A1400D43002150
S315080035A075F1004250F1000051EB0C01F0BD00200E
S315080035B05FEA0C01F0BDCFB992185B41B3FA83F705
S315080035C004BFB2FA82F6BF190B3FB7F120062FBF28
S315080035D002FA06F3BB40C7F1200622FA06F638BF00
S315080035E03343BA401CB1E419641E33E77F4231F015
S315080035F00041B1FA81F404BFB0FA80F6A4190B3C75
S31508003600B4F120062FBF00FA06F1A140C4F1200646
S3150800361020FA06F638BF3143A0403C1B1AE7AC42F5
S315080036201ABF05EA1357AF4212E050EA41061CBF1B
S3150800363052EA4306BFE750EA4107304661461CBFD7
S3150800364041EA0551F0BD52EA430C08BFC143F0BD3B
S3150800365000204FF4001616EB410F98BF16EB430FE8
S3150800366008BF16EB410F24BFC14305E016EB430F15
S315080036700CBF61464CEA0551F0BD000080B5134801
S3150800368000F0B0F80FF24801016041608160C16046
S315080036900161416181610FF23C0242628162C1624D
S315080036A0016341630FF2300282630FF23402C26390
S315080036B00164416401BD10B5044800F093F804465E
S315080036C0206808B9FFF7DAFF204610BD0000002081
S315080036D0000000002E00000066616C7365000000A3
S315080036E0747275650000000091FBF2F303FB12117A
S315080036F0C0E90031704700007047000070B44FF011
S31508003700004591EA030C44BF6B40FFF70BBD00BFB1
S31508003710841A71EB030603D2001BB14112197341D7
S315080037204FF4001C1CEB410F34BF7CEB430443E011
S315080037300C0DA4EB1356352E50DC45EAC323DB0AE1
S3150800374045EAC121C912B6F120050DDD63FA05F671
S31508003750EB4086EA0305124218BF45F00105C0187A
S3150800376051F100010CD213E062FA06F5F240554019
S31508003770F3415A40B340F3405A408018594107D3A1
S3150800378049085FEA30005FEA350528BF45F00105BC
S3150800379001F58011420875F1004250F1000041EB35
S315080037A0045170BC4FF4001C1CEB410F38BF704726
S315080037B00020090D090570471CEB410F10D252EA8B
S315080037C043060BD0BCEB410F05D80C0DAB43661E68
S315080037D0342EB5DD02E0AB438018594170BC704702
S315080037E070BC70477047070710B440B2002809D567
S315080037F00A0140B210F00F03DFF8FC491B1903F861
S31508003800042C04E00A0140B2DFF8F039C25410BCB7
S31508003810704710B50400601EB0F1807F01D3012007
S3150800382011E0601EDFF8D81908600F215FF0FF303D
S31508003830FFF7DAFF0020DFF8CC1908600720DFF869
S31508003840C8190860002010BD10B50400207B0128A7
S3150800385006D0207B102803D0207B002840F0D1809A
S31508003860E078022803D1102020730120CAE02078CE
S31508003870DFF8981951F820000068400840002178C0
S31508003880DFF8882952F821100860207800F04FFDEB
S31508003890207800F0E3FC207800F0F8FC207800F0AF
S315080038A0C5FCE1692078DFF8642952F8200000F0A9
S315080038B0F3FD6069C0020DD52078DFF8501951F87C
S315080038C02000006850F400202178DFF8402952F8DB
S315080038D021100860207DC0074AD52078DFF82C190A
S315080038E051F82000C06830F0FE002178DFF81C2966
S315080038F052F82110C8602078DFF8101951F8200016
S31508003900C068217D11F0FE0108432178DFF8FC2804
S3150800391052F82110C8602078DFF8F01851F8200016
S31508003920C06830F4E0602178DFF8E02852F821100A
S31508003930C8602078DFF8D41851F82000C06861699B
S31508003940490C11F4E06108432178DFF8C02852F8E1
S315080039502110C8602078DFF8B41851F82000C06834
S3150800396050F400402178DFF8A42852F82110C860E6
S31508003970606980000ED52078DFF8901851F820008D
S31508003980006850F480202178DFF8802852F821104A
S3150800399008600DE02078DFF8741851F820000068F8
S315080039A030F480202178DFF8642852F82110086066
S315080039B0606940000DD52078DFF8501851F82000CE
S315080039C00068400840002178DFF8402852F82110A6
S315080039D00860E37862786169207800F0CFFC0120FE
S315080039E02073DFF82C0800684FF47A71B0FBF1F009
S315080039F0FFF70FFF00215FF0FF30FFF7F5FE00200D
S31508003A0000E0012010BD10B50400207B012805D078
S31508003A10207B102802D0207B002826D1207800F0B1
S31508003A2086FC2078DFF8E41751F820000068400883
S31508003A3040002178DFF8D42752F821100860207852
S31508003A4000F00CFCE37862786169207800F0D3FC1A
S31508003A5000202073002020615FF0FF30A061002065
S31508003A60DFF8A4170860002000E0012010BD01005F
S31508003A700020DFF8A02710600020DFF89827D06024
S31508003A800020DFF8902750600020DFF88827906034
S31508003A900020DFF8802710610020DFF878275061C2
S31508003AA00020DFF870279061032048700020887096
S31508003AB00220C87000204860002088600020087333
S31508003AC000200861002048615FF0FF308861DFF858
S31508003AD04407C8610020704710B504000020DFF8CD
S31508003AE038170860207B800705D4207B032802D07E
S31508003AF0207B052801D10120BDE0207B002801D1CB
S31508003B000120B8E0207B102801D10120B3E0022073
S31508003B1020736069C0011ED40320A0612078DFF8F5
S31508003B20EC1651F820008069000411D5A069012817
S31508003B300ED0A06910F1010F0AD0A069012803D0A0
S31508003B40A06910F1010FE9D1200000F0E5F992E033
S31508003B505FF0FF30A06103202073A07800280AD107
S31508003B60DFF8B4060068616889688905890D084325
S31508003B70DFF8A416086006202073A078002879D1FB
S31508003B806069800207D5DFF89006006850F000707B
S31508003B90DFF88416086060684068FF2818D86068EF
S31508003BA04068DFF878160860DFF86C060068DFF80A
S31508003BB06C16096850EA0140DFF85C160860DFF801
S31508003BC05806006830F08070DFF84C1608600FE081
S31508003BD0DFF84406006850F47F00DFF83C160860FA
S31508003BE0DFF83406006850F08070DFF82C1608609D
S31508003BF06069C00307D5DFF82006006850F4005056
S31508003C00DFF814160860DFF8100600682178DFF878
S31508003C10FC2552F821104860E07801280ED120785A
S31508003C20DFF8E81551F82000006850F062002178A6
S31508003C30DFF8D82552F8211008601BE02078DFF855
S31508003C40CC1551F82000006850F480402178DFF840
S31508003C50BC2552F8211008602078DFF8B01551F815
S31508003C602000006850F060002178DFF8A02552F89F
S31508003C7021100860002010BD10B504000020DFF8F0
S31508003C8098150860207B800705D4207B032802D07E
S31508003C90207B052801D10120CCE0207B002801D11A
S31508003CA00120C7E0207B102801D10120C2E00220B4
S31508003CB020736069C0011ED40320A0612078DFF854
S31508003CC04C1551F820008069000411D5A069012817
S31508003CD00ED0A06910F1010F0AD0A069012803D0FF
S31508003CE0A06910F1010FE9D1200000F015F9A1E053
S31508003CF05FF0FF30A06105202073A07800280AD164
S31508003D00DFF814050068A16889688905890D0843E4
S31508003D10DFF8041508600A202073A078002840F010
S31508003D208880DFF8F404006850F48060DFF8E8144F
S31508003D3008606069800207D5DFF8DC04006850F087
S31508003D400070DFF8D4140860A0684068FF2818D807
S31508003D50A0684068DFF8C4140860DFF8BC0400688F
S31508003D60DFF8B814096850EA0140DFF8AC140860B7
S31508003D70DFF8A404006830F08070DFF89C1408604F
S31508003D800FE0DFF89404006850F47F00DFF8881429
S31508003D900860DFF88404006850F08070DFF8781453
S31508003DA00860DFF87404006850F40050DFF86814FF
S31508003DB00860E078012817D1DFF85C0400682178EC
S31508003DC0DFF8482452F8211048602078DFF83C14C0
S31508003DD051F82000006850F064002178DFF82C24A0
S31508003DE052F82110086024E02078DFF8201451F8F2
S31508003DF02000006850F400402178DFF8102452F8BB
S31508003E0021100860DFF8100400682178DFF8FC2329
S31508003E1052F8211048602078DFF8F01351F8200096
S31508003E20006850F060002178DFF8E02352F821108E
S31508003E300860002010BD10B582B004000020009074
S31508003E402078DFF8C81351F82000806910F0FE00CA
S31508003E500090A078002829D10098800705D5207BF6
S31508003E60062802D1200000F094F90098400705D5ED
S31508003E70207B0A2802D1200000F0A4F90098000649
S31508003E8002D5200000F055F80098400602D520001B
S31508003E9000F0B7F80098800602D5200000F0FDF87B
S31508003EA00098C00602D5200000F063F9002016BD70
S31508003EB010B504002078DFF8541351F82000806903
S31508003EC010F4E0602061102020732069C00507D532
S31508003ED04FF480702178DFF8342352F82110C86136
S31508003EE02069800507D54FF400702178DFF81C2378
S31508003EF052F82110C8612069400507D54FF4806043
S31508003F002178DFF8082352F82110C8612169207842
S31508003F1000F010FB002010BD10B504005FF0FF3064
S31508003F20A06110202073FF202061200000F0ECFA29
S31508003F3010BD01000020B84A1060C87802280DD1CB
S31508003F40087B062805D148684068FF384A685060EB
S31508003F5004E088684068FF388A685060087B06284D
S31508003F6023D148684068FF2812D848684068AB4A99
S31508003F701060A9480068A94A126850EA0240A64A91
S31508003F801060A548006830F08070A34A10602FE0E2
S31508003F90A148006850F47F009F4A10609E48006858
S31508003FA050F080709C4A106022E088684068FF28BC
S31508003FB012D888684068994A106097480068974AF6
S31508003FC0126850EA0240944A10609348006830F03C
S31508003FD08070914A10600BE08F48006850F47F00AB
S31508003FE08D4A10608C48006850F080708A4A1060CC
S31508003FF0894800680A78854B53F8222050600020CB
S31508004000704710B50400606900020CD420787F4917
S3150800401051F82000406850F4804021787B4A52F8D5
S315080040202110486037E02078784951F82000006868
S3150800403030F060002178754A52F821100860207B1C
S31508004040062814D1E07801280BD120786F4951F859
S315080040502000006830F0020021786C4A52F82110DE
S31508004060086001202073200000F062FA13E0E0786F
S3150800407001280BD12078654951F82000006830F0F6
S3150800408004002178614A52F8211008600120207343
S31508004090200000F04EFA002010BD10B5040020697B
S315080040A0102808D11020207320202178574A52F86A
S315080040B02110C8615BE020202178544A52F821106B
S315080040C0C8612078514951F82000006830F0600036
S315080040D021784E4A52F8211008600320A061207802
S315080040E04A4951F820008069000411D5A0690128C1
S315080040F00ED0A06910F1010F0AD0A069012803D0DB
S31508004100A06910F1010FEAD12000FFF705FF2FE0A3
S315080041105FF0FF30A061207B062814D1E0780128E3
S315080041200BD12078394951F82000006830F0020098
S315080041302178364A52F821100860012020732000A1
S3150800414000F0F6F913E0E07801280BD120782F4922
S3150800415051F82000006830F0040021782B4A52F804
S315080041602110086001202073200000F0E2F90020E9
S3150800417010BD10B504001020206110202178234AB4
S3150800418052F82110C8612169207800F0D3F900207F
S3150800419010BD01004868006800780A781B4B53F880
S315080041A02220906248684068401E4A685060486805
S315080041B04068002804D048680068401C4A681060B7
S315080041C00020704701000878104A52F82000406A1B
S315080041D08A681268107088684068401E8A6850604D
S315080041E088684068002804D088680068401C8A6887
S315080041F0106000207047000018ED00E000E400E0C1
S3150800420014E000E018E000E010E000E0840200207E
S31508004210B8020020E41A0020081C0020041C002014
S3150800422080B54FF4A06000F0A9F901BD10B50400EF
S315080042300121E4B2864850F8240000F055FC00211C
S31508004240E4B2834850F8240000F04EFC0121E4B2A1
S315080042507F4850F8240000F038FC10BD10B5040063
S315080042600121E4B27A4850F8240000F03DFC002110
S31508004270E4B2774850F8240000F036FC0021E4B296
S31508004280734850F8240000F020FC10BD1CB504004B
S315080042900121E4B26F4850F82400E4B26E4A52F89D
S315080042A02420104300F0F3FBE4B26C4850F82420B5
S315080042B0D2B2E4B26A4830F81410E4B2694850F849
S315080042C0240000F08BFCE4B2644850F82420D2B2F3
S315080042D0E4B2654830F81410E4B2644850F8240093
S315080042E000F07CFC03208DF8050002208DF8040000
S315080042F001208DF8060000208DF80700E4B25C481E
S3150800430030F81400009000A9E4B2564850F824008A
S3150800431000F010FCE4B2574830F81400009000A9E9
S31508004320E4B2524850F8240000F004FC13BD1CB552
S31508004330040003208DF8050000208DF804000120F4
S315080043408DF8060000208DF80700E4B2484830F8DA
S315080043501400009000A9E4B2424850F8240000F086
S31508004360E9FBE4B2434830F81400009000A9E4B22F
S315080043703E4850F8240000F0DDFB13BDF8B50400F4
S315080043800D0016001F00FFF74BFF01208DF80300F4
S31508004390E4B23948205C8DF80000E4B23748205C66
S315080043A08DF80100E4B23648205C8DF8020000A8BA
S315080043B000F0E9F868021DD4E4B23248205C8DF8B2
S315080043C00000E4B23048205C8DF80100E4B22F48C2
S315080043D0205C8DF8020000A800F0D5F8E4B22C485D
S315080043E050F82400006850F09000E4B2284951F8CB
S315080043F024100860F1BDF8B504000D0016001F0072
S3150800440000208DF8010000208DF8020000208DF8AC
S315080044100300E4B21848205C8DF8000000A800F0FC
S31508004420B2F8680207D4E4B21648205C8DF800009A
S3150800443000A800F0A8F8F1BD80B51648FFF7FBFC08
S3150800444002BD80B51348FFF733FD002002BD00000A
S31508004450FCA100080CA2000814A2000804A2000887
S315080044602CA200088C02002034A200089402002026
S3150800447028A2000830A20008422F0008323400089B
S315080044807A360008722F0008F6360008FA36000851
S3150800449084020020F801002010B4002203685B089B
S315080044A05B00036003681A00154B1A404B688C685A
S315080044B053EA04231A4302600B6833F070630361FE
S315080044C0036853F00103036000231A008260C26088
S315080044D08B690C6923431A008260836853F400438E
S315080044E08360CB681A0003681343036043681A00A5
S315080044F0044B1A404B691A43426010BC70470000CF
S31508004500FFE0CF00FF7FFF0710B5040001202073EE
S31508004510002020615FF0FF30A0612000FFF773FAEA
S315080045202000FFF791F9FF2012490860002010BD0E
S315080045307047704738B504000D000120E4B20E49F3
S3150800454051F8241008730020E4B20B4951F82410DE
S315080045500861E4B2084850F82400FFF754FAE4B2B8
S31508004560054850F82400FFF76FF9FF200149086055
S3150800457031BD0000B40200207C0200201C49014322
S315080045801C4A1160704770B4002300210F22C478BA
S31508004590002C20D0174C246814F4E064D4F5E064A9
S315080045A0240A2300D3F104042100DA4044788C401D
S315080045B023008478144023431B0104780E4D635569
S315080045C00124057815F01F05AC4005786D110B4ED2
S315080045D046F8254009E00124057815F01F05AC408A
S315080045E005786D11064E46F8254070BC70470000E8
S315080045F00000FA050CED00E000E400E000E100E050
S3150800460080E100E0F0B50021002200230024002507
S31508004610002600275FF0000CDFF8ECE4DEF800E087
S315080046201EF00C0E71468E46BEF1000F06D0BEF186
S31508004630040F08D0BEF1080F0AD033E0DFF8D4E43F
S31508004640C0F800E032E0DFF8CCE4C0F800E02DE086
S31508004650DFF8B4E4DEF800E01EF4701E7246DFF8F8
S31508004660A8E4DEF800E01EF4803E7346920C921C25
S31508004670002B05D1DFF8A0E40EFB02FE76460FE01C
S31508004680DFF888E4DEF800E01EF00F0E1EF1010EDA
S315080046907446DFF880E4BEFBF4FE02FB0EFE7646A7
S315080046A0066003E0DFF86CE4C0F800E0DFF858E4E1
S315080046B0DEF800E01EF0F00E71460909DFF85CE44A
S315080046C011F80EE0F446D0F800E03EFA0CFEC0F809
S315080046D004E0DFF834E4DEF800E01EF4E06E71462C
S315080046E0090ADFF838E411F80EE07546D0F804E058
S315080046F03EFA05FEC0F808E0DFF80CE4DEF800E054
S315080047001EF4605E7146C90ADFF810E411F80EE07F
S315080047107746D0F804E03EFA07FEC0F80CE0DFF86A
S31508004720ECE3DEF800E01EF4F87E71460909DFF8CE
S31508004730F0E33EF811E075465FEAC56E04D5B6FBB0
S31508004740F5FEC0F810E003E0D0F800E0C0F810E08D
S31508004750DFF8B8E3DEF800E01EF4785E7146490A31
S31508004760DFF8BCE33EF811E075465FEAC56E04D58E
S31508004770B6FBF5FEC0F814E003E0D0F800E0C0F898
S3150800478014E0DFF88CE3DEF800E05FEACE6E04D4CE
S31508004790DFF880E3C0F818E003E0D0F800E0C0F8DE
S315080047A018E0DFF86CE3DEF800E05FEA8E6E04D40A
S315080047B0DFF860E3C0F81CE003E0D0F800E0C0F8DA
S315080047C01CE0DFF84CE3DEF800E05FEACE5E0AD5CF
S315080047D0D0F800E0B64506D1674504D15FEA460E33
S315080047E0C0F820E003E0D0F80CE0C0F820E0DFF8DD
S315080047F020E3DEF800E05FEA8E5E0AD5D0F800E036
S31508004800B64506D1674504D15FEA460EC0F824E0EE
S3150800481003E0D0F80CE0C0F824E0DFF8F4E2DEF8B4
S3150800482000E01EF0030F04D1D0F80CE0C0F828E031
S3150800483028E0DFF8DCE2DEF800E01EF0030EBEF149
S31508004840010F04D1D0F800E0C0F828E01AE0DFF83C
S31508004850C0E2DEF800E01EF0030EBEF1020F04D13E
S315080048604FF4004EC0F828E00CE0DFF8A4E2DEF8CA
S3150800487000E01EF0030EBEF1030F03D1DFF894E249
S31508004880C0F828E0DFF888E2DEF800E01EF4403FD2
S3150800489004D1D0F808E0C0F82CE028E0DFF870E290
S315080048A0DEF800E01EF4403EBEF5803F04D1D0F8A5
S315080048B000E0C0F82CE01AE0DFF854E2DEF800E089
S315080048C01EF4403EBEF5003F04D14FF4004EC0F83A
S315080048D02CE00CE0DFF838E2DEF800E01EF4403E9B
S315080048E0BEF5403F03D1DFF82CE2C0F82CE0DFF834
S315080048F020E2DEF800E01EF4402F04D1D0F808E0EC
S31508004900C0F830E028E0DFF808E2DEF800E01EF440
S31508004910402EBEF5802F04D1D0F800E0C0F830E074
S315080049201AE0DFF8ECE1DEF800E01EF4402EBEF5F2
S31508004930002F04D14FF4004EC0F830E00CE0DFF849
S31508004940D0E1DEF800E01EF4402EBEF5402F03D17C
S31508004950DFF8C0E1C0F830E0DFF8B4E1DEF800E0E7
S315080049601EF4401F04D1D0F808E0C0F834E028E06F
S31508004970DFF89CE1DEF800E01EF4401EBEF5801F5D
S3150800498004D1D0F800E0C0F834E01AE0DFF880E19E
S31508004990DEF800E01EF4401EBEF5001F04D14FF4F9
S315080049A0004EC0F834E00CE0DFF864E1DEF800E021
S315080049B01EF4401EBEF5401F03D1DFF858E1C0F8CB
S315080049C034E0DFF84CE1DEF800E01EF4400F04D1D5
S315080049D0D0F808E0C0F838E028E0DFF834E1DEF87F
S315080049E000E01EF4400EBEF5800F04D1D0F800E0BA
S315080049F0C0F838E01AE0DFF818E1DEF800E01EF447
S31508004A00400EBEF5000F04D14FF4004EC0F838E052
S31508004A100CE0DFF8FCE0DEF800E01EF4400EBEF520
S31508004A20400F03D1DFF8ECE0C0F838E0F0BD002114
S31508004A30020F1100002906D0344A126832F478525F
S31508004A40324B1A6005E0314A126832F4F8722F4B7D
S31508004A501A602E4A126802432C4B1A6070470021CE
S31508004A60020F1100002906D0294A126832F02002E6
S31508004A70274B1A6005E0264A126832F01002244BCA
S31508004A801A60234A12680243214B1A607047C9B25A
S31508004A90002905D0234A12680243224B1A6004E013
S31508004AA0204A126882431F4B1A607047C9B2002910
S31508004AB005D01D4A126802431B4B1A6004E01A4AC5
S31508004AC012688243184B1A607047C9B2002905D08C
S31508004AD0164A12680243154B1A6004E0134A126814
S31508004AE08243124B1A607047C9B2002905D0104A92
S31508004AF0126802430E4B1A6004E00D4A126882439C
S31508004B000B4B1A6070470000041002402C1002403C
S31508004B103010024000127A0000093D0054020020BD
S31508004B203802002014100240181002401C100240DF
S31508004B3010100240F0B400240022002300252C00A7
S31508004B40102C49D20125A5402A000D6815402B00D6
S31508004B5093423FD10D79012D02D00D79022D19D13D
S31508004B60856803262700FFB27F00BE40B5438560EF
S31508004B7085684E792700FFB27F00BE4035438560C1
S31508004B8085880126A640B543858085888E79A64006
S31508004B9035438580056803262700FFB27F00BE409F
S31508004BA0B543056005680E792700FFB27F00BE4051
S31508004BB035430560C56803262700FFB27F00BE405F
S31508004BC0B543C560C568CE792700FFB27F00BE40F1
S31508004BD03543C560641CB3E7F0BC7047F0B40023E6
S31508004BE00024D2B211F00705EDB2AD0012FA05F5B0
S31508004BF02B0089B2CD1010EB850589B2CE1010EBCB
S31508004C008606366A0F2711F0070C5FFA8CFC5FEAF6
S31508004C108C0C17FA0CF7BE432E6289B2CD1010EB36
S31508004C2085052D6A1D432C0089B2CD1010EB85052C
S31508004C302C62F0BC704700002DE9F04782B00400F2
S31508004C400D0016001F00E4B2002C01D0002004005D
S31508004C50EDB2002D01D000200500F6B2132E01DBBF
S31508004C6012200600FFB2002F01D000200700002006
S31508004C70ADF800000020DFF824170860DFF82017D9
S31508004C80086000AB4FF440720121002000F0DFF805
S31508004C9000AB022201214FF4807000F0D8F800AB77
S31508004CA04FF48072012140F2011000F0D0F800ABF9
S31508004CB04FF4807201214FF4817000F0C8F800AB00
S31508004CC0E4B22200012140F2031000F0C0F800AB64
S31508004CD0EDB22A0001214FF4827000F0B8F800AB5B
S31508004CE0F6B23200012140F2051000F0B0F800AB30
S31508004CF0FFB23A0001214FF4837000F0A8F800AB28
S31508004D00012201214FF4007000F0A1F800AB002247
S31508004D1001214FF4407000F09AF800AB00220121FF
S31508004D2040F2013000F093F800AB012203214FF462
S31508004D30806000F08CF800AB002203214FF4A060DD
S31508004D4000F085F800AB0022032140F2015000F084
S31508004D507EF800AB0022032140F2025000F077F8FB
S31508004D6000AB0022012140F2035000F070F800ABBE
S31508004D70002202214FF4C06000F069F80020804646
S31508004D801FFA88F8B8F1120F3ADA1FFA88F84FF4C2
S31508004D90807000FB08F010F54050814600AB0022F9
S31508004DA00121484680B200F052F800AB00220121EA
S31508004DB019F1010080B200F04AF800AB0022032185
S31508004DC019F1020080B200F042F800AB002203217C
S31508004DD019F1030080B200F03AF800AB0022032173
S31508004DE019F1040080B200F032F800AB002201216C
S31508004DF019F1050080B200F02AF818F10108BFE79A
S31508004E00002080461FFA88F8B8F1000F1DD11FFA56
S31508004E1088F84FF4807000FB08F010F5A040814632
S31508004E20002082461FFA8AFABAF1120F0ADA00AB94
S31508004E30002203211AEB090080B200F008F81AF1E3
S31508004E40010AEFE718F10108DCE7BDE8F38730B49B
S31508004E501D882C00E4B2912C10DAE4B2DFF8445530
S31508004E6025F83400E4B2DFF83C5515EBC405A97003
S31508004E70E4B2DFF8305515EBC4056A601D886D1C71
S31508004E801D8030BC70470200002003009BB2912BA6
S31508004E901CDA9BB2DFF80C0530F8330092B2904268
S31508004EA012D19BB2DFF8FC0410EBC3008078C00770
S31508004EB001D402200BE09BB2DFF8E80410EBC30034
S31508004EC040680860002002E05B1CDFE701207047AD
S31508004ED0F8B504000D00160000200700BFB2912F98
S31508004EE047DABFB2DFF8BC0430F83700A4B2A042F4
S31508004EF03DD1BFB2DFF8AC0410EBC700807880075D
S31508004F000BD4F6B2002E06D0BFB2DFF8980410EB29
S31508004F10C700456029E002202CE0BFB2DFF8840410
S31508004F2010EBC7004560A4B240F20250844203D198
S31508004F300020DFF868140860A4B2B4F5806F09D1C0
S31508004F40F6B2002E02D1280000F0C5F90020DFF8DD
S31508004F504C140860A4B214F47040B0F5A04F04D104
S31508004F602A00E1B2002000F021FA002002E07F1CAE
S31508004F70B4E70120F2BD38B504006078012807D0EF
S31508004F8062D3032830D01AD305285CD046D35BE019
S31508004F90A07910F00F00022810DB0020DFF8FC13C0
S31508004FA00860207A617A51EA00200500210028006D
S31508004FB080B200F059F8200000F03AFB53E0207860
S31508004FC0012810D1012201214FF44070FFF780FF1C
S31508004FD021004FF4407000F047F8200000F028FB4D
S31508004FE0042000F078F93EE0A07910F00F000328BD
S31508004FF013DB0020DFF8A4130860207A052806D101
S31508005000607A022803D1200000F085F805E0200028
S3150800501000F081F8200000F00BFB24E0207801283E
S3150800502010D1012201214FF44070FFF751FF2100F2
S315080050304FF4407000F018F8200000F0F9FA042048
S3150800504000F049F90FE00EE001224FF4417140F2F9
S315080050500130FFF73DFF210040F2013000F004F86F
S31508005060200000F0E5FA31BD70B582B004000D00ED
S3150800507000A9200080B2FFF706FF0600022068702C
S31508005080012028700720A871A4B2200A28726C7221
S315080050900020A8720020E872002028730020687398
S315080050A00020A8730020E873F6B2002E03D0022E63
S315080050B01CD012D323E00020A8720020E87200203A
S315080050C028730098000EE8720098000C2873009860
S315080050D0000A68730098A8731AE00122012140F2B9
S315080050E00130FFF7F5FE0120A87211E00122032125
S315080050F040F20130FFF7ECFE0320A87208E0012217
S315080051004FF4827140F20130FFF7E2FE0420A872E4
S315080051103000C0B276BDF8B5040000250027A07996
S31508005120032801DBA07A0700A079042802DBE07ACD
S3150800513050EA0727A079052802DB207B50EA0727D3
S31508005140A079062802DB607B50EA07273D00207A13
S31508005150617A51EA0020070000222900380080B24F
S31508005160FFF7B6FE060004206070012020700420B8
S31508005170A071F6B2002E03D0022E11D005D31AE084
S315080051800020A0720020E07220E00122012140F2F6
S315080051900130FFF79DFE0020A0720120E07215E0A5
S315080051A00122022140F20130FFF792FE0020A07290
S315080051B00220E0720AE001224FF4017140F2013048
S315080051C0FFF786FE0220A0720420E072F1BD30B51A
S315080051D085B00400A4B24FF4807000FB04F010F50B
S315080051E04050050000A9280080B2FFF73DFF0028BF
S315080051F002D100A800F01CFA05B030BDF0B583B0A6
S3150800520004000D000027A4B24FF4807000FB04F0E0
S3150800521010F54050060001A9300080B2FFF733FEB2
S31508005220002845D100A9B01C80B2FFF72CFE002843
S315080052303ED10098002808D001980099884204D2E7
S315080052400098A84201D257F0010700A9F01C80B2C5
S31508005250FFF719FE00282BD10098002808D00098DF
S315080052600199884204D20098854201D257F0010775
S3150800527000A9301D80B2FFF706FE002818D1009855
S3150800528010F1010F01D157F0010701222900300062
S3150800529080B2FFF71DFE4448007810F0F000202881
S315080052A006D1FFB2002F03D0200080B2FFF78FFF90
S315080052B0F7BD70B504000D00A4B24FF4807000FB72
S315080052C004F010F54050060001222900701C80B237
S315080052D0FFF7FEFD70BD1FB50400002C24D1002089
S315080052E031490880012201214FF40070FFF7F0FDD3
S315080052F0012200214FF44070FFF7EAFD0122012147
S315080053004FF48060FFF7E4FD00A94FF40070FFF743
S31508005310ABFE00A800F08CF900A94FF48060FFF7F7
S31508005320A3FE00A800F084F9022C10D120201E4903
S315080053300880012202214FF48060FFF7C9FD00A909
S315080053404FF48060FFF790FE00A800F071F9032C77
S3150800535010D1302014490880012203214FF48060BF
S31508005360FFF7B6FD00A94FF48060FFF77DFE00A8A1
S3150800537000F05EF9042C10D140200B490880012268
S3150800538004214FF48060FFF7A3FD00A94FF4806065
S31508005390FFF76AFE00A800F04BF91FBDD81B0020D6
S315080053A0D41B0020200C0020141C00207FB504000C
S315080053B00D001600ADB2062D19DAADB2290000A807
S315080053C000F018FA002E05D1ADB2280000F022FD33
S315080053D0019004E0ADB2280000F01CFD0290ADB2C9
S315080053E0290000A800F026FA00F0BCF921E000F038
S315080053F0C4FE00281DD0ADB20A2D03DA002000F045
S315080054005EFE05E0ADB20A2D02DB012000F057FE74
S31508005410ADB2A81F042802DA2800801F01E0280080
S315080054200A383100C9B2C0B200F0AAFE0F2001F056
S315080054300FF87FBD012110F01F02914040B24209CA
S31508005440A24B43F82210704710B440B2002808D582
S315080054500A0140B210F00F039D4C1B1903F8042CE7
S3150800546003E00A0140B29B4BC25410BC704780B59A
S31508005470002099490860994908609949086099493E
S31508005480086099490860032098490860012113209B
S31508005490FFF7DAFF01211420FFF7D6FF1320FFF7E5
S315080054A0C9FF1420FFF7C6FF01BD80B58B48006809
S315080054B08949096888421FD08D480068C00721D5E8
S315080054C08B48006850F001008949086082480068E6
S315080054D0884911EB001000F068F8002812D07E48C1
S315080054E00068401C7C4908607B480068202809D36E
S315080054F000207949086005E07C48006840084000BB
