S017000054656D7065726174757265426F6172642E73313967
S315080000002021002031A400085D9900085F990008A6
S3150800001061990008639900086599000800000000C6
S3150800002000000000000000000000000067990008BA
S3150800003069990008000000006B9900086D9900088E
S315080000400D9A0008BDA40008C1A40008C5A40008AC
S31508000050C9A40008CDA40008D1A40008D5A40008A6
S31508000060D9A40008DDA40008E1A40008E5A4000856
S31508000070E9A40008EDA40008F1A40008F5A4000806
S31508000080F9A40008FDA4000801A500089B42000881
S31508000090F742000805A5000809A500080DA50008EF
S315080000A011A5000815A5000819A500081DA5000832
S315080000B021A5000825A5000829A50008917C0008A7
S315080000C09B7C00082DA5000831A5000835A5000869
S315080000D039A500087F9900083DA5000841A5000834
S315080000E045A5000849A500084DA5000851A5000822
S315080000F055A5000859A500085DA5000861A50008D2
S3150800010000000000000000000000000065A50008CF
S3150800011069A500086DA5000871A5000875A5000861
S3150800012079A500087DA5000881A5000885A5000811
S3150800013089A500088DA50008000000000000000041
S3150800014091A5000895A5000899A5000800000000DB
S315080001500000000000000000000000000000000091
S3150800016000000000000000009DA50008A1A50008E9
S31508000170A5A500080000000000000000000000001F
S3150800018000000000A9A5000800F5E0700268914289
S3150800019003D343689A18914202D380680028F5D1A0
S315080001A07047DFF82407016891B9DFF820274FF474
S315080001B0803181604FF4805141604FF0FF31C1605A
S315080001C0016104214161C2F8BC11DFF8041701601E
S315080001D00120704701F1080313F0070305D001F168
S315080001E00803C3F1080303F007035918D21A8161FB
S315080001F0C26042F001034B60511828234B60DFF8B8
S31508000200C8160969C16170472DE9F84F044601F11E
S31508000210080010F0070005D001F10800C0F1080039
S3150800022000F0070000EB010B02F1080010F00700D0
S3150800023005D002F10800C0F1080000F00700861892
S31508000240A6EB0B00A0EB030803EB0B0743F0030038
S31508000250CBF80400B74228BF01F00EFE3079C0077C
S3150800026058BF01F009FEB8F1100F38BF01F004FEBF
S31508000270A069864207D1E0684044E060A76140F083
S31508000280010078605AE16069864208D1A068404456
S31508000290A060676140F001017960C0514EE1706865
S315080002A000F00301012940F0AD80C0084FEAC009FB
S315080002B020283BD2D6F808A0F5680090AE4208BFC1
S315080002C001F0DAFD564508BF01F0D6FD70680099C1
S315080002D0C008C000B0EBC10F18BF01F0CDFD0098F3
S315080002E004EBC00000F128018A4508D021698A4537
S315080002F0C0F08480DAF80C10B14240F07F80554592
S3150800030006D1009A2068012191408843206077E051
S315080003102830854205D0206985426FD3A868B04247
S315080003206CD1CAF80C50C5F808A069E0F568D6F88B
S3150800033018A0B5420CD0B0682169884223D3C16899
S31508000340B14204BFA968B1421DD1C560A8601CE0CE
S3150800035006F11400056835B906F110000568A5B15F
S3150800036001E00846056805F114010A68002A02BF7B
S3150800037005F110010A68002AF3D12169884202D3DF
S315080003800021016001E001F077FDBAF1000F37D0D6
S31508000390F06904EB800000F5987001688E4209D177
S315080003A00560280014D1F2696068012191408843EC
S315080003B0606025E02069824508D3DAF81000B0426B
S315080003C014BFCAF81450CAF8105001E001F054FDE1
S315080003D0B5B12069854211D3C5F818A0316929B18C
S315080003E0814226BF29618D6101F046FD706938B1E9
S315080003F02169884202D36861856101E001F03CFD0C
S315080004004E44C84470684008400070604FEAD805FA
S3150800041048F00100786048F80780202D21D204EBC7
S31508000420C50000F12806B146B8F1100F38BF01F033
S3150800043023FD206820FA05F1C90704D40121A94043
S315080004400843206006E0B068216988422CBF8146CF
S3150800045001F012FDB760C9F80C70C7F80890FE6085
S315080004606CE05FEA182008BF002123D0B0F5803F72
S3150800047028BF1F211ED2A0F58071090C01F00801C2
S315080004808840A0F58052120C02F004029040A0F5B4
S3150800049080431B0CC1F10E0103F00203891AC91A25
S315080004A0984001EBD030C11D28FA01F101F0010195
S315080004B001EB4001F96100227A613A6104EB81009F
S315080004C0626822FA01F300F59870DB0706D4012367
S315080004D003FA01F11143616007601CE01F290068F7
S315080004E00EBF00214908C1F1190108FA01F100E01F
S315080004F010464268D208D200424510D0CA0F00EB17
S31508000500820202F1100349001A68002AF0D1216913
S315080005108B4211D31F60B861FF60BF600EE022698D
S315080005208168904228BF914206D3CF608760B96040
S31508000530F8600020B86101E001F09EFC0BF10800AC
S31508000540BDE8F28F2DE9F04F0546DFF87C03006819
S3150800055083B0884608B9FFF724FEDFF86C03806885
S3150800056000EB08012F31401E21EA0000804580F08B
S31508000570A881D5F8B81141B1D5F8B02180188242C2
S3150800058080F09F818142C0F09C8101F089FC00289F
S315080005901EBF0446076814F1010F00F09281D5F8D2
S315080005A0B0013818C5F8B001D5F8B411814238BF82
S315080005B00146C5F8B411A86988BB286908B1844200
S315080005C000D22C61C5F8C041C5F8C4710020C5F831
S315080005D0CC0105F12801BC48006868624FF0FF307D
S315080005E028620020C960896001F10802801CD26077
S315080005F0103192602028F5D3B448854203D1A7F17B
S315080006002802214625E055F8040CC00805EBC00071
S31508000610A0F108013819401AA0F1280219E005F5D9
S31508000620E071084600E08068B8B142680368D218ED
S315080006309442F8D1027B12070FD4AA699A420CD3C6
S31508000640466833449A4208D2B9194160E868A969EC
S315080006503A182846FFF7BEFD1EE12869844238BFCE
S315080006602C610846391900E0806880B102688A4220
S31508000670FAD1017B09070AD4046043464168791810
S3150800068041602846214603B0BDE8F04FBCE5AE6997
S3150800069031462846FFF778FD41680068081801903A
S315080006A02F3800F1080111F0070105D000F1080103
S315080006B0C1F1080101F00701081806F11001884286
S315080006C034BF00960090009800F1080900F1180A56
S315080006D004F108014FF0000BA7F1280011F00701FB
S315080006E005D004F10801C1F1080101F007010A1952
S315080006F0401AAA61E86040F001015160801828217B
S31508000700416071480069E86119F0070018BF01F0F7
S31508000710B3FB00991B20486005F5E070B0E80E10A1
S31508000720A9E80E10C5F8C041C5F8C471A9F11001B1
S31508000730C5F8CCB1C5F8C811019800E08A46072269
S31508000740CAF804200AF104010A1D0BF1010B8242C2
S31508000750F4D3BBF1020FB8BF01F08EFB0098B0428C
S3150800076000F09A80801B81194FEAD0094A6852081E
S3150800077052004A6040F0010171608051B9F1200FC2
S315080007801FD205EBC90101F128042746102838BFF6
S3150800079001F072FB286820FA09F1C90705D401217E
S315080007A001FA09F10843286006E0A0682969884229
S315080007B02CBF074601F060FBA660FE60B760F460D8
S315080007C06AE0010A08BF002223D0B1F5803F28BF9E
S315080007D01F221ED2A1F58072120C02F00802914067
S315080007E0A1F580531B0C03F004039940A1F580443E
S315080007F0240CC2F10E0204F00204D21A121BA14004
S3150800080002EBD131CA1D20FA02F202F0010202EB14
S315080008104102F26100237361336105EB82016B6863
S3150800082023FA02F401F59871E40705D401209040F3
S31508000830184368600E601CE01F2A09680EBF002274
S315080008405208C2F1190200FA02F200E019464B6892
S31508000850DB08DB00834210D0D30F01EB830303F1DF
S31508000860100452002368002BF0D12869844211D362
S315080008702660B161F660B6600EE02A698868914222
S3150800088028BF904206D3C6608E60B060F160002033
S31508000890B06101E001F0F0FAE868804511D2A0EBFA
S315080008A00800E86040F00100A96908EB0102AA61A6
S315080008B0506048F00300486003B001F10800BDE845
S315080008C0F08F002000F080BE481B0020A8140020EE
S315080008D06859883C2DE9F0470D46044668689046F5
S315080008E008EB0509C10738D4296810F0030F00F092
S315080008F03F8248424519206988448542C0F03482BF
S315080009006269954200F0BB80CE08202E54D2D5F8F5
S315080009100CA0AF68554508BF01F0AEFABD4208BF46
S3150800092001F0AAFA6868C008C000B0EBC60F18BF85
S3150800093001F0A2FA04EBC60000F128018F4205D0A7
S3150800094021698F4235D3F968A94232D1BA4521D1F6
S3150800095020680121B1408843206020698145C0F0A4
S315080009600382D9F804108A0700F16081A2699145CB
S3150800097040F09B80E0684044E060A56140F00100DB
S3150800098068606069854240F0F38100206061A0607C
S31508000990BDE8F0872830824506D02069824508D30D
S315080009A0DAF80800A84204D1C7F80CA0CAF80870FB
S315080009B0D3E701F061FAD0E7EF68AE69AF420BD032
S315080009C0A968814222D3C868A84204BFB868A84269
S315080009D01CD1CF60B9601BE005F114010F6837B967
S315080009E005F110010F689FB101E011460F6807F184
S315080009F014021368002B02BF07F110021368002BBC
S31508000A00F3D1814202D30020086001E001F034FAF4
S31508000A10002EA2D0E86904EB800000F59870016802
S31508000A208D4209D10760380011D1EA696068012151
S31508000A3091408843606090E72069864205D3306913
S31508000A40A84214BF7761376101E001F015FA002F5B
S31508000A5083D020698742ACD3BE61296929B1814216
S31508000A6026BF39618F6101F007FA686900283FF4EB
S31508000A7074AF216988429CD3786187616DE799F8DC
S31508000A80040000F0030003287FF467AFC4F8088069
S31508000A90D9F8040040084000C9F8040048F00100ED
S31508000AA0686048F80580BDE8F0876269914509D114
S31508000AB0A0684044A060656140F00101696040514A
S31508000AC0BDE8F087C908C900CE088844202E38D268
S31508000AD0D9F80CA0D9F80870D14508BF01F0CCF9AF
S31508000AE0B94508BF01F0C8F9D9F80400C008C00024
S31508000AF0B0EBC60F18BF01F0BFF904EBC60000F152
S31508000B0028018F4206D021698F42C0F08180F9689A
S31508000B1049457DD1BA4505D120680121B1408843B0
S31508000B20206077E02830824506D0206982456FD359
S31508000B30DAF8080048456BD1C7F80CA0CAF808705F
S31508000B4068E0D9F80C70D9F818604F450CD0D9F878
S31508000B500810814222D3C868484504BFB86848458A
S31508000B601CD1CF60B9601BE009F114010F6837B9D1
S31508000B7009F110010F689FB101E011460F6807F1EE
S31508000B8014021368002B02BF07F110021368002B2A
S31508000B90F3D1814202D30020086001E001F06CF92C
S31508000BA0002E37D0D9F81C0004EB800000F59870A9
S31508000BB0016889450AD10760380012D1D9F81C2086
S31508000BC06068012191408843606023E0206986427D
S31508000BD005D33069484514BF7761376101E001F0F4
S31508000BE04BF9BFB12069874212D3BE61D9F81010FC
S31508000BF029B1814226BF39618F6101F03DF9D9F8E3
S31508000C00140038B12169884202D37861876101E00E
S31508000C1001F032F948F00100686048F8058060691B
S31508000C2085420CD1C4F80880BDE8F0874808400022
S31508000C30C9F8040048F00100686048F805804FEAE2
S31508000C40D807202F23D204EBC70000F128094E4607
S31508000C50B8F1100F38BF01F00FF9206820FA07F134
S31508000C60C90704D40121B9400843206007E0D9F830
S31508000C700800216988422CBF064601F0FDF8C9F82C
S31508000C800850F560AE60C5F80C90BDE8F0875FEADD
S31508000C90182008BF002123D0B0F5803F28BF1F21A8
S31508000CA01ED2A0F58071090C01F008018840A0F554
S31508000CB08052120C02F004029040A0F580431B0CEF
S31508000CC0C1F10E0103F00203891AC91A984001EB13
S31508000CD0D030C11D28FA01F101F0010101EB4001F4
S31508000CE0E96100226A612A6104EB8100626822FADE
S31508000CF001F300F59870DB0706D4012303FA01F126
S31508000D001143616005601CE01F2900680EBF0021C1
S31508000D104908C1F1190108FA01F100E010464268D4
S31508000D20D208D200424511D0CA0F00EB820202F166
S31508000D30100349001A68002AF0D121698B4213D39F
S31508000D401D60A861ED60AD60BDE8F0872269816825
S31508000D50904228BF914207D3CD608560A960E860BC
S31508000D600020A861BDE8F087BDE8F04701F084B827
S31508000D70BDE8F0872DE9F84F044688460026C8F1F5
S31508000D80000B5FEA182008BF002123D0B0F5803F8A
S31508000D9028BF1F211ED2A0F58071090C01F0080199
S31508000DA08840A0F58052120C02F004029040A0F58B
S31508000DB080431B0CC1F10E0103F00203891AC91AFC
S31508000DC0984001EBD030C11D28FA01F101F001016C
S31508000DD001EB400104EB8100D0F8300130B31F2944
S31508000DE00EBF00224A08C2F1190208FA02F20023CD
S31508000DF000E052004568ED08ED00A5EB08055D45E5
S31508000E0003D206465FEA050B0CD045694FEAD27E47
S31508000E1000EB8E00002D00691CBF85422B4600287A
S31508000E20E7D1184600283AD1002E3AD10120884049
S31508000E304000414208436168084000F05F81414232
S31508000E400840411E080B00F0100021FA00F2510973
S31508000E5001F00801CA40930803F00403DA40550874
S31508000E6005F002050818EA401818C2F3400E28448F
S31508000E70704422FA0EF1081804EB8000D0F830010D
S31508000E800DE008464168C908C900A1EB08015945A3
S31508000E903CBF8B46064601690029F2D14069002805
S31508000EA0F0D1002E00F02A81A068A0EB0800834547
S31508000EB080F0248120698642C0F01E817068C008CF
S31508000EC008EB0B09C00008EB0605484518BF00F0FB
S31508000ED0D3FFAE4280F01081F768D6F818A0B74263
S31508000EE00CD0B0682169884223D3C168B14204BFD7
S31508000EF0B968B1421DD1C760B8601CE006F114009C
S31508000F00076837B906F110000768A7B101E0084677
S31508000F10076807F114010A68002A02BF07F11001E1
S31508000F200A68002AF3D12169884202D300210160A8
S31508000F3001E000F0A1FFBAF1000F38D0F06904EB28
S31508000F40800000F5987001688E4209D10760380064
S31508000F5014D1F2696068012191408843606026E0F7
S31508000F602069824508D3DAF81000B04214BFCAF8DF
S31508000F701470CAF8107001E000F07EFFBFB1206956
S31508000F80874212D3C7F818A0306930B12169884260
S31508000F9026BF3861876100F06FFF706938B1216933
S31508000FA0884202D37861876101E000F065FFBBF1F2
S31508000FB0100F09D249F00300706009EB060041687A
S31508000FC041F00101416096E048F0030070604BF083
S31508000FD0010068604BF805B04FEADB0020281DD2F7
S31508000FE004EBC00101F12807216821FA00F2BB468B
S31508000FF0D20705D4012202FA00F00843206006E071
S31508001000B868216988422CBF834600F035FFBD6069
S31508001010CBF80C50C5F808B0EF606CE05FEA1B200F
S3150800102008BF002123D0B0F5803F28BF1F211ED25C
S31508001030A0F58071090C01F008018840A0F58052DE
S31508001040120C02F004029040A0F580431B0CC1F17B
S315080010500E0103F00203891AC91A984001EBD03031
S31508001060C11D2BFA01F101F0010101EB4001E96113
S3150800107000226A612A6104EB8100626822FA01F3A0
S3150800108000F59870DB0706D4012303FA01F1114332
S31508001090616005601CE01F2900680EBF0021490831
S315080010A0C1F119010BFA01F100E010464268D208B5
S315080010B0D2005A4510D0CA0F00EB820202F1100383
S315080010C049001A68002AF0D121698B4211D31D60A4
S315080010D0A861ED60AD600EE022698168904228BF84
S315080010E0914206D3CD608560A960E8600020A861BA
S315080010F001E000F0C1FE07E100F0BEFE01E12DE9C6
S31508001100F84F04468846606841420840411E080B6D
S3150800111000F01000C1404A0902F00802D1408B08CD
S3150800112003F00403D9404D0805F002051018E940FC
S315080011301818C1F3400628443018F140081804EB83
S315080011408000D0F830014168C908C9000646A1EBFD
S31508001150080A09E008464168C908C900A1EB080160
S3150800116051453CBF8A46064601690029F2D14069C5
S315080011700028F0D120698642C0F0C1807068C00896
S3150800118008EB0A09C00008EB060B484518BF00F033
S3150800119073FE5E4580F0B380F768B569B7420CD038
S315080011A0B0682169884223D3C168B14204BFB968CF
S315080011B0B1421DD1C760B8601CE006F1140007688B
S315080011C037B906F110000768A7B101E008460768B5
S315080011D007F114010A68002A02BF07F110010A681C
S315080011E0002AF3D12169884202D30021016001E077
S315080011F000F042FE002D34D0F06904EB800000F5C3
S31508001200987001688E4209D10760380011D1F269D9
S315080012106068012191408843606022E02069854228
S3150800122005D32869B04214BF6F612F6101E000F051
S3150800123023FEB7B12069874211D3BD61306930B149
S315080012402169884226BF3861876100F015FE7069FA
S3150800125038B12169884202D37861876101E000F0DC
S315080012600BFEBAF1100F09D249F00300706009EBC2
S315080012700600416841F0010141603FE048F0030083
S3150800128070604AF00100CBF804004AF80BA0D4F8C5
S3150800129008804FEAD805202D28BF00F0EDFDB8F1EB
S315080012A0000F27D0D4F81490009504EBC50000F180
S315080012B028052F46B8F1100F38BF00F0DDFD20686D
S315080012C0009920FA01F1C90705D4009A0121914035
S315080012D00843206006E0A868216988422CBF0746B3
S315080012E000F0CAFDC5F80890C7F80C90C9F8087050
S315080012F0C9F80C50C4F808A0C4F814B004E000F00B
S31508001300BBFD0020BDE8F28F06F10800BDE8F28FAC
S315080013102DE9F04F83B00546C046C046DFF8CC4AF3
S31508001320F52D80F006810B2D31BF102705F10B0036
S31508001330C008C7002068FE08F04010F0030F42D02E
S31508001340C04300F00100861904EBC60000F1280826
S31508001350F700D8F808506868C008C000B84218BF37
S3150800136000F08AFDD5F80890454508BF00F084FDD1
S315080013704D4508BF00F080FD6868C008C000B84247
S3150800138018BF00F079FDC84505D120680121B14094
S31508001390884320600DE02069814508D3D9F80C0000
S315080013A0A84204D1C8F80890C9F80C8001E000F0FA
S315080013B063FD47F00300686078190835416841F015
S315080013C001014160FDE0A168B94280F0C4800028AF
S315080013D000F0A680012505FA06F149004A42B04008
S315080013E01143084041420840411E080B00F0100016
S315080013F0C1404A0902F00802D1408B0803F00403F1
S31508001400D9404E0806F002061018F1401818C1F324
S3150800141040083018404421FA08F101EB000804EBB3
S31508001420C80000F128094FEAC80AD9F808607068A8
S31508001430C008C000504518BF00F01EFDD6F808B019
S315080014404E4508BF00F018FD5E4508BF00F014FDC4
S315080014507068C008C000504518BF00F00DFDD9459A
S3150800146005D1206805FA08F1884320600DE0206957
S31508001470834508D3DBF80C00B04204D1C9F808B09C
S31508001480CBF80C9001E000F0F7FC47F00300AAEB5C
S3150800149007087060BF1948F00100786048F80780AF
S315080014A0D4F808904FEAD90ABAF1200F28BF00F0FD
S315080014B0E3FCB9F1000F2DD060690090CDF804A0C7
S315080014C004EBCA0000F1280AD346B9F1100F38BF59
S315080014D000F0D2FC2068019920FA01F1C90705D469
S315080014E0019905FA01F10843206007E0DAF80800D7
S315080014F0216988422CBF834600F0BEFC0098CAF8D2
S3150800150008000098CBF80C000098C0F808B00098BE
S31508001510C0F80CA0C4F80880676106F1080550E019
S315080015206068C0B339462046FFF7E9FD050012D0CA
S3150800153047E015F1400F28BF4FF0FF370BD205F1F2
S315080015400B00C008C700606828B139462046FFF777
S3150800155011FC050035D1A168B9421CD3CA1B6069C4
S31508001560102A0AD339186161A26042F001034B6060
S31508001570525047F0030141600AE00022A26062610E
S3150800158041F00302426009184A6842F001024A60C3
S3150800159000F1080515E0E06887420DD2C01BA16975
S315080015A0E0607A18A26140F00100506001F1080578
S315080015B047F00300486004E039462046FEF7C2FFBC
S315080015C00546C046C046284603B0BDE8F08F00B9B8
S315080015D070472DE9F047A0F10804C046C046DFF879
S315080015E00C5828698442C0F07582616801F00302CC
S315080015F0012A00F06F82CA084FEAC20808EB0409FC
S31508001600CA0737D4226811F0030F00F065825142E9
S315080016100C1990448442C0F05D8269698C4200F0DE
S31508001620D880D608202E70D2D4F80CA0A7685445C6
S3150800163008BF00F021FCBC4208BF00F01DFC606832
S31508001640C008C000B0EBC60F18BF00F015FC05EBCC
S31508001650C60000F128018F4205D029698F4251D36F
S31508001660F968A1424ED1BA453DD128680121B14059
S31508001670884328604C4580F02D82D9F80400C107BC
S3150800168040F12882810700F17A81A969894540F0ED
S31508001690B580E868AC614044E86040F001016160EB
S315080016A069698C4202D100216961A960E9698142B0
S315080016B080F01282DFF83807006808B9FEF771FD76
S315080016C0A969002900F00882E868292824BF284665
S315080016D0FEF75AFDE869E968884280F0FD814FF017
S315080016E0FF30E861F8E12830824506D0286982454E
S315080016F008D3DAF80800A04204D1C7F80CA0CAF843
S315080017000870B7E700F0B8FBB4E7E768A669A74230
S315080017100BD0A168814222D3C868A04204BFB8682A
S31508001720A0421CD1CF60B9601BE004F114010F6818
S3150800173037B904F110010F689FB101E011460F682F
S3150800174007F114021368002B02BF07F11002136891
S31508001750002BF3D1814202D30020086001E000F09B
S315080017608BFB002E86D0E06905EB800000F59870AB
S3150800177001688C4209D10760380011D1E2696868AE
S31508001780012191408843686074E72869864205D339
S315080017903069A04214BF7761376101E000F06CFB45
S315080017A0002F3FF467AF28698742ABD3BE61216932
S315080017B029B1814226BF39618F6100F05DFB6069FE
S315080017C000283FF457AF296988429BD3786187611F
S315080017D050E799F8040000F0030003287FF44AAFA5
S315080017E0C5F80880D9F8040040084000C9F8040084
S315080017F048F00100606048F804806DE16969894530
S3150800180008D1A8686C614044A86040F00101616095
S31508001810005161E1C008C0004FEAD00A8044BAF11D
S31508001820200F36D2D9F80C70D9F80860B94508BF28
S3150800183000F022FBB14508BF00F01EFBD9F80400F2
S31508001840C008C000B0EBCA0F18BF00F015FB05EBC7
S31508001850CA0000F128018E4206D029698E42C0F0DE
S315080018608180F16849457DD1B74206D128680121B2
S3150800187001FA0AF18843286076E02830874205D0C5
S31508001880286987426ED3B86848456BD1F760BE6051
S315080018906AE0D9F80C70D9F818604F450DD0D9F818
S315080018A008002969884223D3C168494504BFB96835
S315080018B049451DD1C760B8601CE009F114000768E6
S315080018C037B909F110000768A7B101E008460768AB
S315080018D007F114010A68002A02BF07F110010A6815
S315080018E0002AF3D12969884202D30021016001E068
S315080018F000F0C2FA002E37D0D9F81C0005EB80009C
S3150800190000F59870016889450AD10760380012D138
S31508001910D9F81C206868012191408843686023E053
S315080019202869864205D33069484514BF776137610F
S3150800193001E000F0A1FABFB12869874212D3BE615F
S31508001940D9F8101029B1814226BF39618F6100F09C
S3150800195093FAD9F8140038B12969884202D3786114
S31508001960876101E000F088FA48F00100606048F8F5
S315080019700480686984420BD1C5F80880ACE0400849
S315080019804000C9F8040048F00100606048F8048087
S315080019904FEAD807202F22D205EBC70000F1280905
S315080019A04E46B8F1100F38BF00F066FA286820FADC
S315080019B007F1C90704D40121B9400843286007E0A4
S315080019C0D9F80800296988422CBF064600F054FA5F
S315080019D0C9F80840F460A660C4F80C907CE05FEA99
S315080019E0182008BF002123D0B0F5803F28BF1F214B
S315080019F01ED2A0F58071090C01F008018840A0F5F7
S31508001A008052120C02F004029040A0F580431B0C91
S31508001A10C1F10E0103F00203891AC91A984001EBB5
S31508001A20D030C11D28FA01F101F0010101EB400196
S31508001A30E16100226261226105EB81006A6822FA8F
S31508001A4001F300F59870DB0706D4012303FA01F1C8
S31508001A501143696004601CE01F2900680EBF00215D
S31508001A604908C1F1190108FA01F100E01046426877
S31508001A70D208D200424510D0CA0F00EB820202F10A
S31508001A80100349001A68002AF0D129698B4211D33C
S31508001A901C60A061E460A4600EE02A698168904237
S31508001AA028BF914206D3CC608460A160E060002024
S31508001AB0A06101E000F0E0F9286A401E28620BD117
S31508001AC0D5F8C80100E080680028FCD14FF0FF3047
S31508001AD0286201E000F0D0F9C046C046BDE8F087AC
S31508001AE02DE9F84F0D4604466B6820691646DA0854
S31508001AF0D20011464FF0000B01EB05088542C0F0F5
S31508001B006F8103F00307012F00F06A81454580F0D5
S31508001B106781D8F804705FEAC77E40F1618113F0E7
S31508001B20030F0FD1F008202824BF301D8242C0F0D1
S31508001B305981DFF8BC0280684000911B8842C0F0DA
S31508001B4051814BE1B1421AD38A1B102AC0F0468153
S31508001B5003F00100304340F00200711968604868DC
S31508001B6040F00100486042F003004860501843689E
S31508001B7043F0010343602046FEF7ACFE2EE1A2695E
S31508001B80904516D1E0684018864280F02B8103F014
S31508001B900102324342F0020271196A60801B4A68E8
S31508001BA042F001024A6040F001024A60A161E06029
S31508001BB014E1626990452BD1A0684118B142C0F082
S31508001BC01181881B03F00102102812D3324342F018
S31508001BD0020271196A6043184A6842F001024A60B3
S31508001BE040F001024A6040505A68520852005A6052
S31508001BF00BE041EA020040F00200686048194168BB
S31508001C0041F001014160002001466161A060E5E004
S31508001C10BA0700F1E780FA08D20002EB0109B145DC
S31508001C20C0F0E080D108A9EB060B20293DD2D8F8F0
S31508001C3008A0D8F80C700091B84508BF00F01CF948
S31508001C40D04508BF00F018F9D8F804000099C00874
S31508001C50C000B0EBC10F18BF00F00EF9009804EBF6
S31508001C60C00000F128018A4508D021698A45C0F0DC
S31508001C708880DAF80C10414540F08380574506D134
S31508001C80009A206801219140884320607BE0283033
S31508001C90874205D02069874273D3B868404570D11A
S31508001CA0CAF80C70C7F808A06DE0D8F80C70D8F818
S31508001CB018A047450CD0D8F80810814222D3C86826
S31508001CC0404504BFB86840451CD1CF60B9601BE0E9
S31508001CD008F114010F6837B908F110010F689FB1B0
S31508001CE001E011460F6807F114021368002B02BFC2
S31508001CF007F110021368002BF3D1814202D30020AA
S31508001D00086001E000F0B8F8BAF1000F3BD0D8F847
S31508001D101C0004EB800000F59870016888450AD11C
S31508001D200760380015D1D8F81C2060680121914059
S31508001D308843606027E02069824508D3DAF81000F6
S31508001D40404514BFCAF81470CAF8107001E000F0D4
S31508001D5093F8C7B12069874213D3C7F818A0D8F8F3
S31508001D60101029B1814226BF39618F6100F084F8CD
S31508001D70D8F8140038B12169884202D3786187619E
S31508001D8001E000F079F8BBF1100F0ED2287900F0C7
S31508001D90010049EA000040F00200686009EB05000E
S31508001DA0416841F00101416018E07119287900F095
S31508001DB00100304340F002006860486840F00100C6
S31508001DC048604BF0030048600BEB0100426842F0A4
S31508001DD00102426020465A46FEF77CFDAB4601E00A
S31508001DE000F04AF85846BDE8F28F0000A814002013
S31508001DF0481B0020F8B504460D46002624B9284697
S31508001E00FFF786FA064632E015F1400F2FD20B2D62
S31508001E1031BF102605F10B00C608F600A4F1080725
S31508001E20C046C046012332463946DFF84800FFF768
S31508001E3057FE0646C046C0460EB1083617E0284685
S31508001E40FFF766FA060012D0786810F0030F0CBF89
S31508001E5008210421C008C000421AAA4288BF2A469F
S31508001E602146304600F032F82046FFF7B0FB3046F0
S31508001E70F2BD0000A8140020012000F063B850F855
S31508001E80041B61B150F8042BD30744BFA9F1010321
S31508001E909A18002342F8043B091FFAD1EFE7704766
S31508001EA00749086808B1002070470648C008C000FE
S31508001EB008600549C908C900091A0160704700BFCA
S31508001EC0081C0020272100202025002062B38B074C
S31508001ED008D0521E11F8013B00F8013B00F024809F
S31508001EE08B07F6D1830740F0208000BF103A07D34E
S31508001EF030B4B1E83810103AA0E83810F9D230BC3E
S31508001F00530724BFB1E80810A0E8081044BF51F8E9
S31508001F10043B40F8043BD20724BF31F8022B20F8D3
S31508001F20022B44BF0B7803707047083A07D3B1E811
S31508001F300810083A40F8043B40F804CBF7D2530798
S31508001F40E4E7000280B500F007F8024A11001820FD
S31508001F50ABBEFBE72600020080B500F033F80200AE
S31508001F600023DB431068984204D011000220ABBE60
S31508001F70002010605068984204D0111D0220ABBEA4
S31508001F800020506001BD000010B584B0040000F0C8
S31508001F9019F8A100421810680021C94388420DD1DA
S31508001FA007A00090002C01D1002000E00420019039
S31508001FB00320029069460120ABBE106004B010BD34
S31508001FC03A747400004870479C0200202DE9F04FCF
S31508001FD0A1B0824602AE002017461D4602917062E5
S31508001FE00DF144080AE017F8011B0298D047029041
S31508001FF0002800F0DA82706A401C7062387808B9E6
S31508002000706AD4E22528EED10020F0603061706154
S31508002010B061F061306201E040F0010017F8011F7D
S315080020202029F9D023290DD02B2904D02D2906D013
S3150800203030290AD00CE040F0020080B2EEE740F00A
S315080020400400FAE740F00800F7E740F01000F4E76C
S315080020502A290DD129680A1D2A600968F162002912
S3150800206004D5494240F00400F16280B27F1C13E0B7
S315080020700021F1620BE0F16A6FF00043994205D046
S3150800208001EB810302EB43013039F1627F1C3A7898
S31508002090A2F130010A29EED339782E2903D04FF060
S315080020A0FF31B1621EE017F8011F2A2906D12968F7
S315080020B00A1D2A607F1C0968B16213E00021B1621B
S315080020C00BE0B16A6FF00043994205D001EB81033A
S315080020D002EB43013039B1627F1C3A78A2F1300134
S315080020E00A29EED330860FF63840397800F026FEF6
S315080020F008B117F8010B8DF83A009DF83A006828E0
S3150800210002BF39786829622005D06C2804BF387860
S315080021106C2803D171208DF83A007F1C11A8B06095
S315080021203978B1F1250029D01C3800F0C080001F8D
S31508002130022840F2BC80133800F0E480093800F029
S31508002140B680801E00F07781401E00F02081401E78
S31508002150022840F2AC80001F00F01981401F7BD096
S31508002160401E00F0CF80401E22D0C01E0BD0801E1D
S3150800217000F0C880C01E00F0C58064E1F068411C0C
S31508002180F160252169E12868011D29600068B26AA5
S315080021907060002A02D500F0DDFD07E0002100F09E
S315080021A0F5FD00281ABF7168401AB06A306156E119
S315080021B02868011D296000210068CDE900014FF05B
S315080021C03C0E11A87060DDE9000111B908B9B26AC0
S315080021D0CAB10206120FA0EB02123032AEF10103A9
S315080021E0D2B29E463A2AA8BF2732000903F8082029
S315080021F040EA0170090908BF002804D0726811ABCB
S3150800220073449A42E5D311A971447160CEF13C003A
S31508002210B16A3061884207DA081AB0614FF6EF7181
S31508002220308E084030861AE1002940F1188196F868
S31508002230301001F01401102940F01181F16AF2689A
S31508002240891AB269891AA1EB000EBEF1010FC0F214
S315080022500681C6F818E002E19DF83A00622818D00F
S31508002260682806D06A280BD06C2819D0712807D0A0
S3150800227016E02868011D29600068716A0180EEE091
S315080022802A68101D28601268706AC117C2E9000121
S31508002290E5E02868011D29600068716A0170DEE0C2
S315080022A02868011D29600068716A0160D7E02868FE
S315080022B0C01D20F00700286000F108022A60D0E956
S315080022C00023CDE90023002B04D5F068421CF260F8
S315080022D02D220DE0308E820704D5F068421CF2608C
S315080022E02B2205E0C00705D5F068421CF2602022C3
S315080022F000F80820F06811AA8018706000A800F09D
S31508002300DDF9ACE09DF83A006C2808BF2A6811D0C0
S31508002310712808BF2A6802D02A686A280AD1D21DFD
S3150800232022F007022A60144604F108022A60D4E95A
S31508002330002303E0131D2B6000231268CDE9002358
S31508002340682808BF92B207D0622808BFD2B203D065
S31508002350742818BF7A2802D10023CDE9002396F8FD
S31508002360300000075FD5DDE90023002B08BF002AEF
S3150800237059D041F02000782855D1F068302200F86D
S315080023800820401C421CF26000F808104BE09DF83B
S315080023903A0062280CD0682810D06A281AD06C280F
S315080023A023D0712816D074281FD07A280CD01CE0A8
S315080023B02868021D2A6090F900201AE02868021D84
S315080023C02A60B0F9002014E02868021D2A6000235C
S315080023D002680FE02868C01D20F00700286000F199
S315080023E008022A60D0E9002304E02868021D2A6052
S315080023F00268D317CDE90023002B04DAF068421CE3
S31508002400F2602D220DE0308E820704D5F068421C5A
S31508002410F2602B2205E0C00705D5F068421CF26081
S31508002420202200F80820F06811AA8018706000A819
S3150800243000F0C0F813E0F068411CF16029680A1D35
S315080024402A60096809E0F068421CF260252200F853
S31508002450082021B1F068421CF26000F80810F06A02
S31508002460F168401AB169401A3169401AF169401A8F
S315080024707169401A316AA0EB010996F830007F1C91
S31508002480400710D420208DF84000002409E00123DD
S3150800249010AA00A9504600F02CFC002840F08580C0
S315080024A0641C4C45F3DBF4680DF1440B0AE01BF899
S315080024B0011B0298D0470290002876D0706A401C0B
S315080024C07062641E002CF2D130208DF840004FF067
S315080024D0000BB46909E0012310AA00A9504600F0D0
S315080024E008FC002861D10BF1010BA345F3DB346925
S315080024F0D6F804B00AE01BF8011B0298D0470290F0
S31508002500002852D0706A401C7062641E002CF2D1FA
S3150800251030208DF840004FF0000BF46909E00123E4
S3150800252010AA00A9504600F0E4FB00283DD10BF1A3
S31508002530010BA345F3DB30697168746900EB010B85
S3150800254009E01BF8011B0298D047029068B3706A2D
S31508002550401C7062641E002CF3D130208DF84000B8
S315080025604FF0000B346A08E0012310AA00A9504670
S3150800257000F0BFFBC8B90BF1010BA345F4DB96F8D5
S31508002580300040077FF53AAD20208DF84000002442
S3150800259000E0641C4C45BFF631AD012310AA00A922
S315080025A0504600F0A6FB0028F3D04FF0FF3021B0CC
S315080025B0BDE8F08F2DE9FA4E05460A462F696F2ABF
S315080025C008BF082405D041F02000782814BF0A2443
S315080025D01024D5E900013C2681468B46642A18BF9B
S315080025E0692A05D1002903DAD9F100096BEB4B0BEF
S315080025F0BBF1000F08BFB9F1000F0CD1286B50B919
S31508002600082C36D195F83800000732D530203B26FD
S3150800261087F83B002DE0E31748465946224600F066
S31508002620E1FBA4FB0023A9EB02023032A6F1010A62
S31508002630D2B256463A2A03DB9DF80030513B9A1827
S315080026400AF8072081465FEA010B08BFB9F1000FB7
S3150800265003D0E868F1198842DDD3082C09D195F82A
S315080026603800000705D5F05D302802D0761E3020E8
S31508002670F055C6F13C00A861F119E960296B88425A
S3150800268008DA081A28624FF6EF71288F084028875B
S31508002690BDE8F38E00290ED595F8381001F014011F
S315080026A0102908D1696B6A69891A2A6A891A081A67
S315080026B00128A8BF2862BDE8F38E00002DE9F04F77
S315080026C007468FB08B46D7E90001CDE9020104AE73
S315080026D04BF0200061280BD0386B002848BF062035
S315080026E005D404BF4BF02000672801D101203863C8
S315080026F07968C1F30A5040F2FF7290421AD1080372
S3150800270004BF3868002808D10320B861ABF161001E
S315080027101A2835D30FF21C6107E00320B861ABF124
S3150800272061001A2829D30FF20461F8680322FFF71B
S31508002730CDFBB6E1012816DA384600F0CAFB0128B7
S3150800274011DB002400204BF0200161291FD1F96814
S31508002750302201F8012B4A1CFA60BBF1610F0CBF4D
S31508002760782258220FE07A6840F2FE3161F31E5251
S31508002770441A7A604FF0FF30E5E70FF2AC51D4E720
S315080027800FF2AC51D1E70A707969891C796110B9E1
S31508002790002500247DE14BF02000612840F095805B
S315080027A0386B00284CBF2125451CDDE902012DB2F6
S315080027B06E1CD7E900890022002300F0ABFB3ABF64
S315080027C089F00040CDE90280CDE90289241F8DF801
S315080027D010200DF1110A01E000F2070A012E32DB82
S315080027E0DDE902010022002300F0ACFB2BD21C21FC
S315080027F002A800F0BFFBDDE9020100F045FCF61F68
S315080028008046012E09DB00F06BFC02460B46DDE92B
S31508002810020100F07DFCCDE902010AF2070007215A
S3150800282005E008F00F0200F8012D4FEA2818B8F164
S31508002830010F01DB491EF4D5491E5CBF002200F8D2
S31508002840012DF9D5C8E70DF11100AAEB00010DF12C
S315080028501106A942B8BF0D462DB228002ED48842CB
S3150800286006DA04A9411849780829A8BF0F2100DA11
S31508002870002104AA821800E06D1E12F80139401ED4
S315080028808B42F9D00F2904D104A941184A78521C61
S315080028904A70002802D504AE6D1C241D2DB2681E90
S315080028A00CD48119ABF13A030A783032D2B23A2AFB
S315080028B0A8BF9A1801F80129401EF5D5386B0028DB
S315080028C040F1E780681E3863E3E0DDE90201002293
S315080028D0002300F01FFB3CBF81F00041CDE9020157
S315080028E024B247F2975060434849DFF824A190FB89
S315080028F0F1F424B2C4F107050026012D19DBDDE940
S315080029000289E80707D5324653464046494600F04D
S31508002910BFFC804689466D103046514632465346BE
S3150800292000F0B6FC06468A46002DEAD1CDE90289B2
S3150800293021E06D429046DFF8DC9012E0E80707D503
S31508002940324653464046494600F0A2FC8046894630
S315080029506D10304651463246534600F099FC0646FD
S315080029608A46002DEAD1DDE9020142464B4600F0CF
S3150800297061FDCDE902014BF0200066280CBF04F189
S315080029800A000620396B4518142DA8BF13253020D8
S315080029908DF810000DF11106DFF87C90012D3DDB56
S315080029A0DDE9020100F086FB06F1080104220A238C
S315080029B0B0FBF3F303EB8306A0EB4600303001F8D7
S315080029C0010D0A20B3FBF0F000EB8006A3EB4603EB
S315080029D0303301F8013D521EE9D1083D01F10806E0
S315080029E0012DDBDBDDE9020100F064FB00F082FB70
S315080029F002460B46DDE9020100F08AFB00224B463F
S31508002A0000F046FCCDE90201CAE700BFA086010036
S31508002A10000024400000F03F84D797410DF11100D3
S31508002A20301A0DF1110602E0401E641E761C31783C
S31508002A303029F9D04BF02001662902D124B2611C55
S31508002A4003E065290CBF012100213A6B8D182DB2D0
S31508002A50A842B8BF05462DB229001AD4814204DA25
S31508002A60885D3528A8BF392000DA30208A19521E19
S31508002A7000E06D1E12F80139491E8342F9D0392843
S31508002A8002D1885D401C8855002902D5761E6D1C2A
S31508002A90641C24B200942BB232465946384600F0DC
S31508002AA003F80FB0BDE8F08F2DE9F04786B006466B
S31508002AB08A4690461D4600F0FEFD406A376B90F840
S31508002AC00090012D02DA01250FF26C284AF0200049
S31508002AD0BDF93840662808BF641C12D0672875D12E
S31508002AE014F1040F78DBBC4276DA96F83800641CD9
S31508002AF0000702D4BD42B8BF2F4624B23F1B48BFC9
S31508002B000027F068B16924B2012C21DA30234A1C67
S31508002B100B54012F03DA96F83810090702D502F884
S31508002B200090521CB261E742B8BF7C4224B26142AF
S31508002B30E7197162AF42B8BF3D462DB2F5612A4624
S31508002B40B36941461818FFF7C1F9781BB062B9E0B6
S31508002B500818A54216DA2A464146FFF7B7F9B169B9
S31508002B606918B161601B7062012F03DA96F83800A4
S31508002B70000705D5F06801F80090F069401CF0617F
S31508002B80B7629FE022464146FFF7A0F9B0692018D0
S31508002B902D1B012F03DA96F83810090703D5F168BB
S31508002BA000F80190401C2DB2B061AF42B8BF3D4657
S31508002BB0F3682DB22A4604EB0801C018FFF786F918
S31508002BC0B0692818B061781B70627BE0BAF1610FB2
S31508002BD014D14FF0700A16E0BD4204DA96F83810A0
S31508002BE0090758BF2F467F1E48BF0027BAF1670F4F
S31508002BF014BF4FF0450A4FF0650A04E0BAF1410FD9
S31508002C0008BF4FF0500AB169F06818F8013B0B5439
S31508002C104A1C012F05DA96F83810090758BFB26121
S31508002C2015D502F80090531CB361012F0FDB6D1EFA
S31508002C302DB2AF42B8BF3D462DB22A4641461818B6
S31508002C40FFF744F9B0692818B061781B7062B0695B
S31508002C50F16800EB0108200008F801AB03D42B202B
S31508002C6008F8010B03E02D2108F8011B6442002532
S31508002C7002AF08E00A2200A800F036FD019807F81E
S31508002C80010B6D1C009C21B20129F3DA022D06DA2C
S31508002C904AF02000652804BF302008F8010B4DB91A
S31508002CA0302008F8010B07E06D1E02A8285C3030BA
S31508002CB008F8010B012DF7DAB069F1684018A8EB9E
S31508002CC00000F06196F8380000F0140010280DD1C5
S31508002CD07069B1690818716A0818F1690818B16A43
S31508002CE00818716B8842BCBF081A306206B0BDE886
S31508002CF0F087F8B504460D4616461F46002004E040
S31508002D00E86A401CE8627F1E002047B116F8011BDE
S31508002D10A868A047A8600028F2D14FF0FF30F2BD9E
S31508002D20686A6C747A4C00006E616E004E414E0003
S31508002D30696E6600494E4600300000040278C9B242
S31508002D408A421AB11CBF10F8012FF9E718BF0020F4
S31508002D507047090000F10103810704D010F8011B30
S31508002D6089B18107FAD10268B2F10131914311F0B4
S31508002D70803F04BF50F8042FF6E710F8011B11B185
S31508002D8010F8011BFBE7C01A70470A00C9B283078F
S31508002D9006D0521E22D310F8013B9942F7D11FE004
S31508002DA0083A13D302F1040241EA012141EA01413A
S31508002DB050F8043B121F21BF4B40A3F1013C2CEAFB
S31508002DC0030C1CF0803FF3D0C9B2001F083210F87C
S31508002DD0013B521E28BF91EA030FF8D818BF0120FD
S31508002DE0401E70471B4213D1094236D12AB1844688
S31508002DF0B0FBF2F002FB10C2704700F07DBCFCD3BA
S31508002E000022002370470B000200002100207047B3
S31508002E10904271EB030CF6D370B5B1FA81F4B3FAAC
S31508002E2083F52C1BA340C4F1200532FA05F633437B
S31508002E30A2405FF00046E64002E05B085FEA320225
S31508002E40841A71EB030524BF204629467641F4D33C
S31508002E5002000B003000002170BD012ACFD970B5E1
S31508002E60140C20D0B1FA81F4B2FA82F5C4F1200428
S31508002E706419B4F12006D6D3B2405FF00044F4409A
S31508002E80002502E052085FEA3303C61A71EB020E08
S31508002E9024BF3046714664416D41F3D302000B00EE
S31508002EA02000290070BD0C46B1FBF2F102FB11456A
S31508002EB02D0445EA1045B5FBF2F402FB145580B221
S31508002EC040EA0545B5FBF2F002FB105240EA044021
S31508002ED070BD30B4436803F0004201211B031B0B8D
S31508002EE0436004BF0368002B08D10DE00368DD0FBB
S31508002EF045EA440444605B000360491E4468E302F3
S31508002F00F4D523031B0B436043681A434260084603
S31508002F1030BC70474FF4001C1CEB410F94BF1CEBF0
S31508002F20430F09E041EA030C50EA4C0C52EA0C0C38
S31508002F3003D2994208BF9042704714BF8B4282421F
S31508002F4070471F214FF4001C1CEB410F94BF1CEB6C
S31508002F50430F09E041EA030C50EA4C0C52EA0C0C08
S31508002F6003D28B4208BF8242704714BF99429042EF
S31508002F707047202270B504460D466068C0F30A50B3
S31508002F8040F2FF71884207D16068000304BF2068D9
S31508002F90002817D0022070BD20B92046FFF799FFF8
S31508002FA0012867DA012D0FDB40F2FF71091A8D42FD
S31508002FB00AD3606800284CBF9FED2F0B9FED300B9E
S31508002FC084ED000B012070BD4142A942616806DA12
S31508002FD06FF31E51401941EA0050606041E0401EFF
S31508002FE063680122451962F31F5305F1350001F0A4
S31508002FF000416360352803D361600020206070BDFE
S31508003000002215F11F0F04DA2268236000202035FC
S315080030106060684213D0521E25689241C0F12003B1
S31508003020D2439D4045EAD27225686668C54006FACD
S3150800303003F32B432360636823FA00F0606060683B
S3150800304008436060B2F1004F03D80DD12078C0075D
S315080030500AD52068401C2060206828B96068401C92
S3150800306060604FF0FF3070BD6068884204BF20681A
S315080030700028F6D1002070BD000000000000F0FF17
S31508003080000000000000F07FF446400D40EAC12031
S31508003090490006D200F014F8004248BF6FF000401D
S315080030A0604700F00DF84FF0004188428CBF084693
S315080030B040426047400D40EAC120490080F00D803B
S315080030C040F00040490DA1F58061491C05D4D1F1B5
S315080030D01F0154BFC840C01770474FF00000704723
S315080030E0010040F10980F446404200F005F851F02D
S315080030F000416047010000BF09D0B0FA80F188405E
S31508003100C91CC1F58461090501EBD021400570474A
S3150800311070B44FF0004591EA030F44BF6B4000F0CE
S31508003120F7BA00BF841A71EB030604D26E40001B7F
S31508003130B141121973414FF4001C1CEB410F34BF07
S315080031407CEB430684E00C0DA4EB1356362E7DDC8F
S31508003150012E43DC45EAC32343EA525312BFD20287
S3150800316092025B08240545EAC12141EA5051D2EB97
S31508003170C020994125D407D1B0FA80F610FA06F195
S3150800318064D00020203608E0B1FA81F6B140C6F1D5
S31508003190200220FA02F21143B0404FEAF474B4EB6D
S315080031A0465434F001064FEA74040AD8D6F50016D8
S315080031B0760D04F00044F04061FA06F25040F14002
S315080031C04840C00A40EA415021F0004128BF5FEA62
S315080031D0500550F1000044EBD12137E045EAC323FE
S315080031E0DB0A45EAC121C90AB6F120050EDD42EA25
S315080031F00242120CC5F1200603FA06F6EB4042EA33
S3150800320006056D42984161F100010DE062FA06F586
S31508003210F240554063FA06FC82EA0C02F3405A4033
S315080032206D42904161EB030111F4801F05D1641EC4
S31508003230620502D06D004041494121F480114308DE
S3150800324075F1004350F1000041EB045170BC704722
S315080032501CEB410F15D223F0004352EA43060BD06C
S315080032604FEA4C0CBCEB410F04D80C0D661E342EED
S31508003270B7DDEBE7801A994150EA410608BF0021FD
S31508003280E4E708BF1CEB430F28BF6FF00001DDE73A
S31508003290B0B581EA030C0CF0004C40F2FF7515EA54
S315080032A011541DBF15EA1357AC42AF4239E0E41971
S315080032B023EA455343F48013C90241F0004141EA29
S315080032C0505EC7021100A7FB020200284FF000005B
S315080032D0EEFB01204FF00001E3FB072118BF42F087
S315080032E00102401800214941E3FB0E01A4F5806460
S315080032F00F0302D252004041494154F101046CDDEA
S31508003300470872F1004250F1000051EB0451A1F553
S3150800331080115CBF41EA0C01B0BD4CEA05510020A2
S31508003320B0BD05EA1357AC4214BFAF4241E050EABC
S31508003330410E1CBF52EA430E02E061460020B0BDB2
S3150800334024423C441BD15FEA070EF6D0090302BFAC
S3150800335001460020AEF1140EB1FA81F7AEEB070470
S3150800336001FA07FE0C37C7F1200100FA07F7C84033
S315080033704EEA000E23EA455343F48013A2E733F0DE
S315080033800043B3FA83F704BFB2FA82FE77440B3FD1
S31508003390E41BB7F1200E2FBF02FA0EF3BB40C7F1AC
S315080033A0200E22FA0EFE38BF43EA0E03BA40641C0A
S315080033B082E750EA410E14BF52EA430E6FF000014D
S315080033C04FF4001717EB430F8ABF194617EB410F47
S315080033D0B5E74CEA05510020B0BDD4F10104B4F1BB
S315080033E020070FDAC4F12007520828BF42F001026D
S315080033F010FA07F501FA07F7E1BF2A43E040384318
S31508003400E1400FE0352C98DCC7F1200452EA40026F
S3150800341020FA07F218BF42F0010231FA07F0A1407C
S315080034200A43002172F1004250F1000051EB0C01F1
S31508003430B0BD0202F0B540F2FF7581EA030C0CF04C
S31508003440004C15EA11541DBF15EA1357AC42AF429A
S31508003450E5E0BC41C1F31301C3F31303801A994194
S3150800346043F4801304D2641E400049418018594130
S31508003470C90241EA5051B1FBF3F603FB1611A2FB50
S315080034800675D7EBC020A94102D2761E801859418D
S31508003490C90241EA5051B1FBF3FE03FB1E11A2FB20
S315080034A00E75D7EBC020A94103D2AEF1010E8018E4
S315080034B05941890241EA9051760546EA8E2EB1FBBA
S315080034C0F3F603FB1611A2FB0675D7EB8020A9417C
S315080034D002D2761E80185941C90241EA50514EEA75
S315080034E0060EB1FBF3F603FB1611A2FB0675D7EB26
S315080034F0C020A94102D2761E80185941C90241EA64
S315080035005051B1FBF3F703FB1711A2FB0735D3EBB9
S31508003510C020A94167F100070CBF004247F0010728
S3150800352066F3D5274FEA1E31B80814F5806412DD14
S31508003530BD0775F1004250EB0E5051EB045111F5E1
S31508003540801F5CBF41EA0C01F0BD4CF07F6141F081
S31508003550E0410020F0BDBD076D0840EA0E5041F479
S315080035608011D4F10104B4F120060ADAC4F1200668
S315080035700200E04001FA06F3E1401843B240154361
S315080035800EE0342C13DCC6F1200445EA40056D082C
S3150800359020FA06F2154321FA06F0A1400D43002150
S315080035A075F1004250F1000051EB0C01F0BD00200E
S315080035B05FEA0C01F0BDCFB992185B41B3FA83F705
S315080035C004BFB2FA82F6BF190B3FB7F120062FBF28
S315080035D002FA06F3BB40C7F1200622FA06F638BF00
S315080035E03343BA401CB1E419641E33E77F4231F015
S315080035F00041B1FA81F404BFB0FA80F6A4190B3C75
S31508003600B4F120062FBF00FA06F1A140C4F1200646
S3150800361020FA06F638BF3143A0403C1B1AE7AC42F5
S315080036201ABF05EA1357AF4212E050EA41061CBF1B
S3150800363052EA4306BFE750EA4107304661461CBFD7
S3150800364041EA0551F0BD52EA430C08BFC143F0BD3B
S3150800365000204FF4001616EB410F98BF16EB430FE8
S3150800366008BF16EB410F24BFC14305E016EB430F15
S315080036700CBF61464CEA0551F0BD000080B5134801
S3150800368000F0B0F80FF24801016041608160C16046
S315080036900161416181610FF23C0242628162C1624D
S315080036A0016341630FF2300282630FF23402C26390
S315080036B00164416401BD10B5044800F093F804465E
S315080036C0206808B9FFF7DAFF204610BD0000002081
S315080036D0000000002E00000066616C7365000000A3
S315080036E0747275650000000091FBF2F303FB12117A
S315080036F0C0E90031704700007047000070B44FF011
S31508003700004591EA030C44BF6B40FFF70BBD00BFB1
S31508003710841A71EB030603D2001BB14112197341D7
S315080037204FF4001C1CEB410F34BF7CEB430443E011
S315080037300C0DA4EB1356352E50DC45EAC323DB0AE1
S3150800374045EAC121C912B6F120050DDD63FA05F671
S31508003750EB4086EA0305124218BF45F00105C0187A
S3150800376051F100010CD213E062FA06F5F240554019
S31508003770F3415A40B340F3405A408018594107D3A1
S3150800378049085FEA30005FEA350528BF45F00105BC
S3150800379001F58011420875F1004250F1000041EB35
S315080037A0045170BC4FF4001C1CEB410F38BF704726
S315080037B00020090D090570471CEB410F10D252EA8B
S315080037C043060BD0BCEB410F05D80C0DAB43661E68
S315080037D0342EB5DD02E0AB438018594170BC704702
S315080037E070BC7047704707072DE9F04782B00400A0
S315080037F00D0016001F000020ADF8000000AB4FF4C6
S3150800380040720121002000F0DFF800AB02220121FE
S315080038104FF4807000F0D8F800AB4FF480720121A5
S3150800382040F2011000F0D0F800AB4FF4807201218D
S315080038304FF4817000F0C8F800ABE4B22200012111
S3150800384040F2031000F0C0F800ABEDB22A000121E7
S315080038504FF4827000F0B8F800ABF6B232000121DE
S3150800386040F2051000F0B0F800ABFFB23A000121B3
S315080038704FF4837000F0A8F800AB012201214FF441
S31508003880007000F0A1F800AB002201214FF440704F
S3150800389000F09AF800AB0022012140F2013000F056
S315080038A093F800AB012203214FF4806000F08CF8F6
S315080038B000AB002203214FF4A06000F085F800ABAE
S315080038C00022032140F2015000F07EF800AB0022EE
S315080038D0032140F2025000F077F800AB00220121E4
S315080038E040F2035000F070F800AB002202214FF4BA
S315080038F0C06000F069F8002080461FFA88F8B8F121
S31508003900120F3ADA1FFA88F84FF4807000FB08F0B5
S3150800391010F54050814600AB00220121484680B28E
S3150800392000F052F800AB0022012119F1010080B223
S3150800393000F04AF800AB0022032119F1020080B218
S3150800394000F042F800AB0022032119F1030080B20F
S3150800395000F03AF800AB0022032119F1040080B206
S3150800396000F032F800AB0022012119F1050080B2FF
S3150800397000F02AF818F10108BFE7002080461FFA70
S3150800398088F8B8F1000F1DD11FFA88F84FF4807037
S3150800399000FB08F010F5A0408146002082461FFA79
S315080039A08AFABAF1120F0ADA00AB002203211AEBDF
S315080039B0090080B200F008F81AF1010AEFE718F1D9
S315080039C00108DCE7BDE8F38730B41D882C00E4B2B3
S315080039D0912C10DAE4B2DFF87C5725F83400E4B20B
S315080039E0DFF8705715EBC405A970E4B2DFF8645721
S315080039F015EBC4056A601D886D1C1D8030BC7047B8
S31508003A000200002003009BB2912B1CDA9BB2DFF860
S31508003A10440730F8330092B2904212D19BB2DFF8D5
S31508003A20340710EBC3008078C00701D402200BE0EE
S31508003A309BB2DFF8200710EBC3004068086000203F
S31508003A4002E05B1CDFE701207047F8B504000D00B3
S31508003A50160000200700BFB2912F3DDABFB2DFF88B
S31508003A60F40630F83700A4B2A04233D1BFB2DFF86B
S31508003A70E40610EBC700807880070BD4F6B2002E58
S31508003A8006D0BFB2DFF8CC0610EBC70045601FE0D2
S31508003A90022022E0BFB2DFF8BC0610EBC700456083
S31508003AA0A4B2B4F5806F05D1F6B2002E02D1280172
S31508003AB000F00EFBA4B214F47F40B0F5A04F07D176
S31508003AC0F6B2002E04D12A00E1B2002000F050FB25
S31508003AD0002002E07F1CBEE70120F2BD38B50400D5
S31508003AE02078052802D02078002879D16078012826
S31508003AF007D066D3032832D01CD3052860D04AD312
S31508003B005FE0A07910F00F00022812DB01220021E5
S31508003B1040F20250FFF799FF207A617A51EA0020B5
S31508003B2005002100280080B200F05BF8200000F0B4
S31508003B3077FC55E02078052810D1012201214FF4A1
S31508003B404070FFF782FF21004FF4407000F049F8FB
S31508003B50200000F065FC042000F0BAFA40E0A079E5
S31508003B6010F00F00032815DB0122002140F2025055
S31508003B70FFF76BFF207A052806D1607A022803D161
S31508003B80200000F085F805E0200000F081F820000C
S31508003B9000F046FC24E02078052810D101220121F6
S31508003BA04FF44070FFF751FF21004FF4407000F0CA
S31508003BB018F8200000F034FC042000F089FA0FE021
S31508003BC00EE001224FF4417140F20130FFF73DFF4C
S31508003BD0210040F2013000F004F8200000F020FC3B
S31508003BE031BD70B582B004000D0000A9200080B276
S31508003BF0FFF706FF060002206870052028700720D8
S31508003C00A871A4B2200A28726C720020A87200203B
S31508003C10E87200202873002068730020A87300202B
S31508003C20E873F6B2002E03D0022E1CD012D323E07E
S31508003C300020A8720020E872002028730098000E61
S31508003C40E8720098000C28730098000A68730098B8
S31508003C50A8731AE00122012140F20130FFF7F5FEB0
S31508003C600120A87211E00122032140F20130FFF77A
S31508003C70ECFE0320A87208E001224FF4827140F29C
S31508003C800130FFF7E2FE0420A8723000C0B276BD0C
S31508003C90F8B5040000250027A079032801DBA07ADF
S31508003CA00700A079042802DBE07A50EA0727A07902
S31508003CB0052802DB207B50EA0727A079062802DBC5
S31508003CC0607B50EA07273D00207A617A51EA002096
S31508003CD0070000222900380080B2FFF7B6FE06006A
S31508003CE040F20150874205D10122002140F20250DC
S31508003CF0FFF7ABFEB7F5A06F05D10122002140F210
S31508003D000350FFF7A2FE04206070052020700420EF
S31508003D10A071F6B2002E03D0022E11D005D31AE0F8
S31508003D200020A0720020E07220E00122012140F26A
S31508003D300130FFF78AFE0020A0720120E07215E02C
S31508003D400122022140F20130FFF77FFE0020A07217
S31508003D500220E0720AE001224FF4017140F20130BC
S31508003D60FFF773FE0220A0720420E072F1BD30B5A1
S31508003D7085B00400A4B24FF4807000FB04F010F57F
S31508003D804050050000A9280080B2FFF72AFF002846
S31508003D9002D100A800F044FB05B030BD30B585B0AF
S31508003DA00400A4B24FF4807000FB04F010F54050F4
S31508003DB0050000A9681C80B2FFF713FF002802D18E
S31508003DC000A800F02DFB05B030BDF0B583B00400A7
S31508003DD00D000027A4B24FF4807000FB04F010F524
S31508003DE04050060001A9300080B2FFF709FE0028FE
S31508003DF045D100A9B01C80B2FFF702FE00283ED1CB
S31508003E000098002808D001980099884204D20098A2
S31508003E10A84201D257F0010700A9F01C80B2FFF7AB
S31508003E20EFFD00282BD10098002808D000980199AA
S31508003E30884204D20098854201D257F0010700A9AA
S31508003E40301D80B2FFF7DCFD002818D1009810F16C
S31508003E50010F01D157F0010701222900300080B275
S31508003E60FFF7F3FDBC48007810F0F000102806D1E3
S31508003E70FFB2002F03D0200080B2FFF778FFF7BD0E
S31508003E8070B582B004000D00A4B24FF4807000FB38
S31508003E9004F010F54050060001222900701C80B27B
S31508003EA0FFF7D3FD00A9301D80B2FFF7A9FD002852
S31508003EB00DD1009810F1010F09D1A748007810F02C
S31508003EC0F000102803D1200080B2FFF767FF73BD0A
S31508003ED030B587B0A0480078F021084200F0DE80AF
S31508003EE09E480068C0070DD59C48006840084000F9
S31508003EF09A49086000209A4908609A490860012092
S31508003F0000F07DF995480068800708D59348006851
S31508003F1030F0020091490860022000F070F98F48DD
S31508003F20006840070DD58D48006830F004008B49BD
S31508003F30086000208C4908608C490860032000F05E
S31508003F405EF900A940F20250FFF75AFD002807D192
S31508003F500122009810F10A0140F20250FFF775FDA0
S31508003F6000A940F20350FFF74BFD002807D10122B4
S31508003F70009810F10A0140F20350FFF766FD00A908
S31508003F804FF4A060FFF73CFD00281BD101A940F2C1
S31508003F900350FFF735FD002814D10098002811D0EA
S31508003FA00098019988420DD20122002140F203505F
S31508003FB0FFF74BFD02A94FF48060FFF712FE02A837
S31508003FC000F02EFA00A940F20150FFF719FD00286B
S31508003FD028D101A940F20250FFF712FD002821D18D
S31508003FE0009800281ED00098019988421AD201220A
S31508003FF0002140F20250FFF728FD0122002140F27D
S315080040000350FFF722FD012202214FF44070FFF70B
S315080040101CFD5148007810F0F000202802D020201E
S3150800402000F056F80025122D38DA4FF4807000FBA0
S3150800403005F010F54050040000A9601D80B2FFF796
S31508004040DFFC002808D100980A3001900122019966
S31508004050601D80B2FFF7F9FC00A9201D80B2FFF7AA
S31508004060CFFC002818D10098002815D0009810F128
S31508004070010F11D00098019988420DD2280080B20C
S31508004080FFF775FE280080B2FFF788FE012200219F
S31508004090601D80B2FFF7D9FC6D1CC4E707B030BDC0
S315080040A000B585B0012201214FF40070FFF7CDFC61
S315080040B0012200214FF44070FFF7C7FC00A94FF416
S315080040C00070FFF78EFD00A800F0AAF905B000BD44
S315080040D01FB50400002C02D100201F490880102CAF
S315080040E010D110201C490880012221094FF4806054
S315080040F0FFF7ABFC00A94FF48060FFF772FD00A83C
S3150800410000F08EF9202C10D12020134908800122B6
S3150800411021094FF48060FFF798FC00A94FF48060EE
S31508004120FFF75FFD00A800F07BF9302C10D1302096
S3150800413009490880012221094FF48060FFF785FCB0
S3150800414000A94FF48060FFF74CFD00A800F068F95D
S315080041501FBD0000200C00200C1C0020E41B0020C2
S31508004160D81B0020D41B0020E01B0020DC1B0020ED
S315080041707FB504000D001600ADB2062D19DAADB2F2
S31508004180290000A800F02EFA002E05D1ADB22800AD
S3150800419000F048FD019004E0ADB2280000F042FDB1
S315080041A00290ADB2290000A800F03CFA00F0D2F95E
S315080041B024E000F0EAFE002820D0ADB20A2D03DA8A
S315080041C0002000F084FE05E0ADB20A2D02DB0120D6
S315080041D000F07DFE0F2001F043F8ADB2A81F0428B9
S315080041E002DA2800801F01E028000A383100C9B227
S315080041F0C0B200F0BDFC0F2001F032F87FBD1FB53C
S3150800420004000122200250F004014FF44070FFF729
S315080042101CFC00A94FF44070FFF7E3FC00A800F06F
S31508004220FFF81FBD012110F01F02914040B242095C
S31508004230A24B43F82210704710B440B2002808D5A4
S315080042400A0140B210F00F039D4C1B1903F8042C09
S3150800425003E00A0140B29B4BC25410BC704780B5BC
S315080042600020994908609949086099490860994960
S3150800427008609949086003209849086001211320BD
S31508004280FFF7DAFF01211420FFF7D6FF1320FFF707
S31508004290C9FF1420FFF7C6FF01BD80B58B4800682B
S315080042A08949096888421FD08D480068C00721D50A
S315080042B08B48006850F00100894908608248006808
S315080042C0884911EB001000F068F8002812D07E48E3
S315080042D00068401C7C4908607B480068202809D390
S315080042E000207949086005E07C48006840084000DD
S315080042F07A49086001BD80B57B48006810F0030F55
S3150800430024D074480068794911EB001000F01FF8B2
S3150800431070480068401C00900098202801D30020AF
S31508004320009000986A490968884206D16A48006878
S3150800433050F001006849086002E000986549086085
S315080043406948006850F020006749086001BD68495F
S315080043500968490706D40021416065490968490D7D
S31508004360016006E05FF00041416061490968C908DB
S3150800437001605F490968890703D5416851F08041A2
S3150800438041605C49096811F00F0181715A49096851
S3150800439081605A490968C160704701005048006841
S315080043A0400101D400203AE00020554A10604868D0
S315080043B0002807D4524800680A6850EA4250504A12
S315080043C0106008E04E4800680A68D20052F00402FD
S315080043D010434B4A10604868400005D548480068B5
S315080043E050F00200464A10608868464A1060C8685D
S315080043F0454A10604548006800090001434A1060B4
S31508004400424800688A7912F00F0210433F4A10604A
S315080044103B48006850F00100394A10600120704797
S3150800442038B504002000FFF7B8FF002823D1274835
S3150800443000682C4911EB001021001022FDF756FDEB
S3150800444022480068401C0500202D01D300200500E5
S315080044501D480068854206D11F48006850F00400D0
S315080044601D49086001E0194805601C48006850F0BD
S3150800447001001A49086031BD10B5040015480068E6
S3150800448013490968884216D0200011490968174A55
S3150800449012EB01111022FDF729FD0D480068401C9A
S315080044A00B4908600A480068202802D300200849FA
S315080044B00860012000E0002010BD000000E100E0D7
S315080044C018ED00E000E400E0E01B0020DC1B002003
S315080044D0D81B0020D41B0020E41B002014640040D5
S315080044E008640040A81200200C640040A8100020B0
S315080044F0B0650040B4650040B8650040BC65004042
S3150800450080650040886500408C65004084650040F1
S3150800451000B583B001215FF4802001F0FCF84FF468
S315080045200070009001208DF8040000208DF8060028
S3150800453000208DF8070003208DF8050000A9DFF894
S31508004540B00501F03BF901F0BBF901F065FA01F09D
S31508004550C7F907BD10B588B000A8102101F088FD7D
S3150800456004A8DFF890151022FDF7C0FC0021DFF83B
S31508004570880500F037F80121DFF8800500F032F8E9
S315080045800221DFF87C0500F02DF80321DFF8740519
S3150800459000F028F80421DFF8700500F023F805215B
S315080045A0DFF8680500F01EF80024062C18D2DFF89C
S315080045B0480510EB04104068FEF79CFDCDE90001A4
S315080045C0DFF8340510EB04108068FEF793FDCDE99B
S315080045D00201220004A900A801F06DFD641CE4E7AD
S315080045E008B010BD70B504000D0010263200210079
S315080045F02801401C80B201F01FFD002801D00020D0
S315080046000FE0042221005FF0553001F03DFE00283E
S3150800461006D12068DFF8F814884201D1012000E0AD
S31508004620002070BD70B504000D000026DFF8E00418
S315080046302060032221005FF0553001F025FEE0607E
S3150800464001F03EF9102221002801401C80B201F039
S31508004650D5FC060001F044F93000C0B270BD10B5B3
S3150800466090B000240020102804D2002100AA81540A
S31508004670401CF8E701F024F9402200A9012001F0C6
S31508004680BDFC040001F02CF92000C0B210B010BD2A
S315080046902DE9F84F2DED028B88B00400002001901B
S315080046A05FF0000B5FF0000A5FF000095FF000089A
S315080046B000269FED5F8A0027DFF8580401F0F0FD19
S315080046C0E4B2002C08D0022C10D00AD3042C17D040
S315080046D011D3052C19D01CE0DFF83C0401F0E0FDED
S315080046E017E0DFF8380401F0DBFD12E0DFF83004EC
S315080046F001F0D6FD0DE0DFF82C0401F0D1FD08E04D
S31508004700DFF8240401F0CCFD03E0DFF8200401F013
S31508004710C7FDFFB2002F02D0012F05D009E0DFF850
S31508004720100401F0BDFD04E0DFF8080401F0B8FD4F
S31508004730FFE700208DF80000DFF8FC03006805009D
S31508004740B5EB0B000A2804D301F00BFE8DF8000028
S31508004750AB460198281A642800D30195B5EB0A00E0
S31508004760B0F5FA7F0ED3AA4618EE100A01F018FE25
S3150800477002000B00E4B202A850F82410DFF8BC03CC
S3150800478001F08EFDB5EB0900B0F57A7F00D3A94696
S31508004790B5EB080040F6C411884218D3A84606218E
S315080047A002A800F011FAE4B202A850F82400FEF7B5
S315080047B0A1FCDFF88C23DFF88C33FEF769FD01F0E6
S315080047C017FE08EE100A9FED1B0A88EE008AA81B42
S315080047D041F28831884200D32E009DF800000D284A
S315080047E0AAD1FFB2002F02D0012F09D011E0E4B2FE
S315080047F002A850F82400D44948600120070008E0C0
S31508004800E4B202A850F82400CF49886002200700C5
S31508004810FFE7FFB2022F7FF44FAFE4B22100CA4888
S31508004820FFF700FF08B0BDEC028BBDE8F18F000072
S315080048300000000000007A442DE9F84F2DED028BA8
S3150800484086B00400002001905FF0000B5FF0000ABC
S315080048505FF000095FF0000800269FEDA38A002795
S31508004860AC4801F01DFDE4B2002C05D0022C0BD09B
S3150800487006D3032C0CD00EE0A74801F011FD0AE080
S31508004880A64801F00DFD06E0A54801F009FD02E085
S31508004890A44801F005FDFFB2002F0CD0022F12D05C
S315080048A00DD3042F17D012D3062F1CD017D3082FD9
S315080048B021D01CD323E0A54801F0F2FC1FE0A44850
S315080048C001F0EEFC1BE0A34801F0EAFC17E0A24861
S315080048D001F0E6FC13E0A14801F0E2FC0FE0A04875
S315080048E001F0DEFC0BE09F4801F0DAFC07E09E4889
S315080048F001F0D6FC03E09D4801F0D2FCFFE700205A
S315080049008DF800008C4800680500B5EB0B000A28F6
S3150800491004D301F026FD8DF80000AB460198281A4D
S31508004920642800D30195B5EB0A00B0F5FA7F0DD3DC
S31508004930AA4618EE100A01F033FD02000B00E4B295
S3150800494002A850F824107D4801F0AAFCB5EB09002E
S31508004950B0F57A7F00D3A946B5EB080040F6C41136
S3150800496088421AD3A8462000C0B200F020FBE4B261
S3150800497002A941F82400E4B202A850F82400FEF780
S31508004980B9FB6F4A6F4BFEF783FC01F031FD08EE69
S31508004990100A9FED560A88EE008AA81B41F2883154
S315080049A0884200D32E009DF800000D28AAD1FFB238
S315080049B0002F0CD0022F26D017D3042F3FD030D388
S315080049C0062F58D049D3082F71D062D37DE00F2027
S315080049D000F046FC00212000C0B200F0D9FA0F20F2
S315080049E000F03EFC012007006FE00F2000F038FCC5
S315080049F001212000C0B200F0CBFA0F2000F030FCF5
S31508004A000220070061E00F2000F02AFC02212000A6
S31508004A10C0B200F0BDFA0F2000F022FC0320070008
S31508004A2053E00F2000F01CFC03212000C0B200F068
S31508004A30AFFA0F2000F014FC0420070045E00F2011
S31508004A4000F00EFC04212000C0B200F0A1FA0F20ED
S31508004A5000F006FC0520070037E00F2000F000FCF8
S31508004A6005212000C0B200F093FA0F2000F0F8FBF1
S31508004A700620070029E00F2000F0F2FB062120009F
S31508004A80C0B200F085FA0F2000F0EAFB0720070005
S31508004A901BE00F2000F0E4FB07212000C0B200F065
S31508004AA077FA0F2000F0DCFB082007000DE00F2046
S31508004AB000F0D6FB08212000C0B200F069FA0F20EA
S31508004AC000F0CEFB09200700FFE7FFB2092F7FF4AD
S31508004AD0C7AEE4B221001C48FFF7A4FD06B0BDEC42
S31508004AE0028BBDE8F18F00000000000000007A4448
S31508004AF000040048F0A30008F41800200419002058
S31508004B001419002024190020341900204419002003
S31508004B10CA23A10C4CA40008B0A00008D8A000081D
S31508004B2000A1000828A1000850A1000878A10008E3
S31508004B30749E0008409E0008041C002000A400087B
S31508004B4028F224E99AC9E93F981B0020A49E000888
S31508004B50D49E0008049F0008349F0008649F00083C
S31508004B60949F0008C49F0008F49F000824A000082A
S31508004B7038B504000D00E4B2052C08DAEDB2092DAB
S31508004B8005DA2900C9B22000C0B200F001FA31BD29
S31508004B90F0B40200136801241068012501268E422C
S31508004BA010DA52F826709F4201D1641C08E0A5422B
S31508004BB001DA2500180052F826703B0001273C0050
S31508004BC0761CECE7F0BC70472DE9F04104000D00B7
S31508004BD0072D01D3002023E00026642E10D20027DB
S31508004BE0062F0BD24FF4C8701C4900FB0718781C17
S31508004BF001F046FC48F826007F1CF1E7761CECE736
S31508004C000026062E0BD264214FF4C870134A00FB07
S31508004C100620FFF7BDFF44F82600761CF1E70120C1
S31508004C20BDE8F08170B504000025601C072801D393
S31508004C30002010E00026642E07D2601C01F020FC3C
S31508004C40064941F82600761CF5E764210348FFF774
S31508004C509FFF0500280070BD00000000C00200206C
S31508004C6080B500F0B2F801BD70B504000D0016005D
S31508004C70DFF8A80590F90000002801D001203EE0E1
S31508004C8000F085F8DFF894150870DFF8900590F9BC
S31508004C90000000282FD1ADB2DFF884054560DFF8A3
S31508004CA080050460B6B2DFF87805C660DFF87005DF
S31508004CB0DFF870158860DFF86C05406930F48030DD
S31508004CC0DFF860154861DFF85C05406930F40030AC
S31508004CD0DFF850154861DFF84C0501F05FFF002842
S31508004CE004D00120DFF83415087004E000F04FF80E
S31508004CF0DFF828150870DFF8240590F9000070BD64
S31508004D0038B504000D00DFF8140590F900000028F6
S31508004D1001D001203AE0DFF8040590F900000028E8
S31508004D2030D1DFF80005406950F48030DFF8F4141C
S31508004D304861DFF8F004406930F40030DFF8E41425
S31508004D404861ADB2DFF8E0044560DFF8DC040460D2
S31508004D50DFF8D404DFF8CC14486000F018F8DFF860
S31508004D60BC140870DFF8BC0401F048FE002804D023
S31508004D700120DFF8A814087004E000F008F8DFF84E
S31508004D809C140870DFF8940490F9000032BDDFF82F
S31508004D908C0490F90000002804D0DFF8800490F90C
S31508004DA0000011E0DFF87C04007B012808D0DFF85A
S31508004DB0740400690028F5D00120DFF86014087033
S31508004DC0DFF8580490F90000704780B5DFF85C04F6
S31508004DD00068DFF84C1448600020DFF844140860C7
S31508004DE03020DFF83C1488600020DFF83414C860EF
S31508004DF00020DFF834144860DFF83404DFF828149C
S31508004E0008603020DFF8201488600020DFF81814C6
S31508004E10C860002000F067FCDFF8080401F0B9FD5F
S31508004E200020DFF8001488705FF48030DFF8F41390
S31508004E3048610120DFF8EC13C870DFF8F803DFF8E3
S31508004E40E413C96908606820DFF8D813C9690861DE
S31508004E50DFF8CC03DFF8CC138860DFF8CC03DFF883
S31508004E60C4134860DFF8BC0301F080FC01BD10B52F
S31508004E700400DFF8B4038460DFF8A4038460DFF875
S31508004E80A40301F073FC10BD38B50400002500200A
S31508004E90DFF89C1308700121DFF89403FFF730FF51
S31508004EA005000020DFF89013087000220121DFF8C2
S31508004EB08803FFF7D9FE05006DB2002D02D0002049
S31508004EC0207003E0DFF870030078207031BD10B55C
S31508004ED00400DFF868030470DFF860030078DFF881
S31508004EE060130968405CFFF7C2FF10BD10B582B0B9
S31508004EF000208DF800000020DFF848130870002411
S31508004F00FE2C31D2E0072DD42000FFF7B0FF002099
S31508004F108DF800000A2000F0A3F900A8FFF7B4FFF7
S31508004F209DF80000AB281DD100A8FFF7ADFFDFF8FC
S31508004F3014030078401CDFF80C130870DFF804032C
S31508004F400178DFF8FC020068FCF754FFDFF8F0127E
S31508004F500860DFF8F0020078DFF8E4120968401804
S31508004F6000F8014C641CCBE713BD10B50024B54806
S31508004F700078844208D2B2480068225C611CB248B4
S31508004F8001F08EF9641CF2E710BDAE480078704750
S31508004F9038B504000D008420A549087055EA0410A8
S31508004FA0A34948700221A248FFF7AAFE31BD38B5C9
S31508004FB004000025022200219F4802F0C3F8E4B24B
S31508004FC0002C05D0022C1DD00FD3032C27D032E09D
S31508004FD008209749087001219548FFF791FE082295
S31508004FE002219548FFF740FE25E00A2090490870FF
S31508004FF001218F48FFF784FE0A2202218E48FFF717
S3150800500033FE18E00C208A49087001218848FFF70A
S3150800501077FE0C2202218848FFF726FE0BE00E20B9
S315080050208349087001218248FFF76AFE0E22022191
S315080050308148FFF719FE8048407805002D027E4812
S3150800504000780543280080B232BD38B50400002533
S3150800505002220021784802F075F8E4B2002C05D047
S31508005060022C23D012D3032C30D03FE010207049F5
S31508005070087001216E48FFF743FE0A2000F0F0F899
S31508005080102202216C48FFF7EFFD2FE01220684935
S31508005090087001216648FFF733FE0A2000F0E0F8A1
S315080050A0122202216448FFF7DFFD1FE01420604941
S315080050B0087001215E48FFF723FE0A2000F0D0F8A9
S315080050C0142202215C48FFF7CFFD0FE0162058494D
S315080050D0087001215648FFF713FE0A2000F0C0F8B1
S315080050E0162202215448FFF7BFFDFFE752484078D1
S315080050F005002D02504800780543280080B232BDCD
S315080051002DE9F04F87B00020029000200190002082
S3150800511000905FF0000B5FF0000A5FF000095FF097
S315080051200008002500264948006804000198201A4E
S315080051300A2803D301F015F9060001940298201AEB
S31508005140642800D30294B4EB0B00B0F5967F1CD309
S31508005150A3462800C0B2FFF778FFEDB203A941F8CD
S315080051602500EDB2002D05D0022D09D005D3032D5B
S3150800517009D00AE00120050007E00220050004E046
S315080051800320050001E0002005000098201AB0F56C
S31508005190FA7F28D300942E4801F082F82748007831
S315080051A027490968415C2B4801F07AF80027042F43
S315080051B016D203A850F8270000EE100AB8EE400AE7
S315080051C0F2EE040A80EE200A10EE100A01F0E8F862
S315080051D002000B00791C204801F062F87F1CE6E704
S315080051E01E4801F05DF8B4EB0A00B0F57A7F00D3EB
S315080051F0A246B4EB090040F6C411884200D3A14682
S31508005200B4EB080041F28831884200D3A046F6B2D2
S315080052100D2E88D107B0BDE8F08F0000121C0020C3
S31508005220A81B0020F8010020B81B0020B0020020AF
S31508005230481700200504114080160020141C002081
S31508005240E81B0020131C0020E09C0008041C00201A
S315080052505CA40008DCA20008A4A300081CA300089C
S3150800526001B4009808490860074800680028FBD17F
S3150800527001B0704704480068002804D00248006856
S31508005280401E014908607047D01B0020F0B5002178
S315080052900022002300240025002600275FF0000CCA
S315080052A0DFF8ECE4DEF800E01EF00C0E71468E46E0
S315080052B0BEF1000F06D0BEF1040F08D0BEF1080FEC
S315080052C00AD033E0DFF8D4E4C0F800E032E0DFF8D3
S315080052D0CCE4C0F800E02DE0DFF8B4E4DEF800E046
S315080052E01EF4701E7246DFF8A8E4DEF800E01EF42D
S315080052F0803E7346920C921C002B05D1DFF8A0E481
S315080053000EFB02FE76460FE0DFF888E4DEF800E0E2
S315080053101EF00F0E1EF1010E7446DFF880E4BEFB88
S31508005320F4FE02FB0EFE7646066003E0DFF86CE448
S31508005330C0F800E0DFF858E4DEF800E01EF0F00EF2
S3150800534071460909DFF85CE411F80EE0F446D0F876
S3150800535000E03EFA0CFEC0F804E0DFF834E4DEF8BC
S3150800536000E01EF4E06E7146090ADFF838E411F829
S315080053700EE07546D0F804E03EFA05FEC0F808E0EF
S31508005380DFF80CE4DEF800E01EF4605E7146C90A38
S31508005390DFF810E411F80EE07746D0F804E03EFA9C
S315080053A007FEC0F80CE0DFF8ECE3DEF800E01EF4D8
S315080053B0F87E71460909DFF8F0E33EF811E0754614
S315080053C05FEAC56E04D5B6FBF5FEC0F810E003E04B
S315080053D0D0F800E0C0F810E0DFF8B8E3DEF800E047
S315080053E01EF4785E7146490ADFF8BCE33EF811E020
S315080053F075465FEAC56E04D5B6FBF5FEC0F814E03F
S3150800540003E0D0F800E0C0F814E0DFF88CE3DEF83B
S3150800541000E05FEACE6E04D4DFF880E3C0F818E057
S3150800542003E0D0F800E0C0F818E0DFF86CE3DEF837
S3150800543000E05FEA8E6E04D4DFF860E3C0F81CE093
S3150800544003E0D0F800E0C0F81CE0DFF84CE3DEF833
S3150800545000E05FEACE5E0AD5D0F800E0B64506D190
S31508005460674504D15FEA460EC0F820E003E0D0F8AD
S315080054700CE0C0F820E0DFF820E3DEF800E05FEAA1
S315080054808E5E0AD5D0F800E0B64506D1674504D148
S315080054905FEA460EC0F824E003E0D0F80CE0C0F856
S315080054A024E0DFF8F4E2DEF800E01EF0030F04D192
S315080054B0D0F80CE0C0F828E028E0DFF8DCE2DEF8F7
S315080054C000E01EF0030EBEF1010F04D1D0F800E093
S315080054D0C0F828E01AE0DFF8C0E2DEF800E01EF0C7
S315080054E0030EBEF1020F04D14FF4004EC0F828E0B7
S315080054F00CE0DFF8A4E2DEF800E01EF0030EBEF1D1
